ARM Linker, 5.02 [Build 28] [MDK-ARM Standard]

==============================================================================

Section Cross References

    system_stm32f10x.o(i.SetSysClock) refers to system_stm32f10x.o(i.SetSysClockTo72) for SetSysClockTo72
    system_stm32f10x.o(i.SystemCoreClockUpdate) refers to system_stm32f10x.o(.data) for SystemCoreClock
    system_stm32f10x.o(i.SystemInit) refers to system_stm32f10x.o(i.SetSysClock) for SetSysClock
    stm32f10x_adc.o(i.ADC_DeInit) refers to stm32f10x_rcc.o(i.RCC_APB2PeriphResetCmd) for RCC_APB2PeriphResetCmd
    stm32f10x_bkp.o(i.BKP_DeInit) refers to stm32f10x_rcc.o(i.RCC_BackupResetCmd) for RCC_BackupResetCmd
    stm32f10x_can.o(i.CAN_DeInit) refers to stm32f10x_rcc.o(i.RCC_APB1PeriphResetCmd) for RCC_APB1PeriphResetCmd
    stm32f10x_can.o(i.CAN_GetITStatus) refers to stm32f10x_can.o(i.CheckITStatus) for CheckITStatus
    stm32f10x_cec.o(i.CEC_DeInit) refers to stm32f10x_rcc.o(i.RCC_APB1PeriphResetCmd) for RCC_APB1PeriphResetCmd
    stm32f10x_dac.o(i.DAC_DeInit) refers to stm32f10x_rcc.o(i.RCC_APB1PeriphResetCmd) for RCC_APB1PeriphResetCmd
    stm32f10x_flash.o(i.FLASH_EnableWriteProtection) refers to stm32f10x_flash.o(i.FLASH_WaitForLastOperation) for FLASH_WaitForLastOperation
    stm32f10x_flash.o(i.FLASH_EraseAllBank1Pages) refers to stm32f10x_flash.o(i.FLASH_WaitForLastBank1Operation) for FLASH_WaitForLastBank1Operation
    stm32f10x_flash.o(i.FLASH_EraseAllPages) refers to stm32f10x_flash.o(i.FLASH_WaitForLastOperation) for FLASH_WaitForLastOperation
    stm32f10x_flash.o(i.FLASH_EraseOptionBytes) refers to stm32f10x_flash.o(i.FLASH_GetReadOutProtectionStatus) for FLASH_GetReadOutProtectionStatus
    stm32f10x_flash.o(i.FLASH_EraseOptionBytes) refers to stm32f10x_flash.o(i.FLASH_WaitForLastOperation) for FLASH_WaitForLastOperation
    stm32f10x_flash.o(i.FLASH_ErasePage) refers to stm32f10x_flash.o(i.FLASH_WaitForLastOperation) for FLASH_WaitForLastOperation
    stm32f10x_flash.o(i.FLASH_ProgramHalfWord) refers to stm32f10x_flash.o(i.FLASH_WaitForLastOperation) for FLASH_WaitForLastOperation
    stm32f10x_flash.o(i.FLASH_ProgramOptionByteData) refers to stm32f10x_flash.o(i.FLASH_WaitForLastOperation) for FLASH_WaitForLastOperation
    stm32f10x_flash.o(i.FLASH_ProgramWord) refers to stm32f10x_flash.o(i.FLASH_WaitForLastOperation) for FLASH_WaitForLastOperation
==============================================================================

Removing Unused input sections from the image.

    Removing core_cm3.o(.emb_text), (32 bytes).
    Removing system_stm32f10x.o(i.SystemCoreClockUpdate), (164 bytes).
    Removing system_stm32f10x.o(.data), (20 bytes).
    Removing misc.o(i.NVIC_SetVectorTable), (20 bytes).
    Removing misc.o(i.NVIC_SystemLPConfig), (32 bytes).
    Removing misc.o(i.SysTick_CLKSourceConfig), (40 bytes).
    Removing stm32f10x_adc.o(i.ADC_AnalogWatchdogCmd), (20 bytes).
    Removing stm32f10x_adc.o(i.ADC_AnalogWatchdogSingleChannelConfig), (16 bytes).
    Removing stm32f10x_adc.o(i.ADC_AnalogWatchdogThresholdsConfig), (6 bytes).
    Removing stm32f10x_adc.o(i.ADC_AutoInjectedConvCmd), (22 bytes).
    Removing stm32f10x_adc.o(i.ADC_ClearFlag), (6 bytes).
    Removing stm32f10x_adc.o(i.ADC_ClearITPendingBit), (10 bytes).
    Removing stm32f10x_adc.o(i.ADC_Cmd), (22 bytes).
    Removing stm32f10x_adc.o(i.ADC_DMACmd), (22 bytes).
    Removing stm32f10x_adc.o(i.ADC_DeInit), (92 bytes).
    Removing stm32f10x_adc.o(i.ADC_DiscModeChannelCountConfig), (24 bytes).
    Removing stm32f10x_adc.o(i.ADC_DiscModeCmd), (22 bytes).
    Removing stm32f10x_adc.o(i.ADC_ExternalTrigConvCmd), (22 bytes).
==============================================================================

Image Symbol Table

    Local Symbols

    Symbol Name                              Value     Ov Type        Size  Object(Section)

    ../clib/../cmprslib/zerorunl2.c          0x00000000   Number         0  __dczerorl2.o ABSOLUTE
    ../clib/microlib/division.c              0x00000000   Number         0  uidiv.o ABSOLUTE
    ../clib/microlib/division.c              0x00000000   Number         0  uldiv.o ABSOLUTE
    ../clib/microlib/init/entry.s            0x00000000   Number         0  entry5.o ABSOLUTE
    ../clib/microlib/init/entry.s            0x00000000   Number         0  entry7a.o ABSOLUTE
    ../clib/microlib/init/entry.s            0x00000000   Number         0  entry2.o ABSOLUTE
    ../clib/microlib/init/entry.s            0x00000000   Number         0  entry7b.o ABSOLUTE
    ../clib/microlib/init/entry.s            0x00000000   Number         0  entry8.o ABSOLUTE
    ../clib/microlib/init/entry.s            0x00000000   Number         0  entry.o ABSOLUTE
    ../clib/microlib/longlong.c              0x00000000   Number         0  llushr.o ABSOLUTE
    ../clib/microlib/longlong.c              0x00000000   Number         0  llshl.o ABSOLUTE
    ../clib/microlib/longlong.c              0x00000000   Number         0  llsshr.o ABSOLUTE
    ../clib/microlib/printf/printf.c         0x00000000   Number         0  printfb.o ABSOLUTE
    ../clib/microlib/printf/printf.c         0x00000000   Number         0  printf1.o ABSOLUTE
    ../clib/microlib/printf/printf.c         0x00000000   Number         0  printf0.o ABSOLUTE
    ../clib/microlib/printf/printf.c         0x00000000   Number         0  printfa.o ABSOLUTE
    ../clib/microlib/printf/printf.c         0x00000000   Number         0  printf7.o ABSOLUTE
    ../clib/microlib/printf/printf.c         0x00000000   Number         0  printf6.o ABSOLUTE
    ../clib/microlib/printf/printf.c         0x00000000   Number         0  printf5.o ABSOLUTE
    ../clib/microlib/printf/printf.c         0x00000000   Number         0  printf4.o ABSOLUTE
    ../clib/microlib/printf/printf.c         0x00000000   Number         0  printf3.o ABSOLUTE
    ../clib/microlib/printf/printf.c         0x00000000   Number         0  printf2.o ABSOLUTE
    ../clib/microlib/printf/printf.c         0x00000000   Number         0  printf8.o ABSOLUTE
    ../clib/microlib/stdio/fputc.c           0x00000000   Number         0  fputc.o ABSOLUTE
    ../clib/microlib/stdio/semi.s            0x00000000   Number         0  semi.o ABSOLUTE
    ../clib/microlib/stdio/streams.c         0x00000000   Number         0  stdout.o ABSOLUTE
    ../clib/microlib/string/memcpy.c         0x00000000   Number         0  memmovea.o ABSOLUTE
    ../clib/microlib/string/memcpy.c         0x00000000   Number         0  memmoveb.o ABSOLUTE
    ../clib/microlib/string/strcmp.c         0x00000000   Number         0  strcmp.o ABSOLUTE
    ../clib/microlib/string/strcpy.c         0x00000000   Number         0  strcpy.o ABSOLUTE
    ../clib/microlib/string/strlen.c         0x00000000   Number         0  strlen.o ABSOLUTE
    ../clib/microlib/string/strtok.c         0x00000000   Number         0  strtok_r.o ABSOLUTE
    ../clib/microlib/stubs.s                 0x00000000   Number         0  iusefp.o ABSOLUTE
    ../clib/microlib/stubs.s                 0x00000000   Number         0  iusesemip.o ABSOLUTE
    ../fplib/microlib/fpadd.c                0x00000000   Number         0  dadd.o ABSOLUTE
    ../fplib/microlib/fpdiv.c                0x00000000   Number         0  ddiv.o ABSOLUTE
    ../fplib/microlib/fpepilogue.c           0x00000000   Number         0  depilogue.o ABSOLUTE
    ../fplib/microlib/fpfix.c                0x00000000   Number         0  dfixul.o ABSOLUTE
    ../fplib/microlib/fpmul.c                0x00000000   Number         0  dmul.o ABSOLUTE
    Application\task.c                       0x00000000   Number         0  task.o ABSOLUTE
    Hardware\delay.c                         0x00000000   Number         0  delay.o ABSOLUTE
    Hardware\led.c                           0x00000000   Number         0  led.o ABSOLUTE
    Hardware\usart.c                         0x00000000   Number         0  usart.o ABSOLUTE
    Libraries\CMSIS\core_cm3.c               0x00000000   Number         0  core_cm3.o ABSOLUTE
    Libraries\CMSIS\system_stm32f10x.c       0x00000000   Number         0  system_stm32f10x.o ABSOLUTE
    Libraries\StdPeriph_Driver\misc.c        0x00000000   Number         0  misc.o ABSOLUTE
    Libraries\StdPeriph_Driver\stm32f10x_adc.c 0x00000000   Number         0  stm32f10x_adc.o ABSOLUTE
    Libraries\StdPeriph_Driver\stm32f10x_bkp.c 0x00000000   Number         0  stm32f10x_bkp.o ABSOLUTE
    Libraries\StdPeriph_Driver\stm32f10x_can.c 0x00000000   Number         0  stm32f10x_can.o ABSOLUTE
    Libraries\StdPeriph_Driver\stm32f10x_cec.c 0x00000000   Number         0  stm32f10x_cec.o ABSOLUTE
    Libraries\StdPeriph_Driver\stm32f10x_crc.c 0x00000000   Number         0  stm32f10x_crc.o ABSOLUTE
    Libraries\StdPeriph_Driver\stm32f10x_dac.c 0x00000000   Number         0  stm32f10x_dac.o ABSOLUTE
    Libraries\StdPeriph_Driver\stm32f10x_dbgmcu.c 0x00000000   Number         0  stm32f10x_dbgmcu.o ABSOLUTE
    Libraries\StdPeriph_Driver\stm32f10x_dma.c 0x00000000   Number         0  stm32f10x_dma.o ABSOLUTE
    Libraries\StdPeriph_Driver\stm32f10x_exti.c 0x00000000   Number         0  stm32f10x_exti.o ABSOLUTE
    Libraries\StdPeriph_Driver\stm32f10x_flash.c 0x00000000   Number         0  stm32f10x_flash.o ABSOLUTE
    Libraries\StdPeriph_Driver\stm32f10x_fsmc.c 0x00000000   Number         0  stm32f10x_fsmc.o ABSOLUTE
    Libraries\StdPeriph_Driver\stm32f10x_gpio.c 0x00000000   Number         0  stm32f10x_gpio.o ABSOLUTE
    Libraries\StdPeriph_Driver\stm32f10x_i2c.c 0x00000000   Number         0  stm32f10x_i2c.o ABSOLUTE
    Libraries\StdPeriph_Driver\stm32f10x_iwdg.c 0x00000000   Number         0  stm32f10x_iwdg.o ABSOLUTE
    Libraries\StdPeriph_Driver\stm32f10x_pwr.c 0x00000000   Number         0  stm32f10x_pwr.o ABSOLUTE
    Libraries\StdPeriph_Driver\stm32f10x_rcc.c 0x00000000   Number         0  stm32f10x_rcc.o ABSOLUTE
    Libraries\StdPeriph_Driver\stm32f10x_rtc.c 0x00000000   Number         0  stm32f10x_rtc.o ABSOLUTE
    Libraries\StdPeriph_Driver\stm32f10x_sdio.c 0x00000000   Number         0  stm32f10x_sdio.o ABSOLUTE
    Libraries\StdPeriph_Driver\stm32f10x_spi.c 0x00000000   Number         0  stm32f10x_spi.o ABSOLUTE
    Libraries\StdPeriph_Driver\stm32f10x_tim.c 0x00000000   Number         0  stm32f10x_tim.o ABSOLUTE
    Libraries\StdPeriph_Driver\stm32f10x_usart.c 0x00000000   Number         0  stm32f10x_usart.o ABSOLUTE
    Libraries\StdPeriph_Driver\stm32f10x_wwdg.c 0x00000000   Number         0  stm32f10x_wwdg.o ABSOLUTE
    Libraries\\CMSIS\\core_cm3.c             0x00000000   Number         0  core_cm3.o ABSOLUTE
    Libraries\startup\startup_stm32f10x_hd.s 0x00000000   Number         0  startup_stm32f10x_hd.o ABSOLUTE
    Main\bsp.c                               0x00000000   Number         0  bsp.o ABSOLUTE
    Main\console.c                           0x00000000   Number         0  console.o ABSOLUTE
    Main\main.c                              0x00000000   Number         0  main.o ABSOLUTE
    Main\stm32f10x_it.c                      0x00000000   Number         0  stm32f10x_it.o ABSOLUTE
    cdrcmple.s                               0x00000000   Number         0  cdrcmple.o ABSOLUTE
    dc.s                                     0x00000000   Number         0  dc.o ABSOLUTE
    handlers.s                               0x00000000   Number         0  handlers.o ABSOLUTE
    init.s                                   0x00000000   Number         0  init.o ABSOLUTE
    uCOS\CPU\cpu_a.asm                       0x00000000   Number         0  cpu_a.o ABSOLUTE
    uCOS\CPU\cpu_c.c                         0x00000000   Number         0  cpu_c.o ABSOLUTE
    uCOS\CPU\cpu_core.c                      0x00000000   Number         0  cpu_core.o ABSOLUTE
    uCOS\Cfg\os_app_hooks.c                  0x00000000   Number         0  os_app_hooks.o ABSOLUTE
    uCOS\LIB\lib_ascii.c                     0x00000000   Number         0  lib_ascii.o ABSOLUTE
    uCOS\LIB\lib_math.c                      0x00000000   Number         0  lib_math.o ABSOLUTE
    uCOS\LIB\lib_mem.c                       0x00000000   Number         0  lib_mem.o ABSOLUTE
    uCOS\LIB\lib_str.c                       0x00000000   Number         0  lib_str.o ABSOLUTE
    uCOS\Ports\os_cpu_a.asm                  0x00000000   Number         0  os_cpu_a.o ABSOLUTE
    uCOS\Ports\os_cpu_c.c                    0x00000000   Number         0  os_cpu_c.o ABSOLUTE
    uCOS\Source\os_cfg_app.c                 0x00000000   Number         0  os_cfg_app.o ABSOLUTE
    uCOS\Source\os_core.c                    0x00000000   Number         0  os_core.o ABSOLUTE
    uCOS\Source\os_dbg.c                     0x00000000   Number         0  os_dbg.o ABSOLUTE
    uCOS\Source\os_flag.c                    0x00000000   Number         0  os_flag.o ABSOLUTE
    uCOS\Source\os_int.c                     0x00000000   Number         0  os_int.o ABSOLUTE
    uCOS\Source\os_mem.c                     0x00000000   Number         0  os_mem.o ABSOLUTE
    uCOS\Source\os_msg.c                     0x00000000   Number         0  os_msg.o ABSOLUTE
    uCOS\Source\os_mutex.c                   0x00000000   Number         0  os_mutex.o ABSOLUTE
    uCOS\Source\os_pend_multi.c              0x00000000   Number         0  os_pend_multi.o ABSOLUTE
    uCOS\Source\os_prio.c                    0x00000000   Number         0  os_prio.o ABSOLUTE
    uCOS\Source\os_q.c                       0x00000000   Number         0  os_q.o ABSOLUTE
    uCOS\Source\os_sem.c                     0x00000000   Number         0  os_sem.o ABSOLUTE
    uCOS\Source\os_stat.c                    0x00000000   Number         0  os_stat.o ABSOLUTE
    uCOS\Source\os_task.c                    0x00000000   Number         0  os_task.o ABSOLUTE
    uCOS\Source\os_tick.c                    0x00000000   Number         0  os_tick.o ABSOLUTE
    uCOS\Source\os_time.c                    0x00000000   Number         0  os_time.o ABSOLUTE
    uCOS\Source\os_tmr.c                     0x00000000   Number         0  os_tmr.o ABSOLUTE
    uCOS\Source\os_var.c                     0x00000000   Number         0  os_var.o ABSOLUTE
    usart\uart_user.c                        0x00000000   Number         0  uart_user.o ABSOLUTE
    RESET                                    0x08000000   Section      304  startup_stm32f10x_hd.o(RESET)
    .ARM.Collect$$$$00000000                 0x08000130   Section        0  entry.o(.ARM.Collect$$$$00000000)
    .ARM.Collect$$$$00000001                 0x08000130   Section        4  entry2.o(.ARM.Collect$$$$00000001)
    .ARM.Collect$$$$00000004                 0x08000134   Section        4  entry5.o(.ARM.Collect$$$$00000004)
    .ARM.Collect$$$$00000008                 0x08000138   Section        0  entry7b.o(.ARM.Collect$$$$00000008)
    .ARM.Collect$$$$00000009                 0x08000138   Section        8  entry8.o(.ARM.Collect$$$$00000009)
    .ARM.Collect$$$$00002712                 0x08000140   Section        4  entry2.o(.ARM.Collect$$$$00002712)
    __lit__00000000                          0x08000140   Data           4  entry2.o(.ARM.Collect$$$$00002712)
    .text                                    0x08000144   Section       36  startup_stm32f10x_hd.o(.text)
    .text                                    0x08000168   Section       42  cpu_a.o(.text)
    .text                                    0x08000194   Section      132  os_cpu_a.o(.text)
    .text                                    0x08000218   Section        0  uldiv.o(.text)
    .text                                    0x0800027a   Section        0  memmovea.o(.text)
    .text                                    0x080002ba   Section        0  strlen.o(.text)
    .text                                    0x080002ca   Section        0  strcmp.o(.text)
    .text                                    0x080002e6   Section        0  strcpy.o(.text)
    .text                                    0x080002f8   Section        0  strtok_r.o(.text)
    .text                                    0x0800033c   Section        0  llshl.o(.text)
    .text                                    0x0800035a   Section        0  llushr.o(.text)
    .text                                    0x0800037c   Section       36  init.o(.text)
    .text                                    0x080003a0   Section        0  __dczerorl2.o(.text)
    .text                                    0x080003a0   Section        0  semi.o(.text)
    .text                                    0x080003a0   Section        0  iusesemip.o(.text)
    i.AppTaskStart                           0x080003fc   Section        0  task.o(i.AppTaskStart)
    i.App_OS_IdleTaskHook                    0x080004f4   Section        0  os_app_hooks.o(i.App_OS_IdleTaskHook)
    i.App_OS_SetAllHooks                     0x08000508   Section        0  os_app_hooks.o(i.App_OS_SetAllHooks)
    i.App_OS_StatTaskHook                    0x08000594   Section        0  os_app_hooks.o(i.App_OS_StatTaskHook)
    i.App_OS_TaskCreateHook                  0x08000596   Section        0  os_app_hooks.o(i.App_OS_TaskCreateHook)
    i.App_OS_TaskDelHook                     0x08000598   Section        0  os_app_hooks.o(i.App_OS_TaskDelHook)
    i.App_OS_TaskReturnHook                  0x0800059a   Section        0  os_app_hooks.o(i.App_OS_TaskReturnHook)
    i.App_OS_TaskSwHook                      0x0800059c   Section        0  os_app_hooks.o(i.App_OS_TaskSwHook)
    i.App_OS_TimeTickHook                    0x080005b0   Section        0  os_app_hooks.o(i.App_OS_TimeTickHook)
    i.BSP_CPU_ClkFreq                        0x080005b2   Section        0  bsp.o(i.BSP_CPU_ClkFreq)
    i.BSP_Init                               0x080005c4   Section        0  bsp.o(i.BSP_Init)
    i.BusFault_Handler                       0x08000644   Section        0  stm32f10x_it.o(i.BusFault_Handler)
    i.CPU_IntDisMeasMaxCalc                  0x08000648   Section        0  cpu_core.o(i.CPU_IntDisMeasMaxCalc)
    CPU_IntDisMeasMaxCalc                    0x08000649   Thumb Code    24  cpu_core.o(i.CPU_IntDisMeasMaxCalc)
    i.CPU_IntDisMeasMaxCurGet                0x08000664   Section        0  cpu_core.o(i.CPU_IntDisMeasMaxCurGet)
    i.CPU_IntDisMeasMaxCurReset              0x08000690   Section        0  cpu_core.o(i.CPU_IntDisMeasMaxCurReset)
    i.CPU_IntDisMeasMaxGet                   0x080006bc   Section        0  cpu_core.o(i.CPU_IntDisMeasMaxGet)
    i.CPU_IntDisMeasStart                    0x080006e8   Section        0  cpu_core.o(i.CPU_IntDisMeasStart)
    i.CPU_IntDisMeasStop                     0x0800071c   Section        0  cpu_core.o(i.CPU_IntDisMeasStop)
    i.CPU_TS_TmrRd                           0x08000770   Section        0  bsp.o(i.CPU_TS_TmrRd)
    i.DebugMon_Handler                       0x0800077c   Section        0  stm32f10x_it.o(i.DebugMon_Handler)
    i.EXTI_Config                            0x0800077e   Section        0  bsp.o(i.EXTI_Config)
    i.GPIO_Configuration                     0x08000780   Section        0  bsp.o(i.GPIO_Configuration)
    i.GPIO_Init                              0x08000782   Section        0  stm32f10x_gpio.o(i.GPIO_Init)
    i.HardFault_Handler                      0x08000894   Section        0  stm32f10x_it.o(i.HardFault_Handler)
    i.LED_Init                               0x080008b0   Section        0  led.o(i.LED_Init)
    i.MemManage_Handler                      0x080008e8   Section        0  stm32f10x_it.o(i.MemManage_Handler)
    i.NMI_Handler                            0x080008ec   Section        0  stm32f10x_it.o(i.NMI_Handler)
    i.NVIC_Configuration                     0x080008ee   Section        0  bsp.o(i.NVIC_Configuration)
    i.NVIC_Init                              0x08000930   Section        0  misc.o(i.NVIC_Init)
    i.NVIC_PriorityGroupConfig               0x080009a4   Section        0  misc.o(i.NVIC_PriorityGroupConfig)
    i.OSCfg_Init                             0x080009b8   Section        0  os_cfg_app.o(i.OSCfg_Init)
    i.OSIdleTaskHook                         0x08000ab4   Section        0  os_cpu_c.o(i.OSIdleTaskHook)
    i.OSInit                                 0x08000ac8   Section        0  os_core.o(i.OSInit)
    i.OSInitHook                             0x08000c24   Section        0  os_cpu_c.o(i.OSInitHook)
    i.OSIntExit                              0x08000c44   Section        0  os_core.o(i.OSIntExit)
    i.OSSched                                0x08000d28   Section        0  os_core.o(i.OSSched)
    i.OSSchedLock                            0x08000dd0   Section        0  os_core.o(i.OSSchedLock)
    i.OSSchedUnlock                          0x08000e4c   Section        0  os_core.o(i.OSSchedUnlock)
    i.OSSemCreate                            0x08000eec   Section        0  os_sem.o(i.OSSemCreate)
    i.OSSemPend                              0x08000f74   Section        0  os_sem.o(i.OSSemPend)
    i.OSSemPost                              0x08001190   Section        0  os_sem.o(i.OSSemPost)
    i.OSStart                                0x08001200   Section        0  os_core.o(i.OSStart)
    i.OSStatReset                            0x08001268   Section        0  os_stat.o(i.OSStatReset)
    i.OSStatTaskCPUUsageInit                 0x08001360   Section        0  os_stat.o(i.OSStatTaskCPUUsageInit)
    i.OSStatTaskHook                         0x08001430   Section        0  os_cpu_c.o(i.OSStatTaskHook)
    i.OSTaskCreate                           0x08001444   Section        0  os_task.o(i.OSTaskCreate)
    i.OSTaskCreateHook                       0x080016d8   Section        0  os_cpu_c.o(i.OSTaskCreateHook)
    i.OSTaskDel                              0x080016f0   Section        0  os_task.o(i.OSTaskDel)
    i.OSTaskDelHook                          0x080018f8   Section        0  os_cpu_c.o(i.OSTaskDelHook)
    i.OSTaskReturnHook                       0x08001910   Section        0  os_cpu_c.o(i.OSTaskReturnHook)
    i.OSTaskSemPend                          0x08001928   Section        0  os_task.o(i.OSTaskSemPend)
    i.OSTaskStkChk                           0x08001b5c   Section        0  os_task.o(i.OSTaskStkChk)
    i.OSTaskStkInit                          0x08001c40   Section        0  os_cpu_c.o(i.OSTaskStkInit)
    i.OSTaskSwHook                           0x08001d00   Section        0  os_cpu_c.o(i.OSTaskSwHook)
    i.OSTimeDly                              0x08001dac   Section        0  os_time.o(i.OSTimeDly)
    i.OSTimeDlyHMSM                          0x08001efc   Section        0  os_time.o(i.OSTimeDlyHMSM)
    i.OSTimeTick                             0x08002128   Section        0  os_time.o(i.OSTimeTick)
    i.OSTimeTickHook                         0x0800216c   Section        0  os_cpu_c.o(i.OSTimeTickHook)
    i.OS_CPU_SysTickHandler                  0x08002180   Section        0  os_cpu_c.o(i.OS_CPU_SysTickHandler)
    i.OS_CPU_SysTickInit                     0x080021c0   Section        0  os_cpu_c.o(i.OS_CPU_SysTickInit)
    i.OS_Dbg_Init                            0x080021f0   Section        0  os_dbg.o(i.OS_Dbg_Init)
    i.OS_FlagInit                            0x080023a0   Section        0  os_flag.o(i.OS_FlagInit)
    i.OS_FlagPost                            0x080023b8   Section        0  os_flag.o(i.OS_FlagPost)
    i.OS_FlagTaskRdy                         0x08002634   Section        0  os_flag.o(i.OS_FlagTaskRdy)
    i.OS_IdleTask                            0x08002690   Section        0  os_core.o(i.OS_IdleTask)
    i.OS_IdleTaskInit                        0x080026dc   Section        0  os_core.o(i.OS_IdleTaskInit)
    i.OS_IntQPost                            0x0800274c   Section        0  os_int.o(i.OS_IntQPost)
    i.OS_IntQRePost                          0x0800284c   Section        0  os_int.o(i.OS_IntQRePost)
    i.OS_IntQTask                            0x080029bc   Section        0  os_int.o(i.OS_IntQTask)
    i.OS_IntQTaskInit                        0x08002a64   Section        0  os_int.o(i.OS_IntQTaskInit)
    i.OS_MemInit                             0x08002b8c   Section        0  os_mem.o(i.OS_MemInit)
    i.OS_MsgPoolCreate                       0x08002ba4   Section        0  os_msg.o(i.OS_MsgPoolCreate)
    i.OS_MsgPoolInit                         0x08002bdc   Section        0  os_msg.o(i.OS_MsgPoolInit)
    i.OS_MsgQFreeAll                         0x08002c2c   Section        0  os_msg.o(i.OS_MsgQFreeAll)
    i.OS_MsgQInit                            0x08002c70   Section        0  os_msg.o(i.OS_MsgQInit)
    i.OS_MsgQPut                             0x08002c80   Section        0  os_msg.o(i.OS_MsgQPut)
    i.OS_MutexInit                           0x08002d58   Section        0  os_mutex.o(i.OS_MutexInit)
    i.OS_Pend                                0x08002d70   Section        0  os_core.o(i.OS_Pend)
    i.OS_PendDataInit                        0x08002dd8   Section        0  os_core.o(i.OS_PendDataInit)
    i.OS_PendDbgNameAdd                      0x08002e00   Section        0  os_core.o(i.OS_PendDbgNameAdd)
    i.OS_PendDbgNameRemove                   0x08002e5c   Section        0  os_core.o(i.OS_PendDbgNameRemove)
    i.OS_PendListInit                        0x08002e80   Section        0  os_core.o(i.OS_PendListInit)
    i.OS_PendListInsertPrio                  0x08002e8a   Section        0  os_core.o(i.OS_PendListInsertPrio)
    i.OS_PendListRemove                      0x08002ef0   Section        0  os_core.o(i.OS_PendListRemove)
    i.OS_PendListRemove1                     0x08002f20   Section        0  os_core.o(i.OS_PendListRemove1)
    i.OS_Post                                0x08002f62   Section        0  os_core.o(i.OS_Post)
    i.OS_Post1                               0x08003028   Section        0  os_core.o(i.OS_Post1)
    i.OS_PrioGetHighest                      0x08003054   Section        0  os_prio.o(i.OS_PrioGetHighest)
    i.OS_PrioInit                            0x0800307c   Section        0  os_prio.o(i.OS_PrioInit)
    i.OS_PrioInsert                          0x08003094   Section        0  os_prio.o(i.OS_PrioInsert)
    i.OS_PrioRemove                          0x080030b8   Section        0  os_prio.o(i.OS_PrioRemove)
    i.OS_QInit                               0x080030dc   Section        0  os_q.o(i.OS_QInit)
    i.OS_QPost                               0x080030f4   Section        0  os_q.o(i.OS_QPost)
    i.OS_RdyListInit                         0x08003278   Section        0  os_core.o(i.OS_RdyListInit)
    i.OS_RdyListInsert                       0x0800329c   Section        0  os_core.o(i.OS_RdyListInsert)
    i.OS_RdyListInsertHead                   0x080032c8   Section        0  os_core.o(i.OS_RdyListInsertHead)
    i.OS_RdyListInsertTail                   0x08003308   Section        0  os_core.o(i.OS_RdyListInsertTail)
    i.OS_RdyListMoveHeadToTail               0x08003344   Section        0  os_core.o(i.OS_RdyListMoveHeadToTail)
    i.OS_RdyListRemove                       0x08003388   Section        0  os_core.o(i.OS_RdyListRemove)
    i.OS_Sched0                              0x080033e4   Section        0  os_core.o(i.OS_Sched0)
    i.OS_SchedLockTimeMeasStart              0x08003440   Section        0  os_core.o(i.OS_SchedLockTimeMeasStart)
    i.OS_SchedLockTimeMeasStop               0x0800345c   Section        0  os_core.o(i.OS_SchedLockTimeMeasStop)
    i.OS_SchedRoundRobin                     0x08003498   Section        0  os_core.o(i.OS_SchedRoundRobin)
    i.OS_SemDbgListAdd                       0x08003584   Section        0  os_sem.o(i.OS_SemDbgListAdd)
    i.OS_SemInit                             0x080035b4   Section        0  os_sem.o(i.OS_SemInit)
    i.OS_SemPost                             0x080035cc   Section        0  os_sem.o(i.OS_SemPost)
    i.OS_StatTask                            0x08003764   Section        0  os_stat.o(i.OS_StatTask)
    i.OS_StatTaskInit                        0x080039d4   Section        0  os_stat.o(i.OS_StatTaskInit)
    i.OS_TaskBlock                           0x08003aa0   Section        0  os_core.o(i.OS_TaskBlock)
    i.OS_TaskDbgListAdd                      0x08003ad8   Section        0  os_task.o(i.OS_TaskDbgListAdd)
    i.OS_TaskDbgListRemove                   0x08003b08   Section        0  os_task.o(i.OS_TaskDbgListRemove)
    i.OS_TaskInit                            0x08003b4c   Section        0  os_task.o(i.OS_TaskInit)
    i.OS_TaskInitTCB                         0x08003b6c   Section        0  os_task.o(i.OS_TaskInitTCB)
    i.OS_TaskQPost                           0x08003c44   Section        0  os_task.o(i.OS_TaskQPost)
    i.OS_TaskRdy                             0x08003eac   Section        0  os_core.o(i.OS_TaskRdy)
    i.OS_TaskReturn                          0x08003ec8   Section        0  os_task.o(i.OS_TaskReturn)
    i.OS_TaskSemPost                         0x08003ee0   Section        0  os_task.o(i.OS_TaskSemPost)
    i.OS_TickListInit                        0x080042dc   Section        0  os_tick.o(i.OS_TickListInit)
    i.OS_TickListInsert                      0x08004304   Section        0  os_tick.o(i.OS_TickListInsert)
    i.OS_TickListRemove                      0x080044c0   Section        0  os_tick.o(i.OS_TickListRemove)
    i.OS_TickListResetPeak                   0x080044f8   Section        0  os_tick.o(i.OS_TickListResetPeak)
    i.OS_TickListUpdate                      0x0800451c   Section        0  os_tick.o(i.OS_TickListUpdate)
    i.OS_TickTask                            0x08004748   Section        0  os_tick.o(i.OS_TickTask)
    i.OS_TickTaskInit                        0x08004774   Section        0  os_tick.o(i.OS_TickTaskInit)
    i.OS_TmrInit                             0x08004804   Section        0  os_tmr.o(i.OS_TmrInit)
    i.OS_TmrLink                             0x0800492c   Section        0  os_tmr.o(i.OS_TmrLink)
    i.OS_TmrResetPeak                        0x080049fc   Section        0  os_tmr.o(i.OS_TmrResetPeak)
    i.OS_TmrTask                             0x08004a20   Section        0  os_tmr.o(i.OS_TmrTask)
    i.OS_TmrUnlink                           0x08004ae0   Section        0  os_tmr.o(i.OS_TmrUnlink)
    i.RB_full                                0x08004b30   Section        0  usart.o(i.RB_full)
    i.RB_init                                0x08004b4e   Section        0  usart.o(i.RB_init)
    i.RB_pop                                 0x08004b70   Section        0  usart.o(i.RB_pop)
    i.RB_push                                0x08004bcc   Section        0  usart.o(i.RB_push)
    i.RCC_APB2PeriphClockCmd                 0x08004c64   Section        0  stm32f10x_rcc.o(i.RCC_APB2PeriphClockCmd)
    i.RCC_GetClocksFreq                      0x08004c84   Section        0  stm32f10x_rcc.o(i.RCC_GetClocksFreq)
    i.SVC_Handler                            0x08004d58   Section        0  stm32f10x_it.o(i.SVC_Handler)
    i.SetSysClock                            0x08004d5a   Section        0  system_stm32f10x.o(i.SetSysClock)
    SetSysClock                              0x08004d5b   Thumb Code     8  system_stm32f10x.o(i.SetSysClock)
    i.SetSysClockTo72                        0x08004d64   Section        0  system_stm32f10x.o(i.SetSysClockTo72)
    SetSysClockTo72                          0x08004d65   Thumb Code   192  system_stm32f10x.o(i.SetSysClockTo72)
    i.SystemInit                             0x08004e2c   Section        0  system_stm32f10x.o(i.SystemInit)
    i.USART1_IRQHandler                      0x08004e8c   Section        0  stm32f10x_it.o(i.USART1_IRQHandler)
    i.USART_Cmd                              0x08004f04   Section        0  stm32f10x_usart.o(i.USART_Cmd)
    i.USART_Config                           0x08004f1c   Section        0  usart.o(i.USART_Config)
    i.USART_GetITStatus                      0x08004fb4   Section        0  stm32f10x_usart.o(i.USART_GetITStatus)
    i.USART_ITConfig                         0x08005008   Section        0  stm32f10x_usart.o(i.USART_ITConfig)
    i.USART_Init                             0x08005054   Section        0  stm32f10x_usart.o(i.USART_Init)
    i.USART_ReceiveData                      0x0800512c   Section        0  stm32f10x_usart.o(i.USART_ReceiveData)
    i.USART_SendData                         0x08005136   Section        0  stm32f10x_usart.o(i.USART_SendData)
    i.Uart_Tx                                0x08005140   Section        0  usart.o(i.Uart_Tx)
    i.UsageFault_Handler                     0x08005178   Section        0  stm32f10x_it.o(i.UsageFault_Handler)
    i.__0printf$bare                         0x0800517c   Section        0  printfb.o(i.__0printf$bare)
    i.__scatterload_copy                     0x0800518c   Section       14  handlers.o(i.__scatterload_copy)
    i.__scatterload_null                     0x0800519a   Section        2  handlers.o(i.__scatterload_null)
    i.__scatterload_zeroinit                 0x0800519c   Section       14  handlers.o(i.__scatterload_zeroinit)
    i._printf_core                           0x080051aa   Section        0  printfb.o(i._printf_core)
    _printf_core                             0x080051ab   Thumb Code    34  printfb.o(i._printf_core)
    i.cmd_backspace                          0x080051cc   Section        0  console.o(i.cmd_backspace)
    i.cmd_help                               0x080051e4   Section        0  console.o(i.cmd_help)
    i.console_cmd_execute                    0x08005254   Section        0  console.o(i.console_cmd_execute)
    i.console_cmd_get                        0x08005280   Section        0  console.o(i.console_cmd_get)
    i.console_init                           0x0800543c   Section        0  console.o(i.console_init)
    i.console_thread                         0x08005500   Section        0  console.o(i.console_thread)
    console_thread                           0x08005501   Thumb Code    10  console.o(i.console_thread)
    i.console_update                         0x0800550c   Section        0  console.o(i.console_update)
    i.delay_ms                               0x08005648   Section        0  delay.o(i.delay_ms)
    i.fputc                                  0x08005662   Section        0  fputc.o(i.fputc)
    i.leda_task_core                         0x08005674   Section        0  task.o(i.leda_task_core)
    i.ledb_task_core                         0x08005694   Section        0  task.o(i.ledb_task_core)
    i.main                                   0x080056c0   Section        0  main.o(i.main)
    i.serial_putc                            0x08005720   Section        0  usart.o(i.serial_putc)
    i.serial_puts                            0x0800572c   Section        0  usart.o(i.serial_puts)
    .constdata                               0x08005744   Section      164  os_cfg_app.o(.constdata)
    .constdata                               0x080057e8   Section      364  os_dbg.o(.constdata)
    .conststring                             0x08005954   Section       75  console.o(.conststring)
    .data                                    0x20000000   Section       20  stm32f10x_rcc.o(.data)
    APBAHBPrescTable                         0x20000000   Data          16  stm32f10x_rcc.o(.data)
    ADCPrescTable                            0x20000010   Data           4  stm32f10x_rcc.o(.data)
    .data                                    0x20000014   Section       46  console.o(.data)
    cmd_comment                              0x20000014   Data           2  console.o(.data)
    cmd_str_index                            0x20000040   Data           1  console.o(.data)
    cmd_hist_str_index                       0x20000041   Data           1  console.o(.data)
    .data                                    0x20000044   Section       28  cpu_core.o(.data)
    .data                                    0x20000060   Section        4  os_cpu_c.o(.data)
    .data                                    0x20000064   Section        8  os_prio.o(.data)
    .data                                    0x2000006c   Section      216  os_var.o(.data)
    .data                                    0x20000144   Section        4  strtok_r.o(.data)
    state                                    0x20000144   Data           4  strtok_r.o(.data)
    .data                                    0x20000148   Section        4  stdout.o(.data)
    .bss                                     0x20000150   Section      720  main.o(.bss)
    AppTaskStartTCB                          0x20000150   Data         208  main.o(.bss)
    AppTaskStartStk                          0x20000220   Data         512  main.o(.bss)
    .bss                                     0x20000420   Section      576  bsp.o(.bss)
    .bss                                     0x20000660   Section     1400  console.o(.bss)
    cmd_str                                  0x20000660   Data          81  console.o(.bss)
    cmd_hist_str                             0x200006b1   Data         810  console.o(.bss)
    .bss                                     0x20000bd8   Section     5200  os_cfg_app.o(.bss)
    .bss                                     0x20002028   Section     1808  os_var.o(.bss)
    .bss                                     0x20002738   Section      968  task.o(.bss)
    AppSem                                   0x20002ad8   Data          40  task.o(.bss)
    STACK                                    0x20002b00   Section     1024  startup_stm32f10x_hd.o(STACK)

    Global Symbols

    Symbol Name                              Value     Ov Type        Size  Object(Section)

    BuildAttributes$$THM_ISAv4$P$D$K$B$S$PE$A:L22UL41UL21$X:L11$S22US41US21$IEEE1$IW$USESV6$~STKCKD$USESV7$~SHL$OSPACE$ROPI$EBA8$MICROLIB$REQ8$PRES8$EABIv2 0x00000000   Number         0  anon$$obj.o ABSOLUTE
    __ARM_use_no_argv                        0x00000000   Number         0  main.o ABSOLUTE
    _clock_init                               - Undefined Weak Reference
    __Vectors_Size                           0x00000130   Number         0  startup_stm32f10x_hd.o ABSOLUTE
    __Vectors                                0x08000000   Data           4  startup_stm32f10x_hd.o(RESET)
    __Vectors_End                            0x08000130   Data           0  startup_stm32f10x_hd.o(RESET)
    __main                                   0x08000131   Thumb Code     0  entry.o(.ARM.Collect$$$$00000000)
    _main_stk                                0x08000131   Thumb Code     0  entry2.o(.ARM.Collect$$$$00000001)
    _main_scatterload                        0x08000135   Thumb Code     0  entry5.o(.ARM.Collect$$$$00000004)
    __main_after_scatterload                 0x08000139   Thumb Code     0  entry5.o(.ARM.Collect$$$$00000004)
    _main_clock                              0x08000139   Thumb Code     0  entry7b.o(.ARM.Collect$$$$00000008)
    _main_init                               0x08000139   Thumb Code     0  entry8.o(.ARM.Collect$$$$00000009)
    Reset_Handler                            0x08000145   Thumb Code     8  startup_stm32f10x_hd.o(.text)
    ADC1_2_IRQHandler                        0x0800015f   Thumb Code     0  startup_stm32f10x_hd.o(.text)
    ADC3_IRQHandler                          0x0800015f   Thumb Code     0  startup_stm32f10x_hd.o(.text)
    CAN1_RX1_IRQHandler                      0x0800015f   Thumb Code     0  startup_stm32f10x_hd.o(.text)
    CAN1_SCE_IRQHandler                      0x0800015f   Thumb Code     0  startup_stm32f10x_hd.o(.text)
    DMA1_Channel1_IRQHandler                 0x0800015f   Thumb Code     0  startup_stm32f10x_hd.o(.text)
    DMA1_Channel2_IRQHandler                 0x0800015f   Thumb Code     0  startup_stm32f10x_hd.o(.text)
    DMA1_Channel3_IRQHandler                 0x0800015f   Thumb Code     0  startup_stm32f10x_hd.o(.text)
    DMA1_Channel4_IRQHandler                 0x0800015f   Thumb Code     0  startup_stm32f10x_hd.o(.text)
    DMA1_Channel5_IRQHandler                 0x0800015f   Thumb Code     0  startup_stm32f10x_hd.o(.text)
    DMA1_Channel6_IRQHandler                 0x0800015f   Thumb Code     0  startup_stm32f10x_hd.o(.text)
    DMA1_Channel7_IRQHandler                 0x0800015f   Thumb Code     0  startup_stm32f10x_hd.o(.text)
    DMA2_Channel1_IRQHandler                 0x0800015f   Thumb Code     0  startup_stm32f10x_hd.o(.text)
    DMA2_Channel2_IRQHandler                 0x0800015f   Thumb Code     0  startup_stm32f10x_hd.o(.text)
    DMA2_Channel3_IRQHandler                 0x0800015f   Thumb Code     0  startup_stm32f10x_hd.o(.text)
    DMA2_Channel4_5_IRQHandler               0x0800015f   Thumb Code     0  startup_stm32f10x_hd.o(.text)
    EXTI0_IRQHandler                         0x0800015f   Thumb Code     0  startup_stm32f10x_hd.o(.text)
    EXTI15_10_IRQHandler                     0x0800015f   Thumb Code     0  startup_stm32f10x_hd.o(.text)
    EXTI1_IRQHandler                         0x0800015f   Thumb Code     0  startup_stm32f10x_hd.o(.text)
    EXTI2_IRQHandler                         0x0800015f   Thumb Code     0  startup_stm32f10x_hd.o(.text)
    EXTI3_IRQHandler                         0x0800015f   Thumb Code     0  startup_stm32f10x_hd.o(.text)
    EXTI4_IRQHandler                         0x0800015f   Thumb Code     0  startup_stm32f10x_hd.o(.text)
    EXTI9_5_IRQHandler                       0x0800015f   Thumb Code     0  startup_stm32f10x_hd.o(.text)
    FLASH_IRQHandler                         0x0800015f   Thumb Code     0  startup_stm32f10x_hd.o(.text)
    FSMC_IRQHandler                          0x0800015f   Thumb Code     0  startup_stm32f10x_hd.o(.text)
    I2C1_ER_IRQHandler                       0x0800015f   Thumb Code     0  startup_stm32f10x_hd.o(.text)
    I2C1_EV_IRQHandler                       0x0800015f   Thumb Code     0  startup_stm32f10x_hd.o(.text)
    I2C2_ER_IRQHandler                       0x0800015f   Thumb Code     0  startup_stm32f10x_hd.o(.text)
    I2C2_EV_IRQHandler                       0x0800015f   Thumb Code     0  startup_stm32f10x_hd.o(.text)
    PVD_IRQHandler                           0x0800015f   Thumb Code     0  startup_stm32f10x_hd.o(.text)
    RCC_IRQHandler                           0x0800015f   Thumb Code     0  startup_stm32f10x_hd.o(.text)
    RTCAlarm_IRQHandler                      0x0800015f   Thumb Code     0  startup_stm32f10x_hd.o(.text)
    RTC_IRQHandler                           0x0800015f   Thumb Code     0  startup_stm32f10x_hd.o(.text)
    SDIO_IRQHandler                          0x0800015f   Thumb Code     0  startup_stm32f10x_hd.o(.text)
    SPI1_IRQHandler                          0x0800015f   Thumb Code     0  startup_stm32f10x_hd.o(.text)
    SPI2_IRQHandler                          0x0800015f   Thumb Code     0  startup_stm32f10x_hd.o(.text)
    SPI3_IRQHandler                          0x0800015f   Thumb Code     0  startup_stm32f10x_hd.o(.text)
    TAMPER_IRQHandler                        0x0800015f   Thumb Code     0  startup_stm32f10x_hd.o(.text)
    TIM1_BRK_IRQHandler                      0x0800015f   Thumb Code     0  startup_stm32f10x_hd.o(.text)
    TIM1_CC_IRQHandler                       0x0800015f   Thumb Code     0  startup_stm32f10x_hd.o(.text)
    TIM1_TRG_COM_IRQHandler                  0x0800015f   Thumb Code     0  startup_stm32f10x_hd.o(.text)
    TIM1_UP_IRQHandler                       0x0800015f   Thumb Code     0  startup_stm32f10x_hd.o(.text)
    TIM2_IRQHandler                          0x0800015f   Thumb Code     0  startup_stm32f10x_hd.o(.text)
    TIM3_IRQHandler                          0x0800015f   Thumb Code     0  startup_stm32f10x_hd.o(.text)
    TIM4_IRQHandler                          0x0800015f   Thumb Code     0  startup_stm32f10x_hd.o(.text)
    TIM5_IRQHandler                          0x0800015f   Thumb Code     0  startup_stm32f10x_hd.o(.text)
    TIM6_IRQHandler                          0x0800015f   Thumb Code     0  startup_stm32f10x_hd.o(.text)
    TIM7_IRQHandler                          0x0800015f   Thumb Code     0  startup_stm32f10x_hd.o(.text)
    TIM8_BRK_IRQHandler                      0x0800015f   Thumb Code     0  startup_stm32f10x_hd.o(.text)
    TIM8_CC_IRQHandler                       0x0800015f   Thumb Code     0  startup_stm32f10x_hd.o(.text)
    TIM8_TRG_COM_IRQHandler                  0x0800015f   Thumb Code     0  startup_stm32f10x_hd.o(.text)
    TIM8_UP_IRQHandler                       0x0800015f   Thumb Code     0  startup_stm32f10x_hd.o(.text)
    UART4_IRQHandler                         0x0800015f   Thumb Code     0  startup_stm32f10x_hd.o(.text)
    UART5_IRQHandler                         0x0800015f   Thumb Code     0  startup_stm32f10x_hd.o(.text)
    USART2_IRQHandler                        0x0800015f   Thumb Code     0  startup_stm32f10x_hd.o(.text)
    USART3_IRQHandler                        0x0800015f   Thumb Code     0  startup_stm32f10x_hd.o(.text)
    USBWakeUp_IRQHandler                     0x0800015f   Thumb Code     0  startup_stm32f10x_hd.o(.text)
    USB_HP_CAN1_TX_IRQHandler                0x0800015f   Thumb Code     0  startup_stm32f10x_hd.o(.text)
    USB_LP_CAN1_RX0_IRQHandler               0x0800015f   Thumb Code     0  startup_stm32f10x_hd.o(.text)
    WWDG_IRQHandler                          0x0800015f   Thumb Code     0  startup_stm32f10x_hd.o(.text)
    CPU_IntDis                               0x08000169   Thumb Code     0  cpu_a.o(.text)
    CPU_IntEn                                0x0800016d   Thumb Code     0  cpu_a.o(.text)
    CPU_SR_Save                              0x08000171   Thumb Code     0  cpu_a.o(.text)
    CPU_SR_Restore                           0x08000179   Thumb Code     0  cpu_a.o(.text)
    CPU_CntLeadZeros                         0x0800017f   Thumb Code     0  cpu_a.o(.text)
    CPU_RevBits                              0x08000185   Thumb Code     0  cpu_a.o(.text)
    CPU_WaitForInt                           0x0800018b   Thumb Code     0  cpu_a.o(.text)
    CPU_WaitForExcept                        0x0800018f   Thumb Code     0  cpu_a.o(.text)
    OSStartHighRdy                           0x08000195   Thumb Code     0  os_cpu_a.o(.text)
    OS_CPU_PendSVHandler                     0x080001b7   Thumb Code     0  os_cpu_a.o(.text)
    __aeabi_uldivmod                         0x08000219   Thumb Code    98  uldiv.o(.text)
    ___aeabi_memcpy$move                     0x0800027b   Thumb Code    64  memmovea.o(.text)
    ___aeabi_memcpy4$move                    0x0800027b   Thumb Code     0  memmovea.o(.text)
    ___aeabi_memcpy8$move                    0x0800027b   Thumb Code     0  memmovea.o(.text)
    __aeabi_memmove                          0x0800027b   Thumb Code     0  memmovea.o(.text)
    __aeabi_memmove4                         0x0800027b   Thumb Code     0  memmovea.o(.text)
    __aeabi_memmove8                         0x0800027b   Thumb Code     0  memmovea.o(.text)
    strlen                                   0x080002bb   Thumb Code    16  strlen.o(.text)
    strcmp                                   0x080002cb   Thumb Code    28  strcmp.o(.text)
    strcpy                                   0x080002e7   Thumb Code    18  strcpy.o(.text)
    strtok_r                                 0x080002f9   Thumb Code    60  strtok_r.o(.text)
    _strtok$wrapper                          0x08000335   Thumb Code     4  strtok_r.o(.text)
    __aeabi_llsl                             0x0800033d   Thumb Code    30  llshl.o(.text)
    _ll_shift_l                              0x0800033d   Thumb Code     0  llshl.o(.text)
    __aeabi_llsr                             0x0800035b   Thumb Code    32  llushr.o(.text)
    _ll_ushift_r                             0x0800035b   Thumb Code     0  llushr.o(.text)
    __scatterload                            0x0800037d   Thumb Code    28  init.o(.text)
    __scatterload_rt2                        0x0800037d   Thumb Code     0  init.o(.text)
    __I$use$semihosting$fputc                0x080003a1   Thumb Code     0  iusesemip.o(.text)
    __decompress                             0x080003a1   Thumb Code     0  __dczerorl2.o(.text)
    __decompress1                            0x080003a1   Thumb Code    92  __dczerorl2.o(.text)
    __semihosting_library_function           0x080003a1   Thumb Code     0  semi.o(.text)
    AppTaskStart                             0x080003fd   Thumb Code   176  task.o(i.AppTaskStart)
    App_OS_IdleTaskHook                      0x080004f5   Thumb Code    14  os_app_hooks.o(i.App_OS_IdleTaskHook)
    App_OS_SetAllHooks                       0x08000509   Thumb Code    84  os_app_hooks.o(i.App_OS_SetAllHooks)
    App_OS_StatTaskHook                      0x08000595   Thumb Code     2  os_app_hooks.o(i.App_OS_StatTaskHook)
    App_OS_TaskCreateHook                    0x08000597   Thumb Code     2  os_app_hooks.o(i.App_OS_TaskCreateHook)
    App_OS_TaskDelHook                       0x08000599   Thumb Code     2  os_app_hooks.o(i.App_OS_TaskDelHook)
    App_OS_TaskReturnHook                    0x0800059b   Thumb Code     2  os_app_hooks.o(i.App_OS_TaskReturnHook)
    App_OS_TaskSwHook                        0x0800059d   Thumb Code    14  os_app_hooks.o(i.App_OS_TaskSwHook)
    App_OS_TimeTickHook                      0x080005b1   Thumb Code     2  os_app_hooks.o(i.App_OS_TimeTickHook)
    BSP_CPU_ClkFreq                          0x080005b3   Thumb Code    16  bsp.o(i.BSP_CPU_ClkFreq)
    BSP_Init                                 0x080005c5   Thumb Code   104  bsp.o(i.BSP_Init)
    BusFault_Handler                         0x08000645   Thumb Code     4  stm32f10x_it.o(i.BusFault_Handler)
    CPU_IntDisMeasMaxCurGet                  0x08000665   Thumb Code    40  cpu_core.o(i.CPU_IntDisMeasMaxCurGet)
    CPU_IntDisMeasMaxCurReset                0x08000691   Thumb Code    40  cpu_core.o(i.CPU_IntDisMeasMaxCurReset)
    CPU_IntDisMeasMaxGet                     0x080006bd   Thumb Code    40  cpu_core.o(i.CPU_IntDisMeasMaxGet)
    CPU_IntDisMeasStart                      0x080006e9   Thumb Code    38  cpu_core.o(i.CPU_IntDisMeasStart)
    CPU_IntDisMeasStop                       0x0800071d   Thumb Code    62  cpu_core.o(i.CPU_IntDisMeasStop)
    CPU_TS_TmrRd                             0x08000771   Thumb Code     6  bsp.o(i.CPU_TS_TmrRd)
    DebugMon_Handler                         0x0800077d   Thumb Code     2  stm32f10x_it.o(i.DebugMon_Handler)
    EXTI_Config                              0x0800077f   Thumb Code     2  bsp.o(i.EXTI_Config)
    GPIO_Configuration                       0x08000781   Thumb Code     2  bsp.o(i.GPIO_Configuration)
    GPIO_Init                                0x08000783   Thumb Code   274  stm32f10x_gpio.o(i.GPIO_Init)
    HardFault_Handler                        0x08000895   Thumb Code    16  stm32f10x_it.o(i.HardFault_Handler)
    LED_Init                                 0x080008b1   Thumb Code    46  led.o(i.LED_Init)
    MemManage_Handler                        0x080008e9   Thumb Code     4  stm32f10x_it.o(i.MemManage_Handler)
    NMI_Handler                              0x080008ed   Thumb Code     2  stm32f10x_it.o(i.NMI_Handler)
    NVIC_Configuration                       0x080008ef   Thumb Code    66  bsp.o(i.NVIC_Configuration)
    NVIC_Init                                0x08000931   Thumb Code   102  misc.o(i.NVIC_Init)
    NVIC_PriorityGroupConfig                 0x080009a5   Thumb Code    10  misc.o(i.NVIC_PriorityGroupConfig)
    OSCfg_Init                               0x080009b9   Thumb Code    86  os_cfg_app.o(i.OSCfg_Init)
    OSIdleTaskHook                           0x08000ab5   Thumb Code    16  os_cpu_c.o(i.OSIdleTaskHook)
    OSInit                                   0x08000ac9   Thumb Code   276  os_core.o(i.OSInit)
    OSInitHook                               0x08000c25   Thumb Code    20  os_cpu_c.o(i.OSInitHook)
    OSIntExit                                0x08000c45   Thumb Code   192  os_core.o(i.OSIntExit)
    OSSched                                  0x08000d29   Thumb Code   134  os_core.o(i.OSSched)
    OSSchedLock                              0x08000dd1   Thumb Code   112  os_core.o(i.OSSchedLock)
    OSSchedUnlock                            0x08000e4d   Thumb Code   148  os_core.o(i.OSSchedUnlock)
    OSSemCreate                              0x08000eed   Thumb Code   124  os_sem.o(i.OSSemCreate)
    OSSemPend                                0x08000f75   Thumb Code   524  os_sem.o(i.OSSemPend)
    OSSemPost                                0x08001191   Thumb Code   102  os_sem.o(i.OSSemPost)
    OSStart                                  0x08001201   Thumb Code    78  os_core.o(i.OSStart)
    OSStatReset                              0x08001269   Thumb Code   210  os_stat.o(i.OSStatReset)
    OSStatTaskCPUUsageInit                   0x08001361   Thumb Code   184  os_stat.o(i.OSStatTaskCPUUsageInit)
    OSStatTaskHook                           0x08001431   Thumb Code    16  os_cpu_c.o(i.OSStatTaskHook)
    OSTaskCreate                             0x08001445   Thumb Code   622  os_task.o(i.OSTaskCreate)
    OSTaskCreateHook                         0x080016d9   Thumb Code    20  os_cpu_c.o(i.OSTaskCreateHook)
    OSTaskDel                                0x080016f1   Thumb Code   490  os_task.o(i.OSTaskDel)
    OSTaskDelHook                            0x080018f9   Thumb Code    20  os_cpu_c.o(i.OSTaskDelHook)
    OSTaskReturnHook                         0x08001911   Thumb Code    20  os_cpu_c.o(i.OSTaskReturnHook)
    OSTaskSemPend                            0x08001929   Thumb Code   552  os_task.o(i.OSTaskSemPend)
    OSTaskStkChk                             0x08001b5d   Thumb Code   220  os_task.o(i.OSTaskStkChk)
    OSTaskStkInit                            0x08001c41   Thumb Code   188  os_cpu_c.o(i.OSTaskStkInit)
    OSTaskSwHook                             0x08001d01   Thumb Code   154  os_cpu_c.o(i.OSTaskSwHook)
    OSTimeDly                                0x08001dad   Thumb Code   322  os_time.o(i.OSTimeDly)
    OSTimeDlyHMSM                            0x08001efd   Thumb Code   538  os_time.o(i.OSTimeDlyHMSM)
    OSTimeTick                               0x08002129   Thumb Code    54  os_time.o(i.OSTimeTick)
    OSTimeTickHook                           0x0800216d   Thumb Code    16  os_cpu_c.o(i.OSTimeTickHook)
    OS_CPU_SysTickHandler                    0x08002181   Thumb Code    60  os_cpu_c.o(i.OS_CPU_SysTickHandler)
    OS_CPU_SysTickInit                       0x080021c1   Thumb Code    44  os_cpu_c.o(i.OS_CPU_SysTickInit)
    OS_Dbg_Init                              0x080021f1   Thumb Code   146  os_dbg.o(i.OS_Dbg_Init)
    OS_FlagInit                              0x080023a1   Thumb Code    14  os_flag.o(i.OS_FlagInit)
    OS_FlagPost                              0x080023b9   Thumb Code   628  os_flag.o(i.OS_FlagPost)
    OS_FlagTaskRdy                           0x08002635   Thumb Code    92  os_flag.o(i.OS_FlagTaskRdy)
    OS_IdleTask                              0x08002691   Thumb Code    68  os_core.o(i.OS_IdleTask)
    OS_IdleTaskInit                          0x080026dd   Thumb Code    66  os_core.o(i.OS_IdleTaskInit)
    OS_IntQPost                              0x0800274d   Thumb Code   218  os_int.o(i.OS_IntQPost)
    OS_IntQRePost                            0x0800284d   Thumb Code   316  os_int.o(i.OS_IntQRePost)
    OS_IntQTask                              0x080029bd   Thumb Code   154  os_int.o(i.OS_IntQTask)
    OS_IntQTaskInit                          0x08002a65   Thumb Code   206  os_int.o(i.OS_IntQTaskInit)
    OS_MemInit                               0x08002b8d   Thumb Code    14  os_mem.o(i.OS_MemInit)
    OS_MsgPoolCreate                         0x08002ba5   Thumb Code    54  os_msg.o(i.OS_MsgPoolCreate)
    OS_MsgPoolInit                           0x08002bdd   Thumb Code    68  os_msg.o(i.OS_MsgPoolInit)
    OS_MsgQFreeAll                           0x08002c2d   Thumb Code    62  os_msg.o(i.OS_MsgQFreeAll)
    OS_MsgQInit                              0x08002c71   Thumb Code    14  os_msg.o(i.OS_MsgQInit)
    OS_MsgQPut                               0x08002c81   Thumb Code   212  os_msg.o(i.OS_MsgQPut)
    OS_MutexInit                             0x08002d59   Thumb Code    14  os_mutex.o(i.OS_MutexInit)
    OS_Pend                                  0x08002d71   Thumb Code    98  os_core.o(i.OS_Pend)
    OS_PendDataInit                          0x08002dd9   Thumb Code    38  os_core.o(i.OS_PendDataInit)
    OS_PendDbgNameAdd                        0x08002e01   Thumb Code    66  os_core.o(i.OS_PendDbgNameAdd)
    OS_PendDbgNameRemove                     0x08002e5d   Thumb Code    30  os_core.o(i.OS_PendDbgNameRemove)
    OS_PendListInit                          0x08002e81   Thumb Code    10  os_core.o(i.OS_PendListInit)
    OS_PendListInsertPrio                    0x08002e8b   Thumb Code   102  os_core.o(i.OS_PendListInsertPrio)
    OS_PendListRemove                        0x08002ef1   Thumb Code    48  os_core.o(i.OS_PendListRemove)
    OS_PendListRemove1                       0x08002f21   Thumb Code    66  os_core.o(i.OS_PendListRemove1)
    OS_Post                                  0x08002f63   Thumb Code   198  os_core.o(i.OS_Post)
    OS_Post1                                 0x08003029   Thumb Code    42  os_core.o(i.OS_Post1)
    OS_PrioGetHighest                        0x08003055   Thumb Code    36  os_prio.o(i.OS_PrioGetHighest)
    OS_PrioInit                              0x0800307d   Thumb Code    20  os_prio.o(i.OS_PrioInit)
    OS_PrioInsert                            0x08003095   Thumb Code    32  os_prio.o(i.OS_PrioInsert)
    OS_PrioRemove                            0x080030b9   Thumb Code    32  os_prio.o(i.OS_PrioRemove)
    OS_QInit                                 0x080030dd   Thumb Code    14  os_q.o(i.OS_QInit)
    OS_QPost                                 0x080030f5   Thumb Code   380  os_q.o(i.OS_QPost)
    OS_RdyListInit                           0x08003279   Thumb Code    32  os_core.o(i.OS_RdyListInit)
    OS_RdyListInsert                         0x0800329d   Thumb Code    40  os_core.o(i.OS_RdyListInsert)
    OS_RdyListInsertHead                     0x080032c9   Thumb Code    58  os_core.o(i.OS_RdyListInsertHead)
    OS_RdyListInsertTail                     0x08003309   Thumb Code    56  os_core.o(i.OS_RdyListInsertTail)
    OS_RdyListMoveHeadToTail                 0x08003345   Thumb Code    68  os_core.o(i.OS_RdyListMoveHeadToTail)
    OS_RdyListRemove                         0x08003389   Thumb Code    86  os_core.o(i.OS_RdyListRemove)
    OS_Sched0                                0x080033e5   Thumb Code    72  os_core.o(i.OS_Sched0)
    OS_SchedLockTimeMeasStart                0x08003441   Thumb Code    20  os_core.o(i.OS_SchedLockTimeMeasStart)
    OS_SchedLockTimeMeasStop                 0x0800345d   Thumb Code    44  os_core.o(i.OS_SchedLockTimeMeasStop)
    OS_SchedRoundRobin                       0x08003499   Thumb Code   218  os_core.o(i.OS_SchedRoundRobin)
    OS_SemDbgListAdd                         0x08003585   Thumb Code    38  os_sem.o(i.OS_SemDbgListAdd)
    OS_SemInit                               0x080035b5   Thumb Code    14  os_sem.o(i.OS_SemInit)
    OS_SemPost                               0x080035cd   Thumb Code   404  os_sem.o(i.OS_SemPost)
    OS_StatTask                              0x08003765   Thumb Code   572  os_stat.o(i.OS_StatTask)
    OS_StatTaskInit                          0x080039d5   Thumb Code   136  os_stat.o(i.OS_StatTaskInit)
    OS_TaskBlock                             0x08003aa1   Thumb Code    56  os_core.o(i.OS_TaskBlock)
    OS_TaskDbgListAdd                        0x08003ad9   Thumb Code    42  os_task.o(i.OS_TaskDbgListAdd)
    OS_TaskDbgListRemove                     0x08003b09   Thumb Code    64  os_task.o(i.OS_TaskDbgListRemove)
    OS_TaskInit                              0x08003b4d   Thumb Code    18  os_task.o(i.OS_TaskInit)
    OS_TaskInitTCB                           0x08003b6d   Thumb Code   204  os_task.o(i.OS_TaskInitTCB)
    OS_TaskQPost                             0x08003c45   Thumb Code   604  os_task.o(i.OS_TaskQPost)
    OS_TaskRdy                               0x08003ead   Thumb Code    28  os_core.o(i.OS_TaskRdy)
    OS_TaskReturn                            0x08003ec9   Thumb Code    20  os_task.o(i.OS_TaskReturn)
    OS_TaskSemPost                           0x08003ee1   Thumb Code  1008  os_task.o(i.OS_TaskSemPost)
    OS_TickListInit                          0x080042dd   Thumb Code    32  os_tick.o(i.OS_TickListInit)
    OS_TickListInsert                        0x08004305   Thumb Code   430  os_tick.o(i.OS_TickListInsert)
    OS_TickListRemove                        0x080044c1   Thumb Code    56  os_tick.o(i.OS_TickListRemove)
    OS_TickListResetPeak                     0x080044f9   Thumb Code    28  os_tick.o(i.OS_TickListResetPeak)
    OS_TickListUpdate                        0x0800451d   Thumb Code   532  os_tick.o(i.OS_TickListUpdate)
    OS_TickTask                              0x08004749   Thumb Code    38  os_tick.o(i.OS_TickTask)
    OS_TickTaskInit                          0x08004775   Thumb Code    92  os_tick.o(i.OS_TickTaskInit)
    OS_TmrInit                               0x08004805   Thumb Code   206  os_tmr.o(i.OS_TmrInit)
    OS_TmrLink                               0x0800492d   Thumb Code   196  os_tmr.o(i.OS_TmrLink)
    OS_TmrResetPeak                          0x080049fd   Thumb Code    28  os_tmr.o(i.OS_TmrResetPeak)
    OS_TmrTask                               0x08004a21   Thumb Code   176  os_tmr.o(i.OS_TmrTask)
    OS_TmrUnlink                             0x08004ae1   Thumb Code    72  os_tmr.o(i.OS_TmrUnlink)
    RB_full                                  0x08004b31   Thumb Code    30  usart.o(i.RB_full)
    RB_init                                  0x08004b4f   Thumb Code    34  usart.o(i.RB_init)
    RB_pop                                   0x08004b71   Thumb Code    92  usart.o(i.RB_pop)
    RB_push                                  0x08004bcd   Thumb Code   152  usart.o(i.RB_push)
    RCC_APB2PeriphClockCmd                   0x08004c65   Thumb Code    26  stm32f10x_rcc.o(i.RCC_APB2PeriphClockCmd)
    RCC_GetClocksFreq                        0x08004c85   Thumb Code   192  stm32f10x_rcc.o(i.RCC_GetClocksFreq)
    SVC_Handler                              0x08004d59   Thumb Code     2  stm32f10x_it.o(i.SVC_Handler)
    SystemInit                               0x08004e2d   Thumb Code    78  system_stm32f10x.o(i.SystemInit)
    USART1_IRQHandler                        0x08004e8d   Thumb Code   100  stm32f10x_it.o(i.USART1_IRQHandler)
    USART_Cmd                                0x08004f05   Thumb Code    24  stm32f10x_usart.o(i.USART_Cmd)
    USART_Config                             0x08004f1d   Thumb Code   144  usart.o(i.USART_Config)
    USART_GetITStatus                        0x08004fb5   Thumb Code    84  stm32f10x_usart.o(i.USART_GetITStatus)
    USART_ITConfig                           0x08005009   Thumb Code    74  stm32f10x_usart.o(i.USART_ITConfig)
    USART_Init                               0x08005055   Thumb Code   210  stm32f10x_usart.o(i.USART_Init)
    USART_ReceiveData                        0x0800512d   Thumb Code    10  stm32f10x_usart.o(i.USART_ReceiveData)
    USART_SendData                           0x08005137   Thumb Code     8  stm32f10x_usart.o(i.USART_SendData)
    Uart_Tx                                  0x08005141   Thumb Code    48  usart.o(i.Uart_Tx)
    UsageFault_Handler                       0x08005179   Thumb Code     4  stm32f10x_it.o(i.UsageFault_Handler)
    __0printf$bare                           0x0800517d   Thumb Code     8  printfb.o(i.__0printf$bare)
    __1printf$bare                           0x0800517d   Thumb Code     0  printfb.o(i.__0printf$bare)
    __2printf                                0x0800517d   Thumb Code     0  printfb.o(i.__0printf$bare)
    __scatterload_copy                       0x0800518d   Thumb Code    14  handlers.o(i.__scatterload_copy)
    __scatterload_null                       0x0800519b   Thumb Code     2  handlers.o(i.__scatterload_null)
    __scatterload_zeroinit                   0x0800519d   Thumb Code    14  handlers.o(i.__scatterload_zeroinit)
    cmd_backspace                            0x080051cd   Thumb Code    24  console.o(i.cmd_backspace)
    cmd_help                                 0x080051e5   Thumb Code    56  console.o(i.cmd_help)
    console_cmd_execute                      0x08005255   Thumb Code    38  console.o(i.console_cmd_execute)
    console_cmd_get                          0x08005281   Thumb Code   384  console.o(i.console_cmd_get)
    console_init                             0x0800543d   Thumb Code   110  console.o(i.console_init)
    console_update                           0x0800550d   Thumb Code   258  console.o(i.console_update)
    delay_ms                                 0x08005649   Thumb Code    26  delay.o(i.delay_ms)
    fputc                                    0x08005663   Thumb Code    18  fputc.o(i.fputc)
    leda_task_core                           0x08005675   Thumb Code    28  task.o(i.leda_task_core)
    ledb_task_core                           0x08005695   Thumb Code    38  task.o(i.ledb_task_core)
    main                                     0x080056c1   Thumb Code    68  main.o(i.main)
    serial_putc                              0x08005721   Thumb Code    12  usart.o(i.serial_putc)
    serial_puts                              0x0800572d   Thumb Code    22  usart.o(i.serial_puts)
    OSCfg_IdleTaskStkBasePtr                 0x08005744   Data           4  os_cfg_app.o(.constdata)
    OSCfg_IdleTaskStkLimit                   0x08005748   Data           4  os_cfg_app.o(.constdata)
    OSCfg_IdleTaskStkSize                    0x0800574c   Data           4  os_cfg_app.o(.constdata)
    OSCfg_IdleTaskStkSizeRAM                 0x08005750   Data           4  os_cfg_app.o(.constdata)
    OSCfg_IntQBasePtr                        0x08005754   Data           4  os_cfg_app.o(.constdata)
    OSCfg_IntQSize                           0x08005758   Data           2  os_cfg_app.o(.constdata)
    OSCfg_IntQSizeRAM                        0x0800575c   Data           4  os_cfg_app.o(.constdata)
    OSCfg_IntQTaskStkBasePtr                 0x08005760   Data           4  os_cfg_app.o(.constdata)
    OSCfg_IntQTaskStkLimit                   0x08005764   Data           4  os_cfg_app.o(.constdata)
    OSCfg_IntQTaskStkSize                    0x08005768   Data           4  os_cfg_app.o(.constdata)
    OSCfg_IntQTaskStkSizeRAM                 0x0800576c   Data           4  os_cfg_app.o(.constdata)
    OSCfg_ISRStkBasePtr                      0x08005770   Data           4  os_cfg_app.o(.constdata)
    OSCfg_ISRStkSize                         0x08005774   Data           4  os_cfg_app.o(.constdata)
    OSCfg_ISRStkSizeRAM                      0x08005778   Data           4  os_cfg_app.o(.constdata)
    OSCfg_MsgPoolSize                        0x0800577c   Data           2  os_cfg_app.o(.constdata)
    OSCfg_MsgPoolSizeRAM                     0x08005780   Data           4  os_cfg_app.o(.constdata)
    OSCfg_MsgPoolBasePtr                     0x08005784   Data           4  os_cfg_app.o(.constdata)
    OSCfg_StatTaskPrio                       0x08005788   Data           1  os_cfg_app.o(.constdata)
    OSCfg_StatTaskRate_Hz                    0x0800578c   Data           4  os_cfg_app.o(.constdata)
    OSCfg_StatTaskStkBasePtr                 0x08005790   Data           4  os_cfg_app.o(.constdata)
    OSCfg_StatTaskStkLimit                   0x08005794   Data           4  os_cfg_app.o(.constdata)
    OSCfg_StatTaskStkSize                    0x08005798   Data           4  os_cfg_app.o(.constdata)
    OSCfg_StatTaskStkSizeRAM                 0x0800579c   Data           4  os_cfg_app.o(.constdata)
    OSCfg_StkSizeMin                         0x080057a0   Data           4  os_cfg_app.o(.constdata)
    OSCfg_TickRate_Hz                        0x080057a4   Data           4  os_cfg_app.o(.constdata)
    OSCfg_TickTaskPrio                       0x080057a8   Data           1  os_cfg_app.o(.constdata)
    OSCfg_TickTaskStkBasePtr                 0x080057ac   Data           4  os_cfg_app.o(.constdata)
    OSCfg_TickTaskStkLimit                   0x080057b0   Data           4  os_cfg_app.o(.constdata)
    OSCfg_TickTaskStkSize                    0x080057b4   Data           4  os_cfg_app.o(.constdata)
    OSCfg_TickTaskStkSizeRAM                 0x080057b8   Data           4  os_cfg_app.o(.constdata)
    OSCfg_TickWheelSize                      0x080057bc   Data           2  os_cfg_app.o(.constdata)
    OSCfg_TickWheelSizeRAM                   0x080057c0   Data           4  os_cfg_app.o(.constdata)
    OSCfg_TmrTaskPrio                        0x080057c4   Data           1  os_cfg_app.o(.constdata)
    OSCfg_TmrTaskRate_Hz                     0x080057c8   Data           4  os_cfg_app.o(.constdata)
    OSCfg_TmrTaskStkBasePtr                  0x080057cc   Data           4  os_cfg_app.o(.constdata)
    OSCfg_TmrTaskStkLimit                    0x080057d0   Data           4  os_cfg_app.o(.constdata)
    OSCfg_TmrTaskStkSize                     0x080057d4   Data           4  os_cfg_app.o(.constdata)
    OSCfg_TmrTaskStkSizeRAM                  0x080057d8   Data           4  os_cfg_app.o(.constdata)
    OSCfg_TmrWheelSize                       0x080057dc   Data           2  os_cfg_app.o(.constdata)
    OSCfg_TmrWheelSizeRAM                    0x080057e0   Data           4  os_cfg_app.o(.constdata)
    OSCfg_DataSizeRAM                        0x080057e4   Data           4  os_cfg_app.o(.constdata)
    OSDbg_DbgEn                              0x080057e8   Data           2  os_dbg.o(.constdata)
    OSDbg_ArgChkEn                           0x080057ea   Data           1  os_dbg.o(.constdata)
    OSDbg_AppHooksEn                         0x080057eb   Data           1  os_dbg.o(.constdata)
    OSDbg_EndiannessTest                     0x080057ec   Data           4  os_dbg.o(.constdata)
    OSDbg_CalledFromISRChkEn                 0x080057f0   Data           1  os_dbg.o(.constdata)
    OSDbg_FlagEn                             0x080057f1   Data           1  os_dbg.o(.constdata)
    OSDbg_FlagGrp                            0x080057f4   Data          40  os_dbg.o(.constdata)
    OSDbg_FlagDelEn                          0x0800581c   Data           1  os_dbg.o(.constdata)
    OSDbg_FlagModeClrEn                      0x0800581d   Data           1  os_dbg.o(.constdata)
    OSDbg_FlagPendAbortEn                    0x0800581e   Data           1  os_dbg.o(.constdata)
    OSDbg_FlagGrpSize                        0x08005820   Data           2  os_dbg.o(.constdata)
    OSDbg_FlagWidth                          0x08005822   Data           2  os_dbg.o(.constdata)
    OSDbg_IntQ                               0x08005824   Data           2  os_dbg.o(.constdata)
    OSDbg_ISRPostDeferredEn                  0x08005826   Data           1  os_dbg.o(.constdata)
    OSDbg_Mem                                0x08005828   Data          32  os_dbg.o(.constdata)
    OSDbg_MemEn                              0x08005848   Data           1  os_dbg.o(.constdata)
    OSDbg_MemSize                            0x0800584a   Data           2  os_dbg.o(.constdata)
    OSDbg_MsgEn                              0x0800584c   Data           1  os_dbg.o(.constdata)
    OSDbg_MsgSize                            0x0800584e   Data           2  os_dbg.o(.constdata)
    OSDbg_MsgPoolSize                        0x08005850   Data           2  os_dbg.o(.constdata)
    OSDbg_MsgQSize                           0x08005852   Data           2  os_dbg.o(.constdata)
    OSDbg_Mutex                              0x08005854   Data          44  os_dbg.o(.constdata)
    OSDbg_MutexEn                            0x08005880   Data           1  os_dbg.o(.constdata)
    OSDbg_MutexDelEn                         0x08005881   Data           1  os_dbg.o(.constdata)
    OSDbg_MutexPendAbortEn                   0x08005882   Data           1  os_dbg.o(.constdata)
    OSDbg_MutexSize                          0x08005884   Data           2  os_dbg.o(.constdata)
    OSDbg_ObjTypeChkEn                       0x08005886   Data           1  os_dbg.o(.constdata)
    OSDbg_PendMultiEn                        0x08005887   Data           1  os_dbg.o(.constdata)
    OSDbg_PendDataSize                       0x08005888   Data           2  os_dbg.o(.constdata)
    OSDbg_PendListSize                       0x0800588a   Data           2  os_dbg.o(.constdata)
    OSDbg_PendObjSize                        0x0800588c   Data           2  os_dbg.o(.constdata)
    OSDbg_PrioMax                            0x0800588e   Data           2  os_dbg.o(.constdata)
    OSDbg_PrioTblSize                        0x08005890   Data           2  os_dbg.o(.constdata)
    OSDbg_PtrSize                            0x08005892   Data           2  os_dbg.o(.constdata)
    OSDbg_Q                                  0x08005894   Data          48  os_dbg.o(.constdata)
    OSDbg_QEn                                0x080058c4   Data           1  os_dbg.o(.constdata)
    OSDbg_QDelEn                             0x080058c5   Data           1  os_dbg.o(.constdata)
    OSDbg_QFlushEn                           0x080058c6   Data           1  os_dbg.o(.constdata)
    OSDbg_QPendAbortEn                       0x080058c7   Data           1  os_dbg.o(.constdata)
    OSDbg_QSize                              0x080058c8   Data           2  os_dbg.o(.constdata)
    OSDbg_SchedRoundRobinEn                  0x080058ca   Data           1  os_dbg.o(.constdata)
    OSDbg_Sem                                0x080058cc   Data          40  os_dbg.o(.constdata)
    OSDbg_SemEn                              0x080058f4   Data           1  os_dbg.o(.constdata)
    OSDbg_SemDelEn                           0x080058f5   Data           1  os_dbg.o(.constdata)
    OSDbg_SemPendAbortEn                     0x080058f6   Data           1  os_dbg.o(.constdata)
    OSDbg_SemSetEn                           0x080058f7   Data           1  os_dbg.o(.constdata)
    OSDbg_SemSize                            0x080058f8   Data           2  os_dbg.o(.constdata)
    OSDbg_RdyList                            0x080058fa   Data           2  os_dbg.o(.constdata)
    OSDbg_RdyListSize                        0x080058fc   Data           4  os_dbg.o(.constdata)
    OSDbg_StkWidth                           0x08005900   Data           1  os_dbg.o(.constdata)
    OSDbg_StatTaskEn                         0x08005901   Data           1  os_dbg.o(.constdata)
    OSDbg_StatTaskStkChkEn                   0x08005902   Data           1  os_dbg.o(.constdata)
    OSDbg_TaskChangePrioEn                   0x08005903   Data           1  os_dbg.o(.constdata)
    OSDbg_TaskDelEn                          0x08005904   Data           1  os_dbg.o(.constdata)
    OSDbg_TaskQEn                            0x08005905   Data           1  os_dbg.o(.constdata)
    OSDbg_TaskQPendAbortEn                   0x08005906   Data           1  os_dbg.o(.constdata)
    OSDbg_TaskProfileEn                      0x08005907   Data           1  os_dbg.o(.constdata)
    OSDbg_TaskRegTblSize                     0x08005908   Data           2  os_dbg.o(.constdata)
    OSDbg_TaskSemPendAbortEn                 0x0800590a   Data           1  os_dbg.o(.constdata)
    OSDbg_TaskSuspendEn                      0x0800590b   Data           1  os_dbg.o(.constdata)
    OSDbg_TCBSize                            0x0800590c   Data           2  os_dbg.o(.constdata)
    OSDbg_TickSpokeSize                      0x0800590e   Data           2  os_dbg.o(.constdata)
    OSDbg_TimeDlyHMSMEn                      0x08005910   Data           1  os_dbg.o(.constdata)
    OSDbg_TimeDlyResumeEn                    0x08005911   Data           1  os_dbg.o(.constdata)
    OSDbg_Tmr                                0x08005914   Data          52  os_dbg.o(.constdata)
    OSDbg_TmrEn                              0x08005948   Data           1  os_dbg.o(.constdata)
    OSDbg_TmrDelEn                           0x08005949   Data           1  os_dbg.o(.constdata)
    OSDbg_TmrSize                            0x0800594a   Data           2  os_dbg.o(.constdata)
    OSDbg_TmrSpokeSize                       0x0800594c   Data           2  os_dbg.o(.constdata)
    OSDbg_VersionNbr                         0x0800594e   Data           2  os_dbg.o(.constdata)
    OSDbg_DataSize                           0x08005950   Data           4  os_dbg.o(.constdata)
    Region$$Table$$Base                      0x080059a0   Number         0  anon$$obj.o(Region$$Table)
    Region$$Table$$Limit                     0x080059c0   Number         0  anon$$obj.o(Region$$Table)
    cmds                                     0x20000018   Data          40  console.o(.data)
    CPU_TS_TmrFreq_Hz                        0x20000044   Data           4  cpu_core.o(.data)
    CPU_IntDisMeasCtr                        0x20000048   Data           2  cpu_core.o(.data)
    CPU_IntDisNestCtr                        0x2000004a   Data           2  cpu_core.o(.data)
    CPU_IntDisMeasStart_cnts                 0x2000004c   Data           4  cpu_core.o(.data)
    CPU_IntDisMeasStop_cnts                  0x20000050   Data           4  cpu_core.o(.data)
    CPU_IntDisMeasOvrhd_cnts                 0x20000054   Data           4  cpu_core.o(.data)
    CPU_IntDisMeasMaxCur_cnts                0x20000058   Data           4  cpu_core.o(.data)
    CPU_IntDisMeasMax_cnts                   0x2000005c   Data           4  cpu_core.o(.data)
    OS_CPU_ExceptStkBase                     0x20000060   Data           4  os_cpu_c.o(.data)
    OSPrioTbl                                0x20000064   Data           8  os_prio.o(.data)
    OS_AppTaskCreateHookPtr                  0x2000006c   Data           4  os_var.o(.data)
    OS_AppTaskDelHookPtr                     0x20000070   Data           4  os_var.o(.data)
    OS_AppTaskReturnHookPtr                  0x20000074   Data           4  os_var.o(.data)
    OS_AppIdleTaskHookPtr                    0x20000078   Data           4  os_var.o(.data)
    OS_AppStatTaskHookPtr                    0x2000007c   Data           4  os_var.o(.data)
    OS_AppTaskSwHookPtr                      0x20000080   Data           4  os_var.o(.data)
    OS_AppTimeTickHookPtr                    0x20000084   Data           4  os_var.o(.data)
    OSIdleTaskCtr                            0x20000088   Data           4  os_var.o(.data)
    OSIntNestingCtr                          0x2000008c   Data           1  os_var.o(.data)
    OSIntDisTimeMax                          0x20000090   Data           4  os_var.o(.data)
    OSRunning                                0x20000094   Data           1  os_var.o(.data)
    OSIntQInPtr                              0x20000098   Data           4  os_var.o(.data)
    OSIntQOutPtr                             0x2000009c   Data           4  os_var.o(.data)
    OSIntQNbrEntries                         0x200000a0   Data           2  os_var.o(.data)
    OSIntQMaxNbrEntries                      0x200000a2   Data           2  os_var.o(.data)
    OSIntQOvfCtr                             0x200000a4   Data           2  os_var.o(.data)
    OSIntQTaskTimeMax                        0x200000a8   Data           4  os_var.o(.data)
    OSFlagDbgListPtr                         0x200000ac   Data           4  os_var.o(.data)
    OSFlagQty                                0x200000b0   Data           2  os_var.o(.data)
    OSMemDbgListPtr                          0x200000b4   Data           4  os_var.o(.data)
    OSMemQty                                 0x200000b8   Data           2  os_var.o(.data)
    OSMsgPool                                0x200000bc   Data           8  os_var.o(.data)
    OSMutexDbgListPtr                        0x200000c4   Data           4  os_var.o(.data)
    OSMutexQty                               0x200000c8   Data           2  os_var.o(.data)
    OSPrioCur                                0x200000ca   Data           1  os_var.o(.data)
    OSPrioHighRdy                            0x200000cb   Data           1  os_var.o(.data)
    OSPrioSaved                              0x200000cc   Data           1  os_var.o(.data)
    OSQDbgListPtr                            0x200000d0   Data           4  os_var.o(.data)
    OSQQty                                   0x200000d4   Data           2  os_var.o(.data)
    OSSchedLockTimeBegin                     0x200000d8   Data           4  os_var.o(.data)
    OSSchedLockTimeMax                       0x200000dc   Data           4  os_var.o(.data)
    OSSchedLockTimeMaxCur                    0x200000e0   Data           4  os_var.o(.data)
    OSSchedLockNestingCtr                    0x200000e4   Data           1  os_var.o(.data)
    OSSchedRoundRobinDfltTimeQuanta          0x200000e8   Data           4  os_var.o(.data)
    OSSchedRoundRobinEn                      0x200000ec   Data           1  os_var.o(.data)
    OSSemDbgListPtr                          0x200000f0   Data           4  os_var.o(.data)
    OSSemQty                                 0x200000f4   Data           2  os_var.o(.data)
    OSStatTaskCPUUsage                       0x200000f6   Data           1  os_var.o(.data)
    OSStatTaskCtr                            0x200000f8   Data           4  os_var.o(.data)
    OSStatTaskCtrMax                         0x200000fc   Data           4  os_var.o(.data)
    OSStatTaskCtrRun                         0x20000100   Data           4  os_var.o(.data)
    OSStatTaskRdy                            0x20000104   Data           1  os_var.o(.data)
    OSStatTaskTimeMax                        0x20000108   Data           4  os_var.o(.data)
    OSStatResetFlag                          0x2000010c   Data           1  os_var.o(.data)
    OSTaskCtxSwCtr                           0x20000110   Data           4  os_var.o(.data)
    OSTaskDbgListPtr                         0x20000114   Data           4  os_var.o(.data)
    OSTaskQty                                0x20000118   Data           2  os_var.o(.data)
    OSTickCtr                                0x2000011c   Data           4  os_var.o(.data)
    OSTickTaskTimeMax                        0x20000120   Data           4  os_var.o(.data)
    OSTmrDbgListPtr                          0x20000124   Data           4  os_var.o(.data)
    OSTmrQty                                 0x20000128   Data           2  os_var.o(.data)
    OSTmrTaskTimeMax                         0x2000012c   Data           4  os_var.o(.data)
    OSTmrTickCtr                             0x20000130   Data           4  os_var.o(.data)
    OSTmrUpdateCnt                           0x20000134   Data           4  os_var.o(.data)
    OSTmrUpdateCtr                           0x20000138   Data           4  os_var.o(.data)
    OSTCBCurPtr                              0x2000013c   Data           4  os_var.o(.data)
    OSTCBHighRdyPtr                          0x20000140   Data           4  os_var.o(.data)
    __stdout                                 0x20000148   Data           4  stdout.o(.data)
    uart_buffer                              0x20000420   Data         288  bsp.o(.bss)
    Uart_Rxbuffer                            0x20000540   Data         288  bsp.o(.bss)
    ConsoleTaskStk                           0x200009dc   Data         256  console.o(.bss)
    ConsoleTaskStkTCB                        0x20000ae0   Data         208  console.o(.bss)
    ConsoleSem                               0x20000bb0   Data          40  console.o(.bss)
    OSCfg_IdleTaskStk                        0x20000bd8   Data         512  os_cfg_app.o(.bss)
    OSCfg_IntQ                               0x20000dd8   Data         320  os_cfg_app.o(.bss)
    OSCfg_IntQTaskStk                        0x20000f18   Data         512  os_cfg_app.o(.bss)
    OSCfg_ISRStk                             0x20001118   Data         512  os_cfg_app.o(.bss)
    OSCfg_MsgPool                            0x20001318   Data        1600  os_cfg_app.o(.bss)
    OSCfg_StatTaskStk                        0x20001958   Data         512  os_cfg_app.o(.bss)
    OSCfg_TickTaskStk                        0x20001b58   Data         512  os_cfg_app.o(.bss)
    OSCfg_TickWheel                          0x20001d58   Data         104  os_cfg_app.o(.bss)
    OSCfg_TmrTaskStk                         0x20001dc0   Data         512  os_cfg_app.o(.bss)
    OSCfg_TmrWheel                           0x20001fc0   Data         104  os_cfg_app.o(.bss)
    OSIdleTaskTCB                            0x20002028   Data         208  os_var.o(.bss)
    OSIntQTaskTCB                            0x200020f8   Data         208  os_var.o(.bss)
    OSRdyList                                0x200021c8   Data         768  os_var.o(.bss)
    OSStatTaskTCB                            0x200024c8   Data         208  os_var.o(.bss)
    OSTickTaskTCB                            0x20002598   Data         208  os_var.o(.bss)
    OSTmrTaskTCB                             0x20002668   Data         208  os_var.o(.bss)
    LEDATaskStk                              0x20002738   Data         256  task.o(.bss)
    LEDBTaskStk                              0x20002838   Data         256  task.o(.bss)
    LEDATaskStkTCB                           0x20002938   Data         208  task.o(.bss)
    LEDBTaskStkTCB                           0x20002a08   Data         208  task.o(.bss)
    __initial_sp                             0x20002f00   Data           0  startup_stm32f10x_hd.o(STACK)



==============================================================================

Memory Map of the image

  Image Entry point : 0x08000131

  Load Region LR_IROM1 (Base: 0x08000000, Size: 0x00005b0c, Max: 0x00080000, ABSOLUTE, COMPRESSED[0x000059e8])

    Execution Region ER_IROM1 (Base: 0x08000000, Size: 0x000059c0, Max: 0x00080000, ABSOLUTE)

    Base Addr    Size         Type   Attr      Idx    E Section Name        Object

    0x08000000   0x00000130   Data   RO         3191    RESET               startup_stm32f10x_hd.o
    0x08000130   0x00000000   Code   RO         5405  * .ARM.Collect$$$$00000000  mc_w.l(entry.o)
    0x08000130   0x00000004   Code   RO         5683    .ARM.Collect$$$$00000001  mc_w.l(entry2.o)
    0x08000134   0x00000004   Code   RO         5686    .ARM.Collect$$$$00000004  mc_w.l(entry5.o)
    0x08000138   0x00000000   Code   RO         5688    .ARM.Collect$$$$00000008  mc_w.l(entry7b.o)
    0x08000138   0x00000008   Code   RO         5689    .ARM.Collect$$$$00000009  mc_w.l(entry8.o)
    0x08000140   0x00000004   Code   RO         5684    .ARM.Collect$$$$00002712  mc_w.l(entry2.o)
    0x08000144   0x00000024   Code   RO         3192    .text               startup_stm32f10x_hd.o
    0x08000168   0x0000002a   Code   RO         3656    .text               cpu_a.o
    0x08000192   0x00000002   PAD
    0x08000194   0x00000084   Code   RO         3824    .text               os_cpu_a.o
    0x08000218   0x00000062   Code   RO         5408    .text               mc_w.l(uldiv.o)
    0x0800027a   0x00000040   Code   RO         5410    .text               mc_w.l(memmovea.o)
    0x080002ba   0x00000010   Code   RO         5412    .text               mc_w.l(strlen.o)
    0x080002ca   0x0000001c   Code   RO         5414    .text               mc_w.l(strcmp.o)
    0x080002e6   0x00000012   Code   RO         5416    .text               mc_w.l(strcpy.o)
    0x080002f8   0x00000044   Code   RO         5418    .text               mc_w.l(strtok_r.o)
    0x0800033c   0x0000001e   Code   RO         5695    .text               mc_w.l(llshl.o)
    0x0800035a   0x00000020   Code   RO         5697    .text               mc_w.l(llushr.o)
    0x0800037a   0x00000002   PAD
    0x0800037c   0x00000024   Code   RO         5710    .text               mc_w.l(init.o)
    0x080003a0   0x00000000   Code   RO         5712    .text               mc_w.l(semi.o)
    0x080003a0   0x00000000   Code   RO         5715    .text               mc_w.l(iusesemip.o)
    0x080003a0   0x0000005c   Code   RO         5726    .text               mc_w.l(__dczerorl2.o)
    0x080003fc   0x000000f8   Code   RO         5359    i.AppTaskStart      task.o
    0x080004f4   0x00000014   Code   RO         3591    i.App_OS_IdleTaskHook  os_app_hooks.o
    0x08000508   0x0000008c   Code   RO         3593    i.App_OS_SetAllHooks  os_app_hooks.o
    0x08000594   0x00000002   Code   RO         3594    i.App_OS_StatTaskHook  os_app_hooks.o
    0x08000596   0x00000002   Code   RO         3595    i.App_OS_TaskCreateHook  os_app_hooks.o
    0x08000598   0x00000002   Code   RO         3596    i.App_OS_TaskDelHook  os_app_hooks.o
    0x0800059a   0x00000002   Code   RO         3597    i.App_OS_TaskReturnHook  os_app_hooks.o
    0x0800059c   0x00000014   Code   RO         3598    i.App_OS_TaskSwHook  os_app_hooks.o
    0x080005b0   0x00000002   Code   RO         3599    i.App_OS_TimeTickHook  os_app_hooks.o
    0x080005b2   0x00000010   Code   RO         3360    i.BSP_CPU_ClkFreq   bsp.o
    0x080005c2   0x00000002   PAD
    0x080005c4   0x00000080   Code   RO         3361    i.BSP_Init          bsp.o
    0x08000644   0x00000004   Code   RO         3296    i.BusFault_Handler  stm32f10x_it.o
    0x08000648   0x0000001c   Code   RO         3709    i.CPU_IntDisMeasMaxCalc  cpu_core.o
    0x08000664   0x0000002c   Code   RO         3710    i.CPU_IntDisMeasMaxCurGet  cpu_core.o
    0x08000690   0x0000002c   Code   RO         3711    i.CPU_IntDisMeasMaxCurReset  cpu_core.o
    0x080006bc   0x0000002c   Code   RO         3712    i.CPU_IntDisMeasMaxGet  cpu_core.o
    0x080006e8   0x00000034   Code   RO         3713    i.CPU_IntDisMeasStart  cpu_core.o
    0x0800071c   0x00000054   Code   RO         3714    i.CPU_IntDisMeasStop  cpu_core.o
    0x08000770   0x0000000c   Code   RO         3363    i.CPU_TS_TmrRd      bsp.o
    0x0800077c   0x00000002   Code   RO         3297    i.DebugMon_Handler  stm32f10x_it.o
    0x0800077e   0x00000002   Code   RO         3364    i.EXTI_Config       bsp.o
    0x08000780   0x00000002   Code   RO         3365    i.GPIO_Configuration  bsp.o
    0x08000782   0x00000112   Code   RO         1340    i.GPIO_Init         stm32f10x_gpio.o
    0x08000894   0x0000001c   Code   RO         3298    i.HardFault_Handler  stm32f10x_it.o
    0x080008b0   0x00000038   Code   RO         3564    i.LED_Init          led.o
    0x080008e8   0x00000004   Code   RO         3299    i.MemManage_Handler  stm32f10x_it.o
    0x080008ec   0x00000002   Code   RO         3300    i.NMI_Handler       stm32f10x_it.o
    0x080008ee   0x00000042   Code   RO         3366    i.NVIC_Configuration  bsp.o
    0x08000930   0x00000074   Code   RO          130    i.NVIC_Init         misc.o
    0x080009a4   0x00000014   Code   RO          131    i.NVIC_PriorityGroupConfig  misc.o
    0x080009b8   0x000000fc   Code   RO         3905    i.OSCfg_Init        os_cfg_app.o
    0x08000ab4   0x00000014   Code   RO         3827    i.OSIdleTaskHook    os_cpu_c.o
    0x08000ac8   0x0000015c   Code   RO         3928    i.OSInit            os_core.o
    0x08000c24   0x00000020   Code   RO         3828    i.OSInitHook        os_cpu_c.o
    0x08000c44   0x000000e4   Code   RO         3930    i.OSIntExit         os_core.o
    0x08000d28   0x000000a8   Code   RO         3931    i.OSSched           os_core.o
    0x08000dd0   0x0000007c   Code   RO         3932    i.OSSchedLock       os_core.o
    0x08000e4c   0x000000a0   Code   RO         3935    i.OSSchedUnlock     os_core.o
    0x08000eec   0x00000088   Code   RO         4592    i.OSSemCreate       os_sem.o
    0x08000f74   0x0000021c   Code   RO         4594    i.OSSemPend         os_sem.o
    0x08001190   0x00000070   Code   RO         4596    i.OSSemPost         os_sem.o
    0x08001200   0x00000068   Code   RO         3936    i.OSStart           os_core.o
    0x08001268   0x000000f8   Code   RO         4664    i.OSStatReset       os_stat.o
    0x08001360   0x000000d0   Code   RO         4665    i.OSStatTaskCPUUsageInit  os_stat.o
    0x08001430   0x00000014   Code   RO         3829    i.OSStatTaskHook    os_cpu_c.o
    0x08001444   0x00000294   Code   RO         4695    i.OSTaskCreate      os_task.o
    0x080016d8   0x00000018   Code   RO         3830    i.OSTaskCreateHook  os_cpu_c.o
    0x080016f0   0x00000208   Code   RO         4696    i.OSTaskDel         os_task.o
    0x080018f8   0x00000018   Code   RO         3831    i.OSTaskDelHook     os_cpu_c.o
    0x08001910   0x00000018   Code   RO         3832    i.OSTaskReturnHook  os_cpu_c.o
    0x08001928   0x00000234   Code   RO         4704    i.OSTaskSemPend     os_task.o
    0x08001b5c   0x000000e4   Code   RO         4708    i.OSTaskStkChk      os_task.o
    0x08001c40   0x000000c0   Code   RO         3833    i.OSTaskStkInit     os_cpu_c.o
    0x08001d00   0x000000ac   Code   RO         3834    i.OSTaskSwHook      os_cpu_c.o
    0x08001dac   0x00000150   Code   RO         4892    i.OSTimeDly         os_time.o
    0x08001efc   0x0000022c   Code   RO         4893    i.OSTimeDlyHMSM     os_time.o
    0x08002128   0x00000044   Code   RO         4897    i.OSTimeTick        os_time.o
    0x0800216c   0x00000014   Code   RO         3835    i.OSTimeTickHook    os_cpu_c.o
    0x08002180   0x00000040   Code   RO         3836    i.OS_CPU_SysTickHandler  os_cpu_c.o
    0x080021c0   0x00000030   Code   RO         3837    i.OS_CPU_SysTickInit  os_cpu_c.o
    0x080021f0   0x000001b0   Code   RO         4174    i.OS_Dbg_Init       os_dbg.o
    0x080023a0   0x00000018   Code   RO         4199    i.OS_FlagInit       os_flag.o
    0x080023b8   0x0000027c   Code   RO         4200    i.OS_FlagPost       os_flag.o
    0x08002634   0x0000005c   Code   RO         4201    i.OS_FlagTaskRdy    os_flag.o
    0x08002690   0x0000004c   Code   RO         3938    i.OS_IdleTask       os_core.o
    0x080026dc   0x00000070   Code   RO         3939    i.OS_IdleTaskInit   os_core.o
    0x0800274c   0x00000100   Code   RO         4273    i.OS_IntQPost       os_int.o
    0x0800284c   0x00000170   Code   RO         4274    i.OS_IntQRePost     os_int.o
    0x080029bc   0x000000a8   Code   RO         4275    i.OS_IntQTask       os_int.o
    0x08002a64   0x00000128   Code   RO         4276    i.OS_IntQTaskInit   os_int.o
    0x08002b8c   0x00000018   Code   RO         4307    i.OS_MemInit        os_mem.o
    0x08002ba4   0x00000036   Code   RO         4340    i.OS_MsgPoolCreate  os_msg.o
    0x08002bda   0x00000002   PAD
    0x08002bdc   0x00000050   Code   RO         4341    i.OS_MsgPoolInit    os_msg.o
    0x08002c2c   0x00000044   Code   RO         4343    i.OS_MsgQFreeAll    os_msg.o
    0x08002c70   0x0000000e   Code   RO         4345    i.OS_MsgQInit       os_msg.o
    0x08002c7e   0x00000002   PAD
    0x08002c80   0x000000d8   Code   RO         4346    i.OS_MsgQPut        os_msg.o
    0x08002d58   0x00000018   Code   RO         4401    i.OS_MutexInit      os_mutex.o
    0x08002d70   0x00000068   Code   RO         3940    i.OS_Pend           os_core.o
    0x08002dd8   0x00000026   Code   RO         3943    i.OS_PendDataInit   os_core.o
    0x08002dfe   0x00000002   PAD
    0x08002e00   0x0000005c   Code   RO         3944    i.OS_PendDbgNameAdd  os_core.o
    0x08002e5c   0x00000024   Code   RO         3945    i.OS_PendDbgNameRemove  os_core.o
    0x08002e80   0x0000000a   Code   RO         3947    i.OS_PendListInit   os_core.o
    0x08002e8a   0x00000066   Code   RO         3949    i.OS_PendListInsertPrio  os_core.o
    0x08002ef0   0x00000030   Code   RO         3950    i.OS_PendListRemove  os_core.o
    0x08002f20   0x00000042   Code   RO         3951    i.OS_PendListRemove1  os_core.o
    0x08002f62   0x000000c6   Code   RO         3954    i.OS_Post           os_core.o
    0x08003028   0x0000002a   Code   RO         3955    i.OS_Post1          os_core.o
    0x08003052   0x00000002   PAD
    0x08003054   0x00000028   Code   RO         4483    i.OS_PrioGetHighest  os_prio.o
    0x0800307c   0x00000018   Code   RO         4484    i.OS_PrioInit       os_prio.o
    0x08003094   0x00000024   Code   RO         4485    i.OS_PrioInsert     os_prio.o
    0x080030b8   0x00000024   Code   RO         4486    i.OS_PrioRemove     os_prio.o
    0x080030dc   0x00000018   Code   RO         4529    i.OS_QInit          os_q.o
    0x080030f4   0x00000184   Code   RO         4530    i.OS_QPost          os_q.o
    0x08003278   0x00000024   Code   RO         3956    i.OS_RdyListInit    os_core.o
    0x0800329c   0x0000002c   Code   RO         3957    i.OS_RdyListInsert  os_core.o
    0x080032c8   0x00000040   Code   RO         3958    i.OS_RdyListInsertHead  os_core.o
    0x08003308   0x0000003c   Code   RO         3959    i.OS_RdyListInsertTail  os_core.o
    0x08003344   0x00000044   Code   RO         3960    i.OS_RdyListMoveHeadToTail  os_core.o
    0x08003388   0x0000005c   Code   RO         3961    i.OS_RdyListRemove  os_core.o
    0x080033e4   0x0000005c   Code   RO         3962    i.OS_Sched0         os_core.o
    0x08003440   0x0000001c   Code   RO         3963    i.OS_SchedLockTimeMeasStart  os_core.o
    0x0800345c   0x0000003c   Code   RO         3964    i.OS_SchedLockTimeMeasStop  os_core.o
    0x08003498   0x000000ec   Code   RO         3965    i.OS_SchedRoundRobin  os_core.o
    0x08003584   0x00000030   Code   RO         4599    i.OS_SemDbgListAdd  os_sem.o
    0x080035b4   0x00000018   Code   RO         4601    i.OS_SemInit        os_sem.o
    0x080035cc   0x00000198   Code   RO         4602    i.OS_SemPost        os_sem.o
    0x08003764   0x00000270   Code   RO         4666    i.OS_StatTask       os_stat.o
    0x080039d4   0x000000cc   Code   RO         4667    i.OS_StatTaskInit   os_stat.o
    0x08003aa0   0x00000038   Code   RO         3966    i.OS_TaskBlock      os_core.o
    0x08003ad8   0x00000030   Code   RO         4711    i.OS_TaskDbgListAdd  os_task.o
    0x08003b08   0x00000044   Code   RO         4712    i.OS_TaskDbgListRemove  os_task.o
    0x08003b4c   0x00000020   Code   RO         4713    i.OS_TaskInit       os_task.o
    0x08003b6c   0x000000d8   Code   RO         4714    i.OS_TaskInitTCB    os_task.o
    0x08003c44   0x00000268   Code   RO         4715    i.OS_TaskQPost      os_task.o
    0x08003eac   0x0000001c   Code   RO         3967    i.OS_TaskRdy        os_core.o
    0x08003ec8   0x00000018   Code   RO         4716    i.OS_TaskReturn     os_task.o
    0x08003ee0   0x000003fc   Code   RO         4717    i.OS_TaskSemPost    os_task.o
    0x080042dc   0x00000028   Code   RO         4844    i.OS_TickListInit   os_tick.o
    0x08004304   0x000001bc   Code   RO         4845    i.OS_TickListInsert  os_tick.o
    0x080044c0   0x00000038   Code   RO         4846    i.OS_TickListRemove  os_tick.o
    0x080044f8   0x00000024   Code   RO         4847    i.OS_TickListResetPeak  os_tick.o
    0x0800451c   0x0000022c   Code   RO         4848    i.OS_TickListUpdate  os_tick.o
    0x08004748   0x0000002c   Code   RO         4849    i.OS_TickTask       os_tick.o
    0x08004774   0x00000090   Code   RO         4850    i.OS_TickTaskInit   os_tick.o
    0x08004804   0x00000128   Code   RO         4943    i.OS_TmrInit        os_tmr.o
    0x0800492c   0x000000d0   Code   RO         4944    i.OS_TmrLink        os_tmr.o
    0x080049fc   0x00000024   Code   RO         4945    i.OS_TmrResetPeak   os_tmr.o
    0x08004a20   0x000000c0   Code   RO         4946    i.OS_TmrTask        os_tmr.o
    0x08004ae0   0x00000050   Code   RO         4947    i.OS_TmrUnlink      os_tmr.o
    0x08004b30   0x0000001e   Code   RO         3499    i.RB_full           usart.o
    0x08004b4e   0x00000022   Code   RO         3500    i.RB_init           usart.o
    0x08004b70   0x0000005c   Code   RO         3501    i.RB_pop            usart.o
    0x08004bcc   0x00000098   Code   RO         3502    i.RB_push           usart.o
    0x08004c64   0x00000020   Code   RO         1770    i.RCC_APB2PeriphClockCmd  stm32f10x_rcc.o
    0x08004c84   0x000000d4   Code   RO         1778    i.RCC_GetClocksFreq  stm32f10x_rcc.o
    0x08004d58   0x00000002   Code   RO         3302    i.SVC_Handler       stm32f10x_it.o
    0x08004d5a   0x00000008   Code   RO           17    i.SetSysClock       system_stm32f10x.o
    0x08004d62   0x00000002   PAD
    0x08004d64   0x000000c8   Code   RO           18    i.SetSysClockTo72   system_stm32f10x.o
    0x08004e2c   0x00000060   Code   RO           20    i.SystemInit        system_stm32f10x.o
    0x08004e8c   0x00000078   Code   RO         3303    i.USART1_IRQHandler  stm32f10x_it.o
    0x08004f04   0x00000018   Code   RO         2953    i.USART_Cmd         stm32f10x_usart.o
    0x08004f1c   0x00000098   Code   RO         3503    i.USART_Config      usart.o
    0x08004fb4   0x00000054   Code   RO         2957    i.USART_GetITStatus  stm32f10x_usart.o
    0x08005008   0x0000004a   Code   RO         2959    i.USART_ITConfig    stm32f10x_usart.o
    0x08005052   0x00000002   PAD
    0x08005054   0x000000d8   Code   RO         2960    i.USART_Init        stm32f10x_usart.o
    0x0800512c   0x0000000a   Code   RO         2967    i.USART_ReceiveData  stm32f10x_usart.o
    0x08005136   0x00000008   Code   RO         2970    i.USART_SendData    stm32f10x_usart.o
    0x0800513e   0x00000002   PAD
    0x08005140   0x00000038   Code   RO         3504    i.Uart_Tx           usart.o
    0x08005178   0x00000004   Code   RO         3304    i.UsageFault_Handler  stm32f10x_it.o
    0x0800517c   0x00000010   Code   RO         5424    i.__0printf$bare    mc_w.l(printfb.o)
    0x0800518c   0x0000000e   Code   RO         5720    i.__scatterload_copy  mc_w.l(handlers.o)
    0x0800519a   0x00000002   Code   RO         5721    i.__scatterload_null  mc_w.l(handlers.o)
    0x0800519c   0x0000000e   Code   RO         5722    i.__scatterload_zeroinit  mc_w.l(handlers.o)
    0x080051aa   0x00000022   Code   RO         5431    i._printf_core      mc_w.l(printfb.o)
    0x080051cc   0x00000018   Code   RO         3421    i.cmd_backspace     console.o
    0x080051e4   0x00000070   Code   RO         3422    i.cmd_help          console.o
    0x08005254   0x0000002c   Code   RO         3423    i.console_cmd_execute  console.o
    0x08005280   0x000001bc   Code   RO         3424    i.console_cmd_get   console.o
    0x0800543c   0x000000c4   Code   RO         3425    i.console_init      console.o
    0x08005500   0x0000000a   Code   RO         3426    i.console_thread    console.o
    0x0800550a   0x00000002   PAD
    0x0800550c   0x0000013c   Code   RO         3427    i.console_update    console.o
    0x08005648   0x0000001a   Code   RO         3477    i.delay_ms          delay.o
    0x08005662   0x00000012   Code   RO         5690    i.fputc             mc_w.l(fputc.o)
    0x08005674   0x00000020   Code   RO         5360    i.leda_task_core    task.o
    0x08005694   0x0000002c   Code   RO         5361    i.ledb_task_core    task.o
    0x080056c0   0x00000060   Code   RO         3196    i.main              main.o
    0x08005720   0x0000000c   Code   RO         3505    i.serial_putc       usart.o
    0x0800572c   0x00000016   Code   RO         3506    i.serial_puts       usart.o
    0x08005742   0x00000002   PAD
    0x08005744   0x000000a4   Data   RO         3907    .constdata          os_cfg_app.o
    0x080057e8   0x0000016c   Data   RO         4175    .constdata          os_dbg.o
    0x08005954   0x0000004b   Data   RO         3429    .conststring        console.o
    0x0800599f   0x00000001   PAD
    0x080059a0   0x00000020   Data   RO         5718    Region$$Table       anon$$obj.o


    Execution Region RW_IRAM1 (Base: 0x20000000, Size: 0x00002f00, Max: 0x00010000, ABSOLUTE, COMPRESSED[0x00000028])

    Base Addr    Size         Type   Attr      Idx    E Section Name        Object

    0x20000000   0x00000014   Data   RW         1798    .data               stm32f10x_rcc.o
    0x20000014   0x0000002e   Data   RW         3430    .data               console.o
    0x20000042   0x00000002   PAD
    0x20000044   0x0000001c   Data   RW         3726    .data               cpu_core.o
    0x20000060   0x00000004   Data   RW         3838    .data               os_cpu_c.o
    0x20000064   0x00000008   Data   RW         4487    .data               os_prio.o
    0x2000006c   0x000000d8   Data   RW         5025    .data               os_var.o
    0x20000144   0x00000004   Data   RW         5419    .data               mc_w.l(strtok_r.o)
    0x20000148   0x00000004   Data   RW         5692    .data               mc_w.l(stdout.o)
    0x2000014c   0x00000004   PAD
    0x20000150   0x000002d0   Zero   RW         3197    .bss                main.o
    0x20000420   0x00000240   Zero   RW         3367    .bss                bsp.o
    0x20000660   0x00000578   Zero   RW         3428    .bss                console.o
    0x20000bd8   0x00001450   Zero   RW         3906    .bss                os_cfg_app.o
    0x20002028   0x00000710   Zero   RW         5024    .bss                os_var.o
    0x20002738   0x000003c8   Zero   RW         5362    .bss                task.o
    0x20002b00   0x00000400   Zero   RW         3189    STACK               startup_stm32f10x_hd.o


==============================================================================

Image component sizes


      Code (inc. data)   RO Data    RW Data    ZI Data      Debug   Object Name

       226         30          0          0        576       3908   bsp.o
      1146        266         75         46       1400       6786   console.o
         0          0          0          0          0       4244   core_cm3.o
        42          0          0          0          0        196   cpu_a.o
       296         52          0         28          0       4540   cpu_core.o
        26          0          0          0          0        419   delay.o
        56         10          0          0          0        347   led.o
        96         28          0          0        720      28887   main.o
       136         24          0          0          0     206031   misc.o
       190         68          0          0          0       3176   os_app_hooks.o
       252        166        164          0       5200      19679   os_cfg_app.o
      2920        378          0          0          0      16430   os_core.o
       132         32          0          0          0        220   os_cpu_a.o
       640         66          0          4          0       5793   os_cpu_c.o
       432        286        364          0          0       4411   os_dbg.o
       752         26          0          0          0       2553   os_flag.o
      1088        194          0          0          0       3002   os_int.o
        24         10          0          0          0        637   os_mem.o
       432         22          0          0          0       3016   os_msg.o
        24         10          0          0          0        643   os_mutex.o
       136         16          0          8          0       2190   os_prio.o
       412         18          0          0          0       1806   os_q.o
      1268         62          0          0          0       4651   os_sem.o
      1284        182          0          0          0       3003   os_stat.o
      3996        184          0          0          0       8880   os_task.o
      1320        120          0          0          0       4501   os_tick.o
       960         46          0          0          0       2601   os_time.o
       812        134          0          0          0       3436   os_tmr.o
         0          0          0        216       1808      18354   os_var.o
        36          8        304          0       1024        740   startup_stm32f10x_hd.o
         0          0          0          0          0       1644   stm32f10x_adc.o
       274          0          0          0          0      10156   stm32f10x_gpio.o
       166         32          0          0          0       2995   stm32f10x_it.o
       244         26          0         20          0      12337   stm32f10x_rcc.o
       416          6          0          0          0      11087   stm32f10x_usart.o
       304         26          0          0          0      24721   system_stm32f10x.o
       324         82          0          0        968       2081   task.o
       550         16          0          0          0       4262   usart.o

    ----------------------------------------------------------------------
     21434       2626        940        324      11696     434363   Object Totals
         0          0         32          0          0          0   (incl. Generated)
        22          0          1          2          0          0   (incl. Padding)

    ----------------------------------------------------------------------

      Code (inc. data)   RO Data    RW Data    ZI Data      Debug   Library Member Name

        92          0          0          0          0          0   __dczerorl2.o
         0          0          0          0          0          0   entry.o
         8          4          0          0          0          0   entry2.o
         4          0          0          0          0          0   entry5.o
         0          0          0          0          0          0   entry7b.o
         8          4          0          0          0          0   entry8.o
        18          0          0          0          0         80   fputc.o
        30          0          0          0          0          0   handlers.o
        36          8          0          0          0         68   init.o
         0          0          0          0          0          0   iusesemip.o
        30          0          0          0          0         68   llshl.o
        32          0          0          0          0         68   llushr.o
        64          0          0          0          0         76   memmovea.o
        50          8          0          0          0        152   printfb.o
         0          0          0          0          0          0   semi.o
         0          0          0          4          0          0   stdout.o
        28          0          0          0          0         76   strcmp.o
        18          0          0          0          0         68   strcpy.o
        16          0          0          0          0         68   strlen.o
        68          4          0          4          0         96   strtok_r.o
        98          0          0          0          0         92   uldiv.o

    ----------------------------------------------------------------------
       602         28          0          8          4        912   Library Totals
         2          0          0          0          4          0   (incl. Padding)

    ----------------------------------------------------------------------

      Code (inc. data)   RO Data    RW Data    ZI Data      Debug   Library Name

       600         28          0          8          0        912   mc_w.l

    ----------------------------------------------------------------------
       602         28          0          8          4        912   Library Totals

    ----------------------------------------------------------------------

==============================================================================


      Code (inc. data)   RO Data    RW Data    ZI Data      Debug   

     22036       2654        940        332      11700     426591   Grand Totals
     22036       2654        940         40      11700     426591   ELF Image Totals (compressed)
     22036       2654        940         40          0          0   ROM Totals

==============================================================================

    Total RO  Size (Code + RO Data)                22976 (  22.44kB)
    Total RW  Size (RW Data + ZI Data)             12032 (  11.75kB)
    Total ROM Size (Code + RO Data + RW Data)      23016 (  22.48kB)

==============================================================================

