:020000040800F2
:10000000002F002045010008ED08000895080008B1
:10001000E9080008450600087951000800000000C2
:10002000000000000000000000000000594D000822
:100030007D07000800000000B701000881210008CA
:100040005F0100085F0100085F0100085F01000810
:100050005F0100085F0100085F0100085F01000800
:100060005F0100085F0100085F0100085F010008F0
:100070005F0100085F0100085F0100085F010008E0
:100080005F0100085F0100085F0100085F010008D0
:100090005F0100085F0100085F0100085F010008C0
:1000A0005F0100085F0100085F0100085F010008B0
:1000B0005F0100085F0100085F0100085F010008A0
:1000C0005F0100085F0100085F0100085F01000890
:1000D0005F0100088D4E00085F0100085F01000805
:1000E0005F0100085F0100085F0100085F01000870
:1000F0005F0100085F0100085F0100085F01000860
:100100005F0100085F0100085F0100085F0100084F
:100110005F0100085F0100085F0100085F0100083F
:100120005F0100085F0100085F0100085F0100082F
:10013000DFF80CD000F022F900480047C156000853
:10014000002F00200648804706480047FEE7FEE7EC
:10015000FEE7FEE7FEE7FEE7FEE7FEE7FEE7FEE777
:100160002D4E00083101000872B6704762B6704724
:10017000EFF3108072B6704780F310887047B0FAC2
:1001800080F0704790FAA0F0704730BF704720BFF2
:100190007047000018484FF0FF010170002080F305
:1001A00009881648016881F3088815484FF0805186
:1001B000016062B6FEE772B6EFF3098028B120381D
:1001C00080E8F00F0F490968086000B50E488047C5
:1001D0005DF804EB0D480E490A78027009480D4994
:1001E0000A680260106890E8F00F203080F30988F8
:1001F0004EF0040E62B6704722ED00E06000002071
:1002000004ED00E03C010020011D0008CA000020B0
:10021000CB000020400100202DE9F05F05460020C2
:1002200092469B4688460646814640241BE0284667
:1002300041464746224600F090F853465A46C01AB7
:10024000914110D311461846224600F077F82D1A36
:1002500067EB01084F4622460120002100F06EF8AE
:1002600017EB00094E41201EA4F10104DFDC4846D3
:1002700031462A464346BDE8F09F10B5431A9342E3
:1002800009D28318881803E010F8011D03F8011D36
:10029000521EF9D210BD40EA01039B0703D009E0CA
:1002A00008C9121F08C0042AFAD203E011F8013B62
:1002B00000F8013B521EF9D210BD0146002000E0BB
:1002C000401C0A5C002AFBD1704710B5002200E0F8
:1002D000521C835C8C5CA34201D1002BF8D1D8B2B4
:1002E000E1B2401A10BD034611F8012B00F8012BB2
:1002F000002AF9D11846704770B500B9106800257A
:1003000012E00B4602E0A64203D05B1C1C78002CD6
:10031000F9D1E3B22B4305D02CB125B1002100F86F
:10032000011B04E00546401C0678002EE9D1106050
:10033000284670BD004ADFE744010020202A04DB84
:10034000203A00FA02F1002070479140C2F12003E8
:1003500020FA03F3194390407047202A04DB203A27
:1003600021FA02F00021704721FA02F3D040C2F1D5
:10037000200291400843194670470000064C074D83
:1003800006E0E06840F0010394E807009847103465
:10039000AC42F6D3FFF7D0FEA0590008C0590008C0
:1003A00070B501EB020410F8015B15F0070301D1F1
:1003B00010F8013B2A1106D110F8012B03E010F8C8
:1003C000016B01F8016B5B1EF9D12B0705D40023EB
:1003D000521E0FD401F8013BFAE710F8013B02F17D
:1003E0000202A1EB030303E013F8015B01F8015BD8
:1003F000521EF9D5A142D6D3002070BD8AB000F0BC
:10040000E1F800F0D6F8044628480068B4FBF0F59F
:10041000284601F0D5FE09AB002225A1274800F0AF
:1004200065FD09A8032100220592CDE90621089067
:10043000104640210622224BCDE90132CDE90310BE
:10044000072000231F4A20A10090224800F0FAFF55
:1004500009A8032100220592CDE906210890104643
:10046000402106221C4BCDE90132CDE903100820C2
:1004700000231A4A1AA100901C4800F0E3FF09A8C3
:1004800000F06EFF00F040F80FE01948C06880F0FF
:1004900001001749C86009A800214FF4FA730A4601
:1004A000CDE90010084601F029FDEEE7A457000849
:1004B000546573742053656D00000000D82A002035
:1004C00038270020755600086C65646120746173DC
:1004D0006B000000382900203828002095560008BD
:1004E0006C656462207461736B000000082A002050
:1004F000002001400348406940F400500149486130
:10050000704700000010014010B5002400BF00BF7C
:10051000FFF72EFE044600BF00F0E6F800BF0F48CC
:100520000F4908600F4810490860104810490860DA
:1005300010481149086011481149086011481249D2
:10054000086012481249086000BF00F0E7F800BFD9
:100550002046FFF711FE00BF00BF10BD9705000841
:100560006C00002099050008700000209B05000821
:1005700074000020F50400087800002095050008AC
:100580007C0000209D05000880000020B1050008C7
:100590008400002070477047704770470348006927
:1005A00040F400500149086170470000001001400C
:1005B000704700B585B0684604F064FB019805B04B
:1005C00000BD000010B54FF480720023174804F0FE
:1005D000BEFA4FF480720023154804F0B8FA00F018
:1005E000CFF800F0CCF800F082F904F097FC114845
:1005F000806940F010000F4988610F48406820F47E
:1006000070000D4948600846406840F4401048605A
:100610000846C06840F40050C86000F049F904F092
:100620000DFF062105A004F08BFD10BD2004002065
:1006300040050020001002400010014074657374F2
:100640000D0A000000BFFEE701460846044A126892
:10065000904203D9024A1268801A00E000207047D5
:100660005400002070B5002500BFFFF781FD05464E
:1006700000BF0648046800BF2846FFF77DFD00BFA5
:100680002046FFF7E1FF0646304670BD58000020C7
:1006900070B50025FFF7E6FF044600BFFFF768FDD1
:1006A000054600BF00200449086000BF2846FFF748
:1006B00063FD00BF204670BD5800002070B50025C6
:1006C00000BFFFF755FD054600BF0648046800BFA0
:1006D0002846FFF751FD00BF2046FFF7B5FF06464D
:1006E000304670BD5C00002010B509480088401CF1
:1006F000074908800748008818B900F039F806490A
:10070000086004480088401C0249088010BD0000B1
:10071000480000204A0000204C00002010B50F487F
:100720000088401E0D49088008460088A0B900F0E6
:100730001FF80B490860084600680A490968441A0E
:1007400009480068A04201D20748046007480068D1
:10075000A04201D20548046010BD00004A000020FC
:10076000500000204C000020580000205C000020B9
:100770000148406870470000001000E07047704773
:1007800070472DE9F0410246002500260020002395
:100790000024002791F803C00CF00F0591F803C066
:1007A0001CF0100F03D091F802C04CEA050591F837
:1007B00000C0BCF1000F31D0146800202BE04FF0D6
:1007C000010C0CFA00F3B1F800C00CEA03069E42DB
:1007D00020D183004FF00F0C0CFA03F7BC4305FA4D
:1007E00003FC4CEA040491F803C0BCF1280F06D1C5
:1007F0004FF0010C0CFA00FCC2F814C00AE091F8AA
:1008000003C0BCF1480F05D14FF0010C0CFA00FCFD
:10081000C2F810C0401C0828D1D31460B1F800C041
:10082000BCF1FF0F34DD546800202EE000F1080C0D
:100830004FF0010808FA0CF3B1F800C00CEA030607
:100840009E4221D183004FF00F0C0CFA03F7BC43FA
:1008500005FA03FC4CEA040491F803C0BCF1280F2C
:1008600005D100F1080C08FA0CF8C2F8148091F8D0
:1008700003C0BCF1480F07D100F1080C4FF001088C
:1008800008FA0CF8C2F81080401C0828CED3546037
:10089000BDE8F08105E003A004F070FCC82004F07E
:1008A000D3FEF8E748617264204661756C740A00F3
:1008B0000B48806940F480700949886109480068E4
:1008C0006FF30F00074908600846006840F03330B6
:1008D00008600846C06840F0FF00C860704700002C
:1008E000001002400010014000BFFEE7704708B54D
:1008F0004FF4A06000F056F825208DF8000000208D
:100900008DF8020001208DF80300684600F010F811
:1009100036208DF8000001208DF8010000208DF8B0
:10092000020001208DF80300684600F001F808BDC0
:1009300070B5002100230F22C4780CB3164C246834
:1009400004F4E064C4F5E064210AC1F10403CA4080
:10095000447804FA03F184781440214309010F4CD0
:100960000678A155047804F01F050124AC400578F1
:100970006D114FF0E02606EB8505C5F8004109E052
:10098000047804F01F050124AC40054D067876116B
:1009900045F8264070BD00000CED00E000E400E0EA
:1009A00080E100E002490143024A11607047000003
:1009B0000000FA050CED00E01548164816481748E7
:1009C000174818481848194819481A481A481B481F
:1009D0001B481C481C481D481D481E481E481F48EF
:1009E0001F482048204821482148224822482348BF
:1009F000234824482448254825482648264827488F
:100A00002748284828482948294800BF704700003F
:100A1000E457000844570008485700084C5700089E
:100A20005057000854570008585700085C570008F2
:100A30006057000864570008685700086C570008A2
:100A40007057000874570008785700087C57000852
:100A50008057000884570008885700088C57000802
:100A60009057000894570008985700089C570008B2
:100A7000A0570008A4570008A8570008AC57000862
:100A8000B0570008B4570008B8570008BC57000812
:100A9000C0570008C4570008C8570008CC570008C2
:100AA000D0570008D4570008D8570008DC57000872
:100AB000E057000810B50348006810B1014800680D
:100AC000804710BD7800002070B5044600F0AAF8F9
:100AD0000020424908704249087042490870424962
:100AE000086042490860424908604249087042482B
:100AF00000680A21B0FBF1F04049086040480068F6
:100B000058B14048056845B13D48066803E0761E87
:100B1000002028602D1D002EF9D100203A490860E0
:100B20003A4908603A4908603A4908603A49086019
:100B30003A4908603A49086002F0A0FA02F09CFBCA
:100B4000204603F003F8208800B170BD204601F074
:100B500089FF208800B1F8E7204601F0BFFD20881A
:100B600000B1F2E7204603F005FE208800B1ECE773
:100B7000204602F02FFF208800B1E6E7204601F072
:100B80000FFC208800B1E0E7204601F0FFFF20883D
:100B900000B1DAE7204602F021F8208800B1D4E75E
:100BA000204602F0D9F8208800B1CEE7204602F0B6
:100BB00095FA208800B1C8E7204602F0FBFC2088A7
:100BC00000B1C2E7204603F01DFE208800B1BCE75B
:100BD00001F00EFBFFF7F0FE00BFB6E78C0000202F
:100BE00094000020E4000020D8000020DC00002059
:100BF000E0000020EC000020A4570008E8000020DE
:100C000074570008705700086C0000207000002026
:100C100074000020780000207C000020800000206C
:100C200084000020044800680449096800EB810042
:100C3000001F034908607047705700087457000888
:100C40006000002010B500242E480078012800D054
:100C500010BD00BFFFF78CFA044600BF2A48007899
:100C600028B900BF2046FFF787FA00BFF0E7264803
:100C70000078401E2449087008460078002805DDE9
:100C800000BF2046FFF778FA00BFE1E71F48007871
:100C9000002805DD00BF2046FFF76EFA00BFD7E74A
:100CA00002F0D8F91A4908700846007800EB4000B5
:100CB000184951F82000184908600846006817498B
:100CC0000968884205D100BF2046FFF755FA00BFEA
:100CD000BEE711480068D0F88C00401C0E49096836
:100CE000C1F88C000E480068401C0D4908604FF0A8
:100CF00080500C49086000BF2046FFF73DFA00BF56
:100D000000BFA5E7940000208C000020E400002034
:100D1000CB000020C8210020400100203C01002021
:100D20001001002004ED00E010B5002420480078F8
:100D3000002800DD10BD1F480078002800DDF9E71D
:100D400000BFFFF715FA044600BF02F083F91A4905
:100D500008700846007800EB4000184951F8200060
:100D6000174908600846006816490968884205D195
:100D700000BF2046FFF700FA00BFDBE7104800681D
:100D8000D0F88C00401C0E490968C1F88C000E4850
:100D90000068401C0C4908604FF080500B49086007
:100DA00000BF2046FFF7E8F900BF00BFC2E7000020
:100DB0008C000020E4000020CB000020C82100208F
:100DC000400100203C0100201001002004ED00E063
:100DD00070B5044600251A480078002803DD46F661
:100DE0006250208070BD17480078012803D045F676
:100DF00089602080F6E714480078FA2803DB45F282
:100E000009202080EEE700BF00BFFFF7B1F90546DB
:100E100000BFFFF769FC00BF0B480078401C0A497F
:100E2000087002F00DFB00BFFFF778FC00BF2846FA
:100E3000FFF7A2F900BF00BF0020208000BFD1E76C
:100E40008C00002094000020E400002070B50446CF
:100E5000002523480078002803DD46F665502080F1
:100E600070BD20480078012803D045F689602080B5
:100E7000F6E71D48007818B946F664502080EFE781
:100E800000BF00BFFFF774F9054600BFFFF72CFC59
:100E900000BF15480078401E1349087008460078C6
:100EA00000280CDD00BFFFF739FC00BF2846FFF724
:100EB00063F900BF00BF46F663502080D0E702F020
:100EC000CDFA00BFFFF72AFC00BF2846FFF754F910
:100ED00000BF00BFFFF728FF0020208000BFBFE752
:100EE0008C00002094000020E40000202DE9F04157
:100EF00004460E4617461D464FF000081A48007873
:100F0000002804DD42F6E1602880BDE8F0811CB9CC
:100F100045F6C3502880F8E700BF00BFFFF728F967
:100F2000804600BFFFF7E0FB00BF1048206027624B
:100F300000206062666004F1080001F0A1FF204615
:100F400002F020FB0A480088401C0949088000BFC5
:100F5000FFF7E4FB00BF4046FFF70EF900BF00BFFC
:100F60000020288000BFD0E78C00002053454D4171
:100F7000F40000202DE9F04788B0064689469046E7
:100F80001C46109D4FF0000A7D480078002806DDC1
:100F900046F2AE102880002008B0BDE8F08726B9E0
:100FA00045F6C35028800020F6E7B8F1000F03D0C3
:100FB000B8F5004F02D100E000BF04E045F625601F
:100FC00028800020E8E700BF6E493068884204D0DE
:100FD00045F6C45028800020DEE70CB100202060D8
:100FE00000BF00BFFFF7C4F8824600BFFFF77CFBDD
:100FF00000BF306A98B1306A401E30620CB1706A2E
:101000002060376A00BFFFF789FB00BF5046FFF73B
:10101000B3F800BF00BF002028803846BCE718F4B2
:10102000004F0ED0376A00BFFFF778FB00BF504675
:10103000FFF7A2F800BF00BF46F2B0102880384684
:10104000AAE75148007800280DDD00BFFFF766FBD6
:1010500000BF5046FFF790F800BF00BF46F6635050
:101060002880002098E700BF47480078401C464988
:10107000087008460078012801D102F0E1F900BFAC
:10108000FFF74CFB00BF5046FFF776F800BF00BFEC
:1010900000BF4B4606223146684601F069FE00BF9C
:1010A00000BF00BFFFF764F8824600BFFFF71CFBDC
:1010B00000BF35480078401E334908700846007864
:1010C00008B902F0CBF900BFFFF728FB00BF50467C
:1010D000FFF752F800BF00BF00BFFFF725FE00BFBB
:1010E00000BFFFF745F8824600BFFFF7FDFA00BFDB
:1010F0002648006890F8350030B101280CD002284D
:101100001AD0032821D110E01CB120480068006CDF
:1011100020600020288026E01CB11C480068006C7C
:10112000206046F2A91028801DE00CB1002020604C
:1011300047F2D920288016E01CB114480068006CE2
:10114000206045F6C25028800DE046F62B602880CE
:1011500000BFFFF7E3FA00BF5046FFF70DF800BFEE
:1011600000BF002018E700BF376A00BFFFF7D6FABC
:1011700000BF5046FFF700F800BF00BF38460BE73E
:101180008C00002053454D41E40000203C0100202C
:101190002DE9FF4105460F46144635B945F6C350C3
:1011A0002080002004B0BDE8F081134928688842FF
:1011B00004D045F6C45020800020F3E7FFF7D8FAAA
:1011C00006460E48007800280CDD00200346024643
:1011D0002946CDE9017603940090074801F0B6FA5C
:1011E0000020DFE7234632463946284602F0EEF972
:1011F00080464046D6E7000053454D418C00002014
:1012000010B5044612480078E8B901F023FF1149EF
:10121000087008460078104908700E48007800EB06
:1012200040000E4951F820000D490860084600684A
:101230000C490860012006490870FEF7ABFF43F631
:101240009920208002E045F68A60208010BD0000D1
:1012500094000020CB000020CA000020C8210020FC
:10126000400100203C0100202DE9F04107464FF0ED
:101270000008002031490860314908803149086080
:1012800031490860314908603149086031490860D6
:10129000314804682BE000BF00BFFEF769FF8046BD
:1012A00000BFFFF721FA00BF002004F1780420649A
:1012B0006064206060636061E07401462162616285
:1012C000A162E162FFF754FAE061A4F1780404F14D
:1012D00064064FF00000B081D4F8C44000BFFFF7AF
:1012E0001DFA00BF4046FEF747FF00BF00BF002CBD
:1012F000D1D103F001F903F081FB1848056816E02D
:1013000000BF00BFFEF734FF804600BFFFF7ECF9D7
:1013100000BF05F120060020B081AD6900BFFFF7D6
:10132000FDF900BF4046FEF727FF00BF00BF002DBC
:10133000E6D100203880BDE8F0810000A800002040
:10134000A200002008010020200100202C01002024
:1013500090000020DC00002014010020D0000020BC
:10136000F8B5044600266A460021022000F01EFD62
:10137000BDF8000018B1BDF800002080F8BD00BF26
:1013800000BFFEF7F5FE064600BFFFF7ADF900BF50
:1013900000202149086000BFFFF7C0F900BF3046B8
:1013A000FEF7EAFE00BF00BF00251C4800681C498C
:1013B0000968884205D91948006819490968B0FBCD
:1013C000F1F525B9154800680A21B0FBF1F56A4628
:1013D0000021284600F0EAFC00BF00BFFEF7C8FE6F
:1013E000064600BFFFF780F900BF00200D490860E6
:1013F000094800680C49086001200C49087000BFCA
:10140000FFF78CF900BF3046FEF7B6FE00BF00BF05
:101410000020208000BFB1E7F8000020A45700089A
:101420008C57000808010020FC0000200401002067
:1014300010B50348006810B101480068804710BD2E
:101440007C0000202DE9FF4F87B004469046DDE97F
:101450001BA5DDE91496179F00200390954800789E
:10146000002805DD47F24A1028800BB0BDE8F08F58
:101470001CB947F2AD102880F7E7B8F1000F03D18F
:1014800047F24F102880F0E71EB946F62C602880FE
:10149000EBE789480068874203D246F62D60288032
:1014A000E3E71698B84203D346F62E602880DCE7BF
:1014B000B9F1400F03D346F273202880D5E7B9F184
:1014C000000F06D17D48844203D046F27320288065
:1014D000CBE7B9F13F0F06D17948844203D046F2F9
:1014E00073202880C1E7204602F040FB00202880BE
:1014F0001AF0010F11D01AF0020F0ED005960690C7
:1015000008E00021059801600598001D05900698E7
:10151000401C06900698B842F3D3169806EB80005C
:101520000490CDE9007A32464046049B0A9900F0C7
:1015300087FB0590C4F828800A98E062089820622A
:1015400084F83790059820600498A0601998606529
:10155000199818B95B480068A06501E01998A06562
:101560001A9860606662A763A4F83CA04FF0000B75
:1015700008E0002104F17C0040F82B100BF1010081
:101580001FFA80FBBBF1000FF3D004F1640018993F
:1015900001F06EFB204600F09FF800BF00BF00BFC7
:1015A000FEF7E6FD039000BFFFF79EF800BF464838
:1015B0000078401C4449087008460078012801D191
:1015C00001F03EFF00BFFFF7A9F800BF0398FEF748
:1015D000D3FD00BF00BF00BF94F8370001F05AFDF3
:1015E000204601F091FE204602F076FA3748008846
:1015F000401C3649088036480078012837D000BFA3
:1016000000BF00BFFEF7B4FD039000BFFFF76CF80A
:1016100000BF2D480078401E2B490870084600780E
:10162000D0B901F01BFF2B48008800280BDD00BF5C
:10163000FFF774F800BF0398FEF79EFD00BF00BFE0
:1016400001F0D0FE11E000BFFFF768F800BF03987B
:10165000FEF792FD00BF08E000BFFFF75FF800BF94
:101660000398FEF789FD00BF00BF00BFFDE600BF85
:1016700000BF00BFFEF77CFD039000BFFFF734F80A
:1016800000BF11480078401E0F49087008460078D6
:1016900008B901F0E3FE00BFFFF740F800BF039870
:1016A000FEF76AFD00BF00BF00BFFFF73DFB00BFB4
:1016B000DBE600008C000020A0570008F820002086
:1016C00028200020E8000020E4000020180100206D
:1016D00094000020A000002010B5044603480068D4
:1016E00018B1204601490968884710BD6C000020E8
:1016F00070B504460D46002678480078002803DDC2
:1017000047F24E10288070BD7548844203D147F2DD
:101710004C102880F7E77348844203D147F24D10FC
:101720002880F0E79CB900BF00BFFEF721FD064608
:1017300000BFFEF7D9FF00BF6B48046800BFFEF78B
:10174000EDFF00BF3046FEF717FD00BF00BF00BF32
:1017500000BF00BFFEF70CFD064600BFFEF7C4FF4A
:1017600000BF62480078401C604908700846007855
:10177000012801D101F064FE00BFFEF7CFFF00BFDA
:101780003046FEF7F9FC00BF00BF00BF94F83600FA
:1017900008282DD2DFE800F004090E10080A0F1106
:1017A000204601F0F1FD5EE05DE000BF204602F062
:1017B00087FE58E000BF00BF00BF204602F080FE59
:1017C00094F83400082810D2DFE800F00407050878
:1017D000090A0B0600BF00BF08E000BF00BF00BF42
:1017E00000BF204601F084FB00E000BF00BF3AE0EC
:1017F00000BF00BF00BFFEF7BBFC064600BFFEF700
:1018000073FF00BF39480078401E38490870084609
:101810000078D0B901F022FE3548008800280BDDA1
:1018200000BFFEF77BFF00BF3046FEF7A5FC00BF00
:1018300000BF01F0D7FD11E000BFFEF76FFF00BF52
:101840003046FEF799FC00BF08E000BFFEF766FFD8
:1018500000BF3046FEF790FC00BF00BF00BF46F659
:101860002A6028804FE700BF04F1640001F0DEF930
:10187000204600F041F8204602F046F91D48008855
:10188000401E1C490880204602F070F9FF2084F8B1
:10189000360000BF00BF00BFFEF76AFC064600BF6F
:1018A000FEF722FF00BF11480078401E0F49087064
:1018B0000846007808B901F0D1FD00BFFEF72EFF01
:1018C00000BF3046FEF758FC00BF00BF00BFFFF767
:1018D0002BFA0020288000BF15E700008C000020B4
:1018E00028200020F82000203C010020E4000020F7
:1018F000A00000201801002010B50446034800682D
:1019000018B1204601490968884710BD70000020C1
:1019100010B504460348006818B12046014909681B
:10192000884710BD740000202DE9F047074688461F
:1019300014461D464FF0000985480078002805DD53
:1019400046F2AE1028800020BDE8F0870CB10020E0
:10195000206000BF00BFFEF70BFC814600BFFEF712
:10196000C3FE00BF7B480068406CB8B3794800688C
:10197000406C401E77490968486476480068466CA8
:101980001CB174480068006C2060FEF7F1FE7149DC
:101990000968096C401A6F490968C1F8A8006D48C8
:1019A0000068D0F8A8006B490968D1F8AC108842EB
:1019B00007D968480068D0F8A80066490968C1F8E6
:1019C000AC0000BFFEF7AAFE00BF4846FEF7D4FBFE
:1019D00000BF00BF002028803046B5E7FFE718F4BD
:1019E000004F0DD000BFFEF799FE00BF4846FEF73E
:1019F000C3FB00BF00BF46F2B01028800020A3E761
:101A00005548007800280DDD00BFFEF787FE00BFB7
:101A10004846FEF7B1FB00BF00BF46F66350288082
:101A2000002091E700BF4C480078401C4A490870EC
:101A300008460078012801D101F002FD00BFFEF741
:101A40006DFE00BF4846FEF797FB00BF00BF00BF1A
:101A50003B4607220021084601F08AF900BF00BF7B
:101A600000BFFEF785FB814600BFFEF73DFE00BFCD
:101A700039480078401E384908700846007808B98F
:101A800001F0ECFC00BFFEF749FE00BF4846FEF740
:101A900073FB00BF00BF00BFFFF746F900BF00BFE8
:101AA000FEF766FB814600BFFEF71EFE00BF294819
:101AB000006890F8350020B1012826D0032834D1E1
:101AC0002CE0FCB123480068006C2060FEF750FE5B
:101AD00020490968096C401A1E490968C1F8A80024
:101AE0001C480068D0F8A8001A490968D1F8AC1061
:101AF000884207D917480068D0F8A8001549096836
:101B0000C1F8AC000020288013E01CB11148006827
:101B1000006C206046F2A91028800AE00CB1002079
:101B2000206047F2D920288003E046F62B60288009
:101B300000BF00BF07480068466C00BFFEF7EEFD1F
:101B400000BF4846FEF718FB00BF00BF3046FBE66B
:101B50008C0000203C010020E40000202DE9F0472B
:101B600005460E4617461C464FF0000A32480078DC
:101B7000002804DD47F258102080BDE8F0871EB928
:101B800046F2D5202080F8E71FB946F2D520208004
:101B9000F3E700BF00BFFEF7EBFA824600BFFEF797
:101BA000A3FD00BF0DB925480568286878B900BFB6
:101BB000FEF7B4FD00BF5046FEF7DEFA00BF00BFDF
:101BC00000203060386047F252102080D5E795F849
:101BD0003C0010F0010F0FD100BFFEF79FFD00BFCA
:101BE0005046FEF7C9FA00BF00BF002030603860E1
:101BF00047F254102080C0E700BFFEF78FFD00BF02
:101C00005046FEF7B9FA00BF00BF4FF00008D5F804
:101C1000249003E009F1040908F10108D9F8000053
:101C20000028F7D0C6F80080A86BA0EB0800386049
:101C30000020208000BFA0E78C0000203C01002095
:101C4000F0B50446DDE9055602EB85004FF0807CD7
:101C5000071F3846C7F800C0071F38463C60DFF84A
:101C60009CC0071F3846C7F800C04FF0123C071F42
:101C70003846C7F800C04FF0033C071F3846C7F886
:101C800000C04FF0023C071F3846C7F800C0071FCE
:101C900038463B60071F384639604FF0113C071F3C
:101CA0003846C7F800C04FF0103C071F3846C7F849
:101CB00000C04FF0093C071F3846C7F800C04FF07E
:101CC000083C071F3846C7F800C04FF0073C071F05
:101CD0003846C7F800C04FF0063C071F3846C7F823
:101CE00000C04FF0053C071F3846C7F800C04FF052
:101CF000043C071F3846C7F800C0F0BDC93E0008C5
:101D000070B52648006810B1244800688047FEF787
:101D10002FFD04462248006822490968884219D0EC
:101D20001F480068D0F89400201A1D490968C1F8BE
:101D300090001B48006850F8983F416818480068B8
:101D4000D0F89000181841F10001154A126842F8C5
:101D5000980F516013480068C0F89440FEF798FC53
:101D600005460F480068D0F8B800A84203D20C48D6
:101D70000068C0F8B8500A480068D0F8BC000A49AA
:101D80000968884205D20848006805490968C1F811
:101D9000BC0000200449086070BD000080000020E5
:101DA0003C01002040010020E00000202DE9F0412E
:101DB00005460E46144600274D480078002804DDED
:101DC00047F275202080BDE8F0814A48007800285D
:101DD00003DD46F663502080F5E736B1022E05D0CC
:101DE000042E0AD0082E09D101E000BF00BF1DB9A2
:101DF00047F27E202080E6E704E003E045F6256018
:101E00002080E0E700BF00BF00BF00BFFEF7B0F9D1
:101E1000074600BFFEF768FC00BF36480078401C4C
:101E20003449087008460078012801D101F008FB08
:101E300000BFFEF773FC00BF3846FEF79DF900BFF8
:101E400000BF00BF01202C49096881F836002346F5
:101E5000324629462848006802F054FA2088F0B13A
:101E600000BF00BF00BFFEF783F9074600BFFEF7C3
:101E70003BFC00BF1F480078401E1E490870084602
:101E8000007808B901F0EAFA00BFFEF747FC00BF8E
:101E90003846FEF771F900BF00BF00BF93E7164850
:101EA000006801F071FA00BF00BF00BFFEF760F9E3
:101EB000074600BFFEF718FC00BF0E480078401E22
:101EC0000C4908700846007808B901F0C7FA00BF4D
:101ED000FEF724FC00BF3846FEF74EF900BF00BFF6
:101EE00000BFFEF721FF0020208000BF6BE700004D
:101EF0008C000020E40000203C0100202DE9FF5F61
:101F000005460E4617469846DDE90EA400200090CF
:101F100081480078002804DD47F275202080BDE864
:101F2000FF9F7E480078002803DD46F6635020803E
:101F3000F5E70AF00E0BBBF1000F09D0BBF1020F61
:101F400007D0BBF1040F10D0BBF1080F0ED101E098
:101F500000BF00BFB8F1000F06D12FB926B91DB9D7
:101F600047F27E202080DAE704E003E045F62560B2
:101F70002080D4E700BF3AF01E0001D0012000E02D
:101F8000002003900398012803D145F625602080A6
:101F9000C5E7CAF3001002900298C0B9B8F57A7F7D
:101FA00003D347F27B202080B9E73B2F03DD47F2C4
:101FB0007A202080B3E73B2E03DD47F27920208092
:101FC000ADE7632D12DD47F278202080A7E742F2CB
:101FD0000F70864203DD47F2792020809FE7B5F538
:101FE0007A7F03DB47F27820208098E74C48D0F8CE
:101FF00000904FF4FA70B0FBF9F0404400FB09F098
:102000004FF47A71B0FBF1F14FF461606843C6EBB5
:10201000061200EB8200384400FB09100190019881
:10202000002873D000BF00BF00BFFEF7A1F80090EA
:1020300000BFFEF759FB00BF38480078401C374905
:10204000087008460078012801D101F0F9F900BFB5
:10205000FEF764FB00BF0098FEF78EF800BF00BFDC
:1020600000BF01202F49096881F8360023465A46EF
:102070002C480199006802F045F92088F0B100BFB2
:1020800000BF00BFFEF774F8009000BFFEF72CFB06
:1020900000BF22480078401E20490870084600789A
:1020A00008B901F0DBF900BFFEF738FB00BF00986C
:1020B000FEF762F800BF00BF00BF30E719480068B4
:1020C00001F062F900BF00BF00BFFEF751F80090B9
:1020D00000BFFEF709FB00BF10480078401E0F4903
:1020E00008700846007808B901F0B8F900BFFEF79B
:1020F00015FB00BF0098FEF73FF800BF00BF00BF10
:10210000FEF712FE0020208003E0FFE747F27E206A
:10211000208000BF03E700008C000020E4000020C6
:10212000A45700083C01002010B586B000F01EF84E
:10213000FEF71EFB044605A800210091CDE901141D
:1021400003900748007800EB4000064A02EB80014C
:1021500000231A46044800F0F9FA06B010BD00004A
:10216000CA000020C82100205449434B10B5034841
:10217000006810B101480068804710BD840000204D
:1021800010B5002400BF00BFFDF7F2FF044600BFFA
:10219000FEF7AAFA00BF09480078401C07490870FA
:1021A00000BFFEF7BBFA00BF2046FDF7E5FF00BF0A
:1021B00000BFFFF7B9FFFEF745FD10BD8C00002002
:1021C00001464A1E4FF0E0235A61084A106820F089
:1021D0007F4000BF10601A46126942F005021A6182
:1021E0001A46126942F002021A61704720ED00E0BF
:1021F000244825482548264826482748274828486F
:102200002848294829482A482A482B482B482C483E
:102210002C482D482D482E482E482F482F4830480E
:1022200030483148314832483248334833483448DE
:1022300034483548354836483648374837483848AE
:102240003848394839483A483A483B483B483C487E
:102250003C483D483D483E483E483F483F4840484E
:10226000404841484148424842484348434844481E
:10227000444845484548464846484748474800BFBF
:1022800070470000E857000850590008EA57000856
:10229000EB570008EC570008F0570008F457000807
:1022A000F15700081C5800081D5800081E58000867
:1022B0002058000822580008245800082658000812
:1022C00028580008485800084A5800084C58000888
:1022D0004E5800085058000852580008545800083A
:1022E0008058000881580008825800088458000867
:1022F0008658000887580008885800088A5800083F
:102300008C5800088E580008905800089258000811
:1023100094580008C4580008C5580008C65800085A
:10232000C7580008C8580008CA580008CC58000808
:10233000F4580008F5580008F6580008F758000847
:10234000F8580008FA580008FC580008005900081E
:1023500001590008025900080359000804590008EF
:1023600005590008065900080759000808590008CF
:102370000A5900080B5900080C5900080E590008AA
:10238000105900081159000814590008485900084C
:10239000495900084A5900084C5900084E5900088C
:1023A0000021034A1160034A118001807047000038
:1023B000AC000020B00000202DE9F04F85B00446AD
:1023C000894692469B46DDF838800020009000BF89
:1023D00000BFFDF7CDFE009000BFFEF785F900BFFE
:1023E000BAF1000F0BD0BAF1010F0ED0BAF5004FC1
:1023F00006D06FF400401AEB00000CD106E000BFDD
:10240000206A40EA0900206216E000BF206A20EA44
:102410000900206210E000BFFEF780F900BF0098BD
:10242000FDF7AAFE00BF00BF45F62560A8F8000032
:10243000002005B0BDE8F08F00BFC4F824B004F15F
:10244000080001900198008968B900BFFEF766F99D
:1024500000BF0098FDF790FE00BF00BF0020A8F865
:102460000000206AE5E700BF70480078401C6F4913
:10247000087008460078012801D100F0E1FF00BF94
:10248000FEF74CF900BF0098FDF776FE00BF00BFD5
:1024900000BF01980768BD6889E07868029095F8E8
:1024A000880000F00F0003900398012821D0022833
:1024B0002ED0042802D0082836D10EE0206AD5F8A4
:1024C000801000EA0106D5F88000B04204D15A46D7
:1024D0003146284600F0AEF863E0206AD5F8801057
:1024E00000EA010626B15A463146284600F0A2F815
:1024F00057E0D5F88000216A20EA0106D5F880006F
:10250000B04204D15A463146284600F093F848E0DC
:10251000D5F88000216A20EA010626B15A463146E4
:10252000284600F087F83CE000BF00BF00BFFDF781
:102530001FFE009000BFFEF7D7F800BF3B480078B1
:10254000401E3A49087008460078D0B900F086FF6E
:102550003748008800280BDD00BFFEF7DFF800BF1A
:102560000098FDF709FE00BF00BF00F03BFF11E03F
:1025700000BFFEF7D3F800BF0098FDF7FDFD00BFD8
:1025800008E000BFFEF7CAF800BF0098FDF7F4FDB1
:1025900000BF00BF00BF43F6FF20A8F800000020E6
:1025A00047E700BF029F0FB1BD6800E00025002D86
:1025B0007FF473AF00BF00BF00BFFDF7D9FD0090EF
:1025C00000BFFEF791F800BF18480078401E174979
:1025D00008700846007808B900F040FF00BFFEF719
:1025E0009DF800BF0098FDF7C7FD00BF00BF00BF0A
:1025F0001AF4004F01D1FEF797FB00BF00BFFDF7B3
:10260000B7FD009000BFFEF76FF800BF206A04908E
:1026100000BFFEF783F800BF0098FDF7ADFD00BFD7
:1026200000BF0020A8F80000049802E7E4000020A2
:10263000A000002070B504460D46164604F134048F
:1026400025654FF0000060702070E660A078A4F16E
:102650003404082816D2DFE800F00405080907064C
:10266000101100BF00BF00BF0DE000BF204601F009
:102670001DFC002084F8360005E000BF042084F82B
:10268000360000E000BF00BF204600F031FC70BD06
:10269000002400BF1DE000BF00BFFDF769FD044638
:1026A00000BFFEF721F800BF0A480068401C094936
:1026B000086009480068401C0749086000BFFEF731
:1026C0002DF800BF2046FDF757FD00BF00BFFEF705
:1026D000F1F9E0E788000020F800002010B58AB08A
:1026E000044600200E490860032000210591CDE931
:1026F0000704069108460B4909680B4A12680B4B00
:102700001B68CDE90132CDE903103F200023084AC0
:1027100008A100900C48FEF795FE0AB010BD00001D
:10272000880000204C57000848570008445700080C
:102730009126000875432F4F532D4949492049647C
:102740006C65205461736B00282000202DE9F84F40
:1027500004460D4616461F46DDE90BABDDF8289012
:10276000DDF834800020009000BF00BFFDF700FDC1
:10277000009000BFFDF7B8FF00BF2B4800882B4931
:10278000098888423BDA28480088401C264908808E
:10279000274800880988884203DA234800882449AA
:1027A0000880244800680460224800688560214849
:1027B0000068C6601F48006807821E480068C0F8AD
:1027C00014901C480068A0F818A01A480068C0F8C7
:1027D0001CB0184800684068164908600120164976
:1027E0000881164808604860002000F053FC144837
:1027F0000078144908700020A8F8000008E012488A
:102800000088401C1049088044F25360A8F800007A
:1028100000BFFDF783FF00BF0098FDF7ADFC00BFD0
:1028200000BFBDE8F88F0000A00000205857000846
:10283000A200002098000020C8210020F8200020DD
:10284000CA000020CC000020A40000202DE9FE4F8B
:102850004FF0000B00BF00BFFDF78AFC834600BFAE
:10286000FDF742FF00BF48480068D0F80090464896
:102870000068866844480068C76843480068B0F844
:1028800010A041480068D0F814803F480068058BCC
:102890003D480068C4693C48006840683A4908609F
:1028A00000BFFDF73BFF00BF5846FDF765FC00BFCA
:1028B00000BF3649A9EB010089452CD00ADC344819
:1028C00019EB000020D0334940180AD03249401893
:1028D00056D12AE0314940182ED0314940184FD105
:1028E00008E002A823462A46414600903046FFF7FA
:1028F00063FD46E002A82B4652463946CDE900402A
:10290000304600F0F7FB3CE002AB22462946304659
:1029100000F05CFE35E002A82B4652463946CDE970
:102920000040304601F08EF92BE002AB22462946EA
:10293000304601F0D5FA24E01A49097801EB41014B
:10294000194A02EB810000F0A7FD02AB22460021EC
:10295000164801F0C5FA16480068401E1449086080
:102960000846006858B9134800680860FDF700FF82
:10297000044602AB224600210F4801F0B1FA00E004
:1029800000BF00BFBDE8FE8F9C000020544D5347A0
:10299000ADBAB2BE0DF90BFAF2F8F7FF000410FC65
:1029A00003F4FDF5CC000020C8210020982500206C
:1029B000380100203401002068260020002700BFD5
:1029C00048E0002644E024480088E0B900BF00BF8A
:1029D000FDF7CEFB074600BFFDF786FE00BF0020D7
:1029E0001E4908810860486000F066FB00BFFDF7E3
:1029F00095FE00BF3846FDF7BFFB00BF00BFFEF7E6
:102A000093F9012624E0FDF7B3FE0546FFF71EFF0C
:102A1000FDF7AEFE441B12480068844201D91048FD
:102A2000046000BF00BFFDF7A3FB074600BFFDF732
:102A30005BFE00BF08480088401E0749088000BFB1
:102A4000FDF76CFE00BF3846FDF796FB00BF00BFE8
:102A5000002EB8D0B5E70000A0000020C82100205B
:102A6000A8000020F0B589B0054600203149088053
:102A70003148006820B944F25260288009B0F0BDA6
:102A80002E480088022803DA44F254602880F5E7D3
:102A900000202B4908602848046826462036002775
:102AA0000CE0284820600020A060E0602082606187
:102AB0002083666020342036781C87B21F48008847
:102AC0008742EEDB203C1C48066866601E480660B4
:102AD0001E48066000201E4908801E4908801E48C6
:102AE000006818B946F62C602880C7E71B480068C4
:102AF0001B490968884203D246F62D602880BDE74D
:102B0000032000210591CDE90705069113480068CF
:102B1000144A1268104B1B68CDE90301CDE901325C
:102B200000910B46104A11A11748FEF78BFC00BF1D
:102B3000A4E70000A40000205457000858570008DC
:102B4000A80000204E4F4E45980000209C00002019
:102B5000A0000020A200002060570008685700086D
:102B6000A057000864570008BD29000875432F4F7F
:102B7000532D4949492049535220517565756520A7
:102B80005461736B00000000F82000200021034A0C
:102B90001160034A1180018070470000B4000020DA
:102BA000B800002070B502460B46104611461031A1
:102BB0005E1EB5B2002408E0016000264660068172
:102BC000C66010301031661CB4B2AC42F4DB002693
:102BD000066046600681C66070BD000010B5044600
:102BE0000F48006818B945F21E70208010BD0D48CE
:102BF000008818B945F21D702080F7E70948018860
:102C000007480068FFF7CEFF0548006806490860DE
:102C10000448008888800020C880208000BFE5E745
:102C2000845700087C570008BC00002010B50146FE
:102C300048894B89002B17DD0A680C4B1B68136011
:102C40000A4C4B6823602346DB884C891B1B074CCE
:102C5000E38023469B884C892344044CA3800023B3
:102C60004B818B810B604B6010BD0000BC000020CD
:102C7000018100224281828102604260704700002F
:102C80002DE9F0410D46DDE90674B0F80AC0B0F850
:102C90000880C44505DB46F2935CA4F800C0BDE89B
:102CA000F081DFF8B0C0BCF804C0BCF1000F04D163
:102CB00045F21D7CA4F800C0F1E7DFF898C0DCF80D
:102CC0000010DFF89080D1F800C0C8F800C0C446FA
:102CD000BCF804C0ACF1010CA8F804C0C446BCF8B0
:102CE00006C00CF1010CA8F806C0B0F80AC0BCF18F
:102CF000000F06D1016041604FF0010CA0F80AC03E
:102D000015E013F0100F07D1066831604FF0000C8A
:102D1000C1F800C0016004E0D0F804C0C1F800C0F0
:102D20004160B0F80AC00CF1010CA0F80AC0B0F87C
:102D30000AC0B0F80C80C44503DDB0F80AC0A0F8A2
:102D40000CC04D600A81CF604FF0000CA4F800C0A9
:102D500000BFA4E7BC0000200021034A1160034A21
:102D60001180018070470000C4000020C8000020CE
:102D70002DE9F04105460C4616461F4615480068E9
:102D800080F8346000201349096881F8350039461D
:102D90001048006800F084FE6CB104F10808EC6093
:102DA000012229460B48006800F016F829464046E3
:102DB00000F06BF806E0002006490968C88705495D
:102DC0000968086303480168204600F019F8BDE867
:102DD000F08100003C01002010B5C2870163002390
:102DE0000AE000244C600C600C614C610C83CC61E7
:102DF000886020315C1CA3B29342F2DB10BD00005E
:102E000030B548B14568C1F8C85000F108042268DF
:102E100093681D6AC56113E091F83450022D02D009
:102E2000072D08D103E007A5C1F8C85007E007A5A2
:102E3000C1F8C85003E008A5C1F8C85000BF00BFE2
:102E400030BD00005461736B205100005461736BFE
:102E50002053656D000000002000000030B507A57C
:102E6000C1F8C85000F1080422681AB193681D6ABD
:102E7000C56101E001A5C56130BD00002000000072
:102E800000210160416001817047F0B58E6896F8BD
:102E9000375007893FB90127078100274F600F602E
:102EA0000160416023E007897F1C0781026806E01A
:102EB000946894F83770AF4200DD02E05268002A4F
:102EC000F6D100BF32B900274F6043680B605960EC
:102ED00041600CE017682FB9116000270F604A604D
:102EE000016004E013680B604A6059601160F0BD36
:102EF0002DE9F0410446256BE68F0AE0D5F80C80F9
:102F000008F108072946384600F00AF82035701EF7
:102F100086B2002EF2DC0020E0872063BDE8F0815D
:102F200010B50489012C03D100240460446011E031
:102F30000C6824B94A680024146002600AE04C68F6
:102F400024B90B6800245C60436003E00B684A68A6
:102F50005A6013600489641E048100244C600C6074
:102F600010BD2DE9F84306460C4617469846089DC5
:102F700094F83600082853D2DFE800F00405080969
:102F800006072C2D00BF00BF00BF4AE000BF94F829
:102F90003400032807D143463A462146304600957F
:102FA00000F042F803E0E765A4F86080256436B1DC
:102FB0002046FFF79DFF21463046FFF74FFF204692
:102FC00000F074FF002004F13404A070607004F875
:102FD000340926E000BF94F83400032807D14346A3
:102FE0003A4621463046009500F01EF803E0E765BA
:102FF000A4F860802564204601F062FA36B12046CC
:10300000FFF776FF21463046FFF728FF042004F142
:103010003404A0704FF00000607004F8340900E040
:1030200000BF00BFBDE8F883F0B50446059E086BFD
:10303000CD8F0AE0C768A74204D1046142610383CF
:10304000C66104E020306F1EBDB2002DF2DC00BF6F
:10305000F0BD000070B50025074C03E005F120002D
:10306000C5B2241D20680028F8D02068FDF787F835
:103070002844C5B2284670BD64000020002004E04A
:103080000021034A42F82010401C0228F8D3704760
:103090006400002030B5420900F01F030121C3F194
:1030A0001F04A140034C54F822400C43014D45F845
:1030B000224030BD6400002030B5420900F01F03FB
:1030C0000121C3F11F04A140034C54F822408C435A
:1030D000014D45F8224030BD640000200021034A24
:1030E0001160034A1180018070470000D000002069
:1030F000D40000202DE9F04F85B007468A4693465C
:103100001C460020029000BF00BF00BFFDF730F852
:10311000029000BFFDF7E8FA00BF55480078401C58
:103120005349087008460078012801D100F088F959
:1031300000BFFDF7F3FA00BF0298FDF71DF800BFCE
:1031400000BF00BF07F10806308900284BD114F0FA
:10315000100F01D1804601E04FF01008DDE90E01AB
:1031600043465A46CDE90001514607F12000FFF7DA
:1031700087FD00BF00BF00BFFCF7FAFF029000BF51
:10318000FDF7B2FA00BF3A480078401E384908708F
:1031900008460078D0B900F061F936480088002868
:1031A0000BDD00BFFDF7BAFA00BF0298FCF7E4FFA1
:1031B00000BF00BF00F016F911E000BFFDF7AEFA46
:1031C00000BF0298FCF7D8FF00BF08E000BFFDF782
:1031D000A5FA00BF0298FCF7CFFF00BF00BF00BFF9
:1031E00005B0BDE8F08F14F4007F01D0358900E010
:1031F0000125D6F8009011E0D9F808000390D9F81D
:10320000040004900E985B4652460090384603999D
:10321000FFF7A7FEDDF81090681E85B2002DEBD1F8
:1032200000BF00BF00BFFCF7A3FF029000BFFDF787
:103230005BFA00BF0E480078401E0D490870084632
:10324000007808B900F00AF900BFFDF767FA00BF7F
:103250000298FCF791FF00BF00BF00BF14F4004FBD
:1032600001D1FDF761FD00210F98018000BFB7E794
:10327000E4000020A000002000210AE001EB410250
:10328000054B03EB820000220281026042604A1C6F
:10329000D1B24029F2D37047C821002010B50446AE
:1032A00094F83700FFF7F6FE94F8370005490978DF
:1032B000884203D1204600F027F802E0204600F0C3
:1032C00003F810BDCA00002010B590F8373003EBAA
:1032D00043030C4C04EB83010B893BB901230B81A5
:1032E0000023C36003610860486009E00B895B1C30
:1032F0000B810B68C360002303610A6810610860DA
:1033000010BD0000C821002010B590F8373003EB45
:1033100043030B4C04EB83010B893BB901230B8165
:103320000023C36003610860486008E00B895B1CF0
:103330000B810023C3604A680261D060486010BD01
:10334000C821002010B501460C8924B1012C03D0FE
:10335000022C0CD101E000BF14E008684A68026149
:103360000024C4601461D0600A6048600AE0086804
:103370004A68C36800241C61C4600261D0600B60AD
:10338000486000BF00BF10BD2DE9F041054695F82B
:10339000370000EB4000124901EB80042F69EE6812
:1033A00087B946B9002020812060606095F8370019
:1033B000FFF782FE0EE02089401E20810020306150
:1033C000266007E02089401E2081FE600EB96760FC
:1033D00000E0376100202861E860BDE8F08100006E
:1033E000C821002010B5002400BFFCF7C1FE044630
:1033F00000BF00200D4908700D480E4908600846BE
:103400000068D0F88C00401C0968C1F88C000A489C
:103410000068401C084908604FF080500749086068
:1034200000BF2046FCF7A8FE00BF10BDCB00002067
:10343000F8200020400100201001002004ED00E0F1
:1034400010B504480078012803D1FDF791F902492D
:10345000086010BDE4000020D800002010B50A4824
:10346000007880B9FDF784F908490968441A0848CA
:103470000068844201D90648046006480068844216
:1034800001D90448046010BDE4000020D8000020E9
:10349000DC000020E000002070B50546002635481D
:1034A0000078012800D070BD00BF00BFFCF760FEAF
:1034B000064600BFFDF718F900BF2C684CB900BFE5
:1034C000FDF72CF900BF3046FCF756FE00BF00BFE9
:1034D000E9E72948844209D100BFFDF71FF900BF81
:1034E0003046FCF749FE00BF00BFDCE7A06D10B11D
:1034F000A06D401EA065A06D48B100BFFDF70EF99C
:1035000000BF3046FCF738FE00BF00BFCBE728897C
:10351000022809DA00BFFDF701F900BF3046FCF7C9
:103520002BFE00BF00BFBEE714480078002809DD6D
:1035300000BFFDF7F3F800BF3046FCF71DFE00BFEB
:1035400000BFB0E72846FFF7FDFE2C68606D18B994
:103550000B480068A06501E0606DA06500BFFDF745
:10356000DDF800BF3046FCF707FE00BF00BF00BF1C
:1035700099E70000EC00002028200020E400002053
:10358000E800002009A1C1610021416108490968E2
:1035900011B90021816105E005490968816104498B
:1035A0000968486102490860704700002000000077
:1035B000F00000200021034A1160034A11800180BD
:1035C00070470000F0000020F40000202DE9FF5FAC
:1035D0000446884691461D460020019000BF00BF6A
:1035E000FCF7C6FD019000BFFDF77EF800BF04F1B7
:1035F00008073889002857D10420012804D0022860
:1036000016D004283AD127E0206AFF280FD100BF46
:10361000FDF784F800BF0198FCF7AEFD00BF00BFC6
:1036200046F6C5502880002004B0BDE8F09F26E093
:10363000206AA0F57F41FF390DD100BFFDF76EF87C
:1036400000BF0198FCF798FD00BF00BF46F6C550CB
:1036500028800020E8E712E0206A401C0DD100BF5E
:10366000FDF75CF800BF0198FCF786FD00BF00BFC6
:1036700046F6C55028800020D6E700E000BF00BF16
:10368000206A401C2062D4F820A0C4F8249000BF17
:10369000FDF744F800BF0198FCF76EFD00BF00BFC6
:1036A000002028805046BFE700BF2D480078401C0E
:1036B0002B49087008460078012801D1FFF7C0FEA9
:1036C00000BFFDF72BF800BF0198FCF755FD00BFC8
:1036D00000BF00BF18F4007F01D03E8900E0012642
:1036E000D7F800B011E0DBF808000290DBF8040026
:1036F000039000231A46CDF8009020460299FFF768
:1037000030FCDDF80CB0701E86B2002EEBD1D4F880
:1037100020A000BF00BF00BFFCF72AFD019000BF42
:10372000FCF7E2FF00BF0E480078401E0C4908700D
:103730000846007808B9FFF791FE00BFFCF7EEFFDE
:1037400000BF0198FCF718FD00BF00BF00BF18F4D0
:10375000004F01D1FDF7E8FA00202880504663E7CA
:10376000E40000201CB50020009000BF06E08C495A
:103770000968480001AA0021FEF718FB8948007873
:103780000128F4D101A8FDF76FFD002786480068E5
:1037900083490968884205D98348006880490968D7
:1037A000B0FBF1F727B9804800680A21B0FBF1F7B8
:1037B000F5E0FCF7DDFF8246FCF780FF7B490860FF
:1037C00000BF00BFFCF7D4FC009000BFFCF78CFFEB
:1037D00000BF774800687749086000207449086096
:1037E00000BFFCF79BFF00BF0098FCF7C5FC00BFC3
:1037F00000BF714800686F490968884213D96E4854
:10380000006860B16B480068642148436A490968F0
:10381000B0FBF1F0C0F164006849087006E0642074
:103820006649087002E0642064490870FDF700FEF4
:1038300000252E466248046866E000BF00BF00BF56
:10384000FCF796FC009000BFFCF74EFF00BF5D4800
:103850000078401C5B49087008460078012801D1B7
:10386000FFF7EEFD00BFFCF759FF00BF0098FCF723
:1038700083FC00BF00BF00BF54F8980F6168C4E923
:103880000201002121606160A4F1980400BF00BF23
:1038900000BFFCF76DFC009000BFFCF725FF00BFE8
:1038A00048480078401E4749087008460078D0B95B
:1038B000FFF7D4FD4448008800280BDD00BFFCF76B
:1038C0002DFF00BF0098FCF757FC00BF00BFFFF7BB
:1038D00089FD11E000BFFCF721FF00BF0098FCF755
:1038E0004BFC00BF08E000BFFCF718FF00BF0098CA
:1038F000FCF742FC00BF00BF00BF54F8A01F606887
:103900004D194641606A0446002C96D1642200237A
:1039100028463146FCF780FC05460E4628480468D8
:1039200021E0002185EA0100714008430ED02A46BB
:103930003346D4E928B15846FCF76EFC00F0FF0985
:10394000B9F1640F04D94FF0640901E04FF00009A8
:1039500084F88B9001AB04F1B002111D2046FEF7F4
:10396000FDF8D4F8C440002CDBD1184800780128B9
:1039700005D100201549087001A8FDF775FCFCF77A
:10398000F7FEA0EB0A0812480068804502D91048EB
:10399000C0F8008001AA00213846FEF707FA08E7C0
:1039A0008C57000804010020A45700089000002054
:1039B000F800002000010020FC000020F60000209C
:1039C00014010020E4000020A00000200C010020D1
:1039D0000801002010B58AB0044600201F49086085
:1039E0001F4908601F4908601F4908701F49087077
:1039F0001F48006820B946F62C6020800AB010BD30
:103A00001C4800681C490968884203D246F62D60AC
:103A10002080F3E7194800783F2803D346F273204B
:103A20002080EBE7032000210591CDE907040691F2
:103A3000084610490968124A12680D4B1B68CDE907
:103A40000132CDE903100D48007800230D4A0EA184
:103A500000901248FDF7F6FC00BFCFE7F800002009
:103A600000010020FC000020040100200C010020C7
:103A70009057000898570008A0570008885700087A
:103A8000945700086537000875432F4F532D494957
:103A9000492053746174205461736B00C824002062
:103AA00038B504460D4685B16B46022229462046AC
:103AB00000F028FCBDF8000018B9032084F8360097
:103AC00006E0022084F8360002E0022084F8360086
:103AD0002046FFF759FC38BD0021C0F8C010094945
:103AE000096819B90021C0F8C41007E00549096840
:103AF000C0F8C41003490968C1F8C0000149086052
:103B00007047000014010020D0F8C020D0F8C41085
:103B10004AB90D4B196011B10023C1F8C030002320
:103B2000C0F8C4300FE029B90023C2F8C430C0F88F
:103B3000C03008E0C2F8C410C1F8C0200023C0F8AB
:103B4000C430C0F8C0307047140100200021044A7E
:103B50001160044A1180044A11600180704700001E
:103B600014010020180100201001002070B5044647
:103B700000202060A0606060E06020616061A06162
:103B8000E0612DA0206200206062A062E0622063FC
:103B9000E0872064E065A4F86000002104F164007F
:103BA000FFF766F8002044F8740F6060E060A082C0
:103BB0002061A4F17404054606E0002104F17C00B4
:103BC00040F82510681CC5B2002DF6D0002004F185
:103BD000340420616067A067606084F85600C4F810
:103BE0008000E06720814FF0004060614FF00000EE
:103BF000A061E0612062606284F85700A065E06522
:103C0000FCF7B6FD0646266600216166A166002027
:103C1000C4F88400C4F8880020706070A070402050
:103C2000E0700020C4F88C00C4F8900004A0C4F830
:103C30009400A4F1340470BD3F5461736B00000024
:103C4000200000002DE9FC4704460F4690469946A7
:103C5000DDE90A654FF0000A00BF00BF00BFFCF7B6
:103C600087FA824600BFFCF73FFD00BF8C48007812
:103C7000401C8B49087008460078012801D1FFF7E5
:103C8000DFFB00BFFCF74AFD00BF5046FCF774FAAB
:103C900000BF00BF00BF0CB9824804680020288024
:103CA00094F8360008287BD2DFE800F00405484984
:103CB00006074A4B00BF00BF00BF4B46424639468D
:103CC00004F16400CDE90065FEF7DAFF00BF00BF34
:103CD00000BFFCF74DFA824600BFFCF705FD00BFB0
:103CE0006F480078401E6E49087008460078D0B9C9
:103CF000FFF7B4FB6C48008800280BDD00BFFCF721
:103D00000DFD00BF5046FCF737FA00BF00BFFFF7BC
:103D100069FB11E000BFFCF701FD00BF5046FCF756
:103D20002BFA00BF08E000BFFCF7F8FC00BF5046CC
:103D3000FCF722FA00BF00BF00BFAEE000BF00BF2B
:103D400000BF94F8340002282BD143463A4621465E
:103D500000200096FFF705F900BF00BF00BFFCF789
:103D600007FA824600BFFCF7BFFC00BF4C48007852
:103D7000401E4B4908700846007808B9FFF76EFBF3
:103D800000BFFCF7CBFC00BF5046FCF7F5F900BFC5
:103D900000BF00BF19F4004F43D1FCF7C5FF40E05E
:103DA00040E04B464246394604F16400CDE90065E7
:103DB000FEF766FF00BF00BF00BFFCF7D9F98246DF
:103DC00000BFFCF791FC00BF35480078401E344925
:103DD000087008460078D0B9FFF740FB32480088E9
:103DE00000280BDD00BFFCF799FC00BF5046FCF734
:103DF000C3F900BF00BFFFF7F5FA11E000BFFCF701
:103E00008DFC00BF5046FCF7B7F900BF08E000BFCB
:103E1000FCF784FC00BF5046FCF7AEF900BF00BFC2
:103E200000BF3AE000BF00BF00BFFCF7A1F9824627
:103E300000BFFCF759FC00BF19480078401E184924
:103E4000087008460078D0B9FFF708FB16480088CC
:103E500000280BDD00BFFCF761FC00BF5046FCF7FB
:103E60008BF900BF00BFFFF7BDFA11E000BFFCF700
:103E700055FC00BF5046FCF77FF900BF08E000BFCB
:103E8000FCF74CFC00BF5046FCF776F900BF00BFC2
:103E900000BF46F62A60288000BF00BFBDE8FC874F
:103EA000E40000203C010020A000002010B50446E2
:103EB000204600F005FB94F8360010F0040F02D104
:103EC0002046FFF7EBF910BD08B504480068FDF780
:103ED0001FFD69460020FDF70BFC08BD3C010020DA
:103EE0002DE9F8430446884617461D464FF0000961
:103EF00000BF00BF00BFFCF73BF9814600BFFCF7E5
:103F0000F3FB00BFF2480078401CF14908700846F6
:103F10000078012801D1FFF793FA00BFFCF7FEFB00
:103F200000BF4846FCF728F900BF00BF00BF0CB92E
:103F3000E848046827640020288094F836000828A0
:103F40007AD2DFE800F00405FEFD0607FCFB00BFA7
:103F500000BF00BF0420012804D0022843D0042859
:103F60006BD184E0606CFF283CD100BF00BF00BF74
:103F7000FCF7FEF8814600BFFCF7B6FB00BFD44853
:103F80000078401ED249087008460078D0B9FFF783
:103F900065FAD148008800280BDD00BFFCF7BEFBA6
:103FA00000BF4846FCF7E8F800BF00BFFFF71AFA69
:103FB00011E000BFFCF7B2FB00BF4846FCF7DCF89D
:103FC00000BF08E000BFFCF7A9FB00BF4846FCF7B4
:103FD000D3F800BF00BF00BF46F6C55028800020C0
:103FE000BDE8F88384E0606CA0F57F41FF393DD1E6
:103FF00000BF00BF00BFFCF7BBF8814600BFFCF765
:1040000073FB00BFB2480078401EB14908700846F3
:104010000078E0B9FFF722FAAF48008800280DDDEC
:1040200000BFFCF77BFB00BF4846FCF7A5F800BFCC
:1040300000BFFFF7D7F913E00BE158E000BFFCF732
:104040006DFB00BF4846FCF797F800BF08E000BFD3
:10405000FCF764FB00BF4846FCF78EF800BF00BFCA
:1040600000BF46F6C55028800020B9E740E0606CEC
:10407000401C3BD100BF00BF00BFFCF779F8814670
:1040800000BFFCF731FB00BF91480078401E90490B
:10409000087008460078D0B9FFF7E0F98E4800882C
:1040A00000280BDD00BFFCF739FB00BF4846FCF7DA
:1040B00063F800BF00BFFFF795F911E000BFFCF700
:1040C0002DFB00BF4846FCF757F800BF08E000BFD3
:1040D000FCF724FB00BF4846FCF74EF800BF00BFCA
:1040E00000BF46F6C5502880002079E700E000BFF9
:1040F00000BF606C401C6064666C00BF00BF00BF06
:10410000FCF736F8814600BFFCF7EEFA00BF7048B6
:104110000078401E6E49087008460078F8B9FFF72D
:104120009DF96D480088002810DD00BFFCF7F6FA05
:1041300000BF4846FCF720F800BF03E01DE01BE08D
:1041400019E017E000BFFFF74DF911E000BFFCF7E1
:10415000E5FA00BF4846FCF70FF800BF08E000BFD3
:10416000FCF7DCFA00BF4846FCF706F800BF00BFCA
:1041700000BFAAE000BF00BF00BF94F834000728CA
:104180002BD100231A46214618460097FEF7E9FE78
:10419000666C00BF00BF00BFFBF7EAFF814600BFAF
:1041A000FCF7A2FA00BF4A480078401E4849087050
:1041B0000846007808B9FFF751F900BFFCF7AEFADE
:1041C00000BF4846FBF7D8FF00BF00BF00BF18F490
:1041D000004F3DD1FCF7A8FD3AE0606C401C6064E4
:1041E000666C00BF00BF00BFFBF7C2FF814600BF87
:1041F000FCF77AFA00BF36480078401E3449087050
:1042000008460078D0B9FFF729F93348008800281C
:104210000BDD00BFFCF782FA00BF4846FBF7ACFF9E
:1042200000BF00BFFFF7DEF811E000BFFCF776FA31
:1042300000BF4846FBF7A0FF00BF08E000BFFCF747
:104240006DFA00BF4846FBF797FF00BF00BF00BFF5
:104250003BE000BF00BF00BFFBF78AFF814600BF05
:10426000FCF742FA00BF1A480078401E184908704F
:1042700008460078D0B9FFF7F1F817480088002801
:104280000BDD00BFFCF74AFA00BF4846FBF774FF9E
:1042900000BF00BFFFF7A6F811E000BFFCF73EFA31
:1042A00000BF4846FBF768FF00BF08E000BFFCF70F
:1042B00035FA00BF4846FBF75FFF00BF00BF00BFF5
:1042C00046F62A602880002600BF00BF304687E6F9
:1042D000E40000203C010020A0000020002108E0B4
:1042E000064A02EBC100002202608280C2804A1CA2
:1042F00091B2034A12889142F2DB7047581D0020A8
:10430000BC5700082DE9F04F0C4616461D46042EFA
:104310001ED1DFF8A091D9F80090A4EB0909A9F10A
:10432000010313F5803F0DD94FF00009C0F84C9000
:10433000C0F85090C0F81C9047F27E29A5F8009074
:10434000BDE8F08FC46403F10109C0F850903FE06C
:1043500084B3082E25D1D0F8489009EB0407DFF884
:104360005491D9F80090A7EB0909A9F10103A342E0
:1043700001D2C76406E0DFF83C91D9F80090A1446F
:10438000C0F84C90DFF82CA1D0F84C90DAF800A0DF
:10439000A9EB0A09C0F85090D0F84C90C0F84890AA
:1043A00016E0DFF81091D9F80090A144C0F84C90C5
:1043B00004650DE0FFE74FF00009C0F84C90C0F82D
:1043C0005090C0F81C9047F27E29A5F80090B7E7FE
:1043D000DFF8E4A0BAF800A0D0F84C90B9FBFAFBE3
:1043E0000AFB1B991FFA89F8DFF8D09009EBC80285
:1043F000B2F80490B9F1000F0BD14FF00009C0F8EA
:104400001490C0F8189010604FF00109A2F80490C1
:104410003EE0116834E0DFF89CA0D1F84C90DAF867
:1044200000A0A9EB0A09C1F85090D0F85090D1F83B
:1044300050A0D1450ED9D1F81490B9F1000F01D098
:1044400049691DE04FF00009C0F81490816148618E
:10445000002115E0D1F81890B9F1000F07D14FF005
:104460000009C0F8189041618861106007E0D1F838
:1044700018C0C0F818C04161CCF814008861002150
:104480000029C8D1B2F8049009F10109A2F80490FA
:10449000B2F80690B2F804A0D14503DAB2F804905D
:1044A000A2F80690C2614FF00009A5F8009000BF85
:1044B00046E700001C010020BC570008581D0020E2
:1044C00010B5C269BAB1002404651468844205D1EC
:1044D0004169116039B100248C6104E0816943694C
:1044E0004B6103B19961002444618461C461C46477
:1044F0009488641E948010BD002006E0054A02EBFB
:10450000C0010022CA80421C90B2034A1288904225
:10451000F4DB7047581D0020BC5700082DE9F05F00
:104520004FF0000B00BF00BF00BFFBF721FE83462A
:1045300000BFFCF7D9F800BF7D480078401C7C49DB
:10454000087008460078012801D1FEF779FF00BF06
:10455000FCF7E4F800BF5846FBF70EFE00BF00BFB3
:1045600000BFFCF705F9054672480068401C714918
:1045700008600846006870490988B0FBF1F201FB49
:1045800012001FFA80FA6D4800EBCA08D8F8004004
:10459000002788E0002C7DD0D4F8149094F83600E1
:1045A00008287BD2DFE800F00408051B064007530B
:1045B00000BF00BF00BF72E05E49E06C0968401AAE
:1045C00020655C49E06C0968884206D1002084F8C7
:1045D00036002046FFF76AFC00E001275FE05549FE
:1045E000E06C0968401A20655249E06C096888420D
:1045F00018D10020E065A4F86000FCF7B9F8206449
:104600002046FEF775FC2046FFF750FC002004F121
:104610003404A0704FF0030060704FF0000004F805
:10462000340900E001273AE04249E06C0968401A89
:1046300020654049E06C0968884206D1042084F86E
:1046400036002046FFF73CFF00E0012727E039490C
:10465000E06C0968401A20653649E06C09688842B8
:104660001AD10020E065A4F86000FCF781F820640E
:104670002046FEF73DFC2046FFF722FF042004F110
:104680003404A0704FF0030060704FF0000004F895
:10469000340902E006E001E0012700E000BF00BFAE
:1046A0004C4600E00127002F3FF474AFFCF760F8A0
:1046B000461B23480068864201D92148066000BF96
:1046C00000BF00BFFBF754FD834600BFFCF70CF8AA
:1046D00000BF17480078401E15490870084600784A
:1046E000D0B9FEF7BBFE1748008800280BDD00BFDD
:1046F000FCF714F800BF5846FBF73EFD00BF00BFB3
:10470000FEF770FE11E000BFFCF708F800BF584646
:10471000FBF732FD00BF08E000BFFBF7FFFF00BF63
:104720005846FBF729FD00BF00BF00BFBDE8F09F62
:10473000E40000201C010020BC570008581D002088
:1047400020010020A00000201CB500BF0EE001AB3E
:104750006A4600210846FDF7E7F8BDF8040028B9CD
:1047600003480078012801D1FFF7D8FEEFE70000E9
:104770009400002010B58AB0044600201449086057
:1047800014490860FFF7AAFD134800783F2804D3B6
:1047900046F2732020800AB010BD0320002105914D
:1047A000CDE9070406910D4802680D4800680D4BDD
:1047B0001B68CDE90130CDE90321074800780023CB
:1047C000094A0AA100900E48FCF73CFE00BFE2E750
:1047D0001C01002020010020A8570008B457000841
:1047E000B0570008AC5700084947000875432F4FE1
:1047F000532D494949205469636B205461736B0000
:104800009825002070B58AB0044600203149086020
:104810003148006840B1314800682F490968B0FB51
:10482000F1F02F49086006E02C4800680A21B0FB2F
:10483000F1F02B4908602A4800682A4908600020E6
:104840002949086029490860002508E0284800EB4C
:10485000C5060020B080F0803060681C85B2254815
:1048600000888542F2DB2448006820B947F24630D0
:1048700020800AB070BD214800682149096888423B
:1048800003D247F246302080F3E71E4800783F28E5
:1048900003D346F273202080EBE70320002105912B
:1048A000CDE907040691084614490968164A1268BA
:1048B000114B1B68CDE90132CDE903101148007896
:1048C0000023124A12A100901748FCF7BBFD00BF5D
:1048D000CFE7000024010020C8570008A4570008B3
:1048E0003401002038010020300100202C0100207C
:1048F000C01F0020DC570008CC570008D457000820
:10490000A0570008C4570008D0570008214A0008E3
:1049100075432F4F532D4949492054696D657220C5
:104920005461736B0000000068260020F0B50C464F
:10493000022680F82A60012C05D12D4F466A3F6877
:104940003E4486610CE0066A2EB9294F466A3F68EC
:104950003E44866104E0264F066A3F683E44866115
:10496000244F3F888669B6FBF7FC07FB1C66B5B28F
:10497000214E06EBC502166836B90026066146616F
:104980001060012696802CE0194F86693F68F61B5F
:10499000C661116820E0164F8E693F68F61BCE6134
:1049A000C669CF69BE4209D90E690EB1096913E023
:1049B000002606614161086100210DE04E692EB9B3
:1049C0000026466101614861106004E04B69436163
:1049D00001611861486100210029DCD19688761CAC
:1049E0009680D6889788BE4201DA9688D680F0BD38
:1049F00030010020DC570008C01F0020002006E026
:104A0000054A02EBC0010022CA80421C90B2034A50
:104A100012889042F4DB7047C01F0020DC5700086A
:104A20001CB500BF53E001AB6A4600210846FCF705
:104A30007BFF01A8FCF7CCF9FBF79AFE0646244859
:104A40000068401C2249086008460068214909881E
:104A5000B0FBF1F201FB12001FFA80FA1E4800EBD6
:104A6000CA08D8F800404FF0000B21E0F4B1D4F8A8
:104A700010901749A0690968884214D1204600F0B7
:104A80002FF8208D022804D101212046FFF74EFF88
:104A900002E0032084F82A00A56815B12046E168E9
:104AA000A8474C4604E04FF0010B01E04FF0010B2A
:104AB000BBF1000FDAD0FBF75BFE871B01A8FCF708
:104AC000C5F906480068874201D904480760AAE78B
:104AD00030010020DC570008C01F00202C010020FE
:104AE000F0B5114E36888569B5FBF6F706FB17550C
:104AF000ACB20E4D05EBC4021568854205D10169C3
:104B0000116039B100254D6104E0416903690B6111
:104B100003B15961012580F82A50002505614561DE
:104B200095886D1E9580F0BDDC570008C01F0020E1
:104B300010B5014601F58A7019C8D1F810215A4004
:104B40006040024301D1012010BD0020FCE710B5F8
:104B50008118C0F8001100F58C710CC1C0F8040177
:104B6000C0F808010024C0F81041C0F8144110BD7D
:104B700030B5014649B141B10025D1F810316B4043
:104B8000D1F814016840034302D14FF0FF3030BD2B
:104B900001F58071486890F90020486800F1010033
:104BA0004860D1E90030A1F58071984201D1C1F887
:104BB0000411D1F81041D1F81401641E60F1000015
:104BC000C1F81041C1F814011046E0E730B50446C1
:104BD0000D4604B114B94FF0FF3030BDD4F80411C4
:104BE000D4F8080188420CD20023D4F8101159409F
:104BF000D4F814015840014303D1D4F80801C4F893
:104C0000040104F58074A0680570A06800F101003B
:104C1000A0602168A068A4F58074884201D1C4F81E
:104C200008412046FFF784FF78B1D4F80401401C06
:104C3000D4F80011884202D1C4F8044110E0D4F83D
:104C40000401401CC4F804010AE0D4F81031D4F87F
:104C500014015A1C40F10000C4F81021C4F81401DA
:104C60000020BAE729B1064A92690243044B9A61CF
:104C700004E0034A92698243014B9A617047000045
:104C80000010024030B500210022002400232D4DE9
:104C90006D6805F00C0121B1042905D0082923D144
:104CA00005E0294D056022E0274D05601FE0254DF8
:104CB0006D6805F47012234D6D6805F4803402258B
:104CC00005EB92421CB9214D554305600BE01D4D8B
:104CD0006D6815F4003F03D01C4D5543056002E09C
:104CE000194D5543056002E0174D056000BF00BF38
:104CF000144D6D6805F0F0010909154D6B5C0568F0
:104D0000DD4045600F4D6D6805F4E061090A104D06
:104D10006B5C4568DD4085600A4D6D6805F4605147
:104D2000C90A0B4D6B5C4568DD40C560054D6D687B
:104D300005F44041890B074D6B5CC568B5FBF3F585
:104D4000056130BD0010024000127A0000093D00EC
:104D50000000002010000020704710B500F002F89D
:104D600010BD0000002100202E4A126842F480325B
:104D70002C4B1A6000BF2B4A126802F40030491C09
:104D800010B9B1F5A06FF6D1264A126812F4003FAF
:104D900001D0012000E00020012842D1224A1268FF
:104DA00042F01002204B1A601A46126822F00302E9
:104DB0001A601A46126842F002021A60194A5268D2
:104DC000184B5A601A4652685A601A46526842F4A2
:104DD00080625A601A46526822F47C125A601A465F
:104DE000526842F4E8125A601A46126842F0807221
:104DF0001A6000BF0B4A126812F0007FFAD0094A0D
:104E0000526822F00302074B5A601A46526842F079
:104E100002025A6000BF034A526802F00C02082ADC
:104E2000F9D17047001002400020024010B513482D
:104E3000006840F0010011490860084640681049C8
:104E400008400E494860084600680E4908400B4972
:104E500008600846006820F4802008600846406822
:104E600020F4FE0048604FF41F008860FFF775FFD4
:104E70004FF000600449086010BD000000100240BF
:104E80000000FFF8FFFFF6FE08ED00E038B540F245
:104E90002551174800F08EF890B1154800F046F9FA
:104EA00044B21448C06880F001001249C86021462D
:104EB0001148FFF78BFE6A4600211048FCF768F99D
:104EC00040F227710A4800F075F880B10C48FFF7EE
:104ED0004FFE0446002C04DBA1B2054800F02BF97C
:104EE00005E0002240F22771014800F08DF838BD3E
:104EF000003801400010014040050020B00B0020A8
:104F00002004002021B1828942F40052828104E011
:104F100082894DF6FF731A408281704700B585B0D3
:104F200001210420FFF79EFE01218803FFF79AFE6E
:104F30004FF40070ADF8100003208DF81200182017
:104F40008DF8130004A91948FBF71BFC4FF480608F
:104F5000ADF8100004208DF8130004A91348FBF7E6
:104F600010FC4FF4E13000900020ADF80400ADF8E3
:104F70000600ADF80800ADF80C000C20ADF80A00F2
:104F800069460B4800F066F8012240F225510848B6
:104F900000F03AF8012240F22771054800F034F899
:104FA00001210348FFF7AEFF05B000BD0008014036
:104FB0000038014070B5024600240023002500207F
:104FC000A1F510666A3E00D100BFC1F3421501F0A1
:104FD0001F03012606FA03F3012D02D196893340FF
:104FE00006E0022D02D1168A334001E0968A334052
:104FF0000C12012606FA04F41688344013B10CB1E1
:10500000012000E0002070BDF0B50346002400261A
:1050100000250020A1F510676A3F00D100BF1846A7
:10502000C1F3421401F01F06012707FA06F5012C0F
:1050300001D10C3004E0022C01D1103000E014301A
:105040001AB107682F43076002E00768AF430760A3
:10505000F0BD00002DE9F04786B005460E4600245D
:10506000A24600BFA1460027B08900B100BF2F466D
:105070002C8A4CF6FF700440F08804432C82AC89E3
:105080004EF6F3100440B088318908437189084313
:105090000443AC81AC8A4FF6FF400440B08904431E
:1050A000AC8201A8FFF7EEFD1F48874202D1DDF870
:1050B00010A001E0DDF80CA0A88910F4004F08D082
:1050C0000AEBCA0000EB0A1031684900B0FBF1F8A6
:1050D00007E00AEBCA0000EB0A1031688900B0FB58
:1050E000F1F86420B8FBF0F004012009642101FB11
:1050F0001089A88910F4004F08D0322000EBC900B5
:10510000B0FBF1F000F00700044308E0322000EBB0
:1051100009106421B0FBF1F000F00F0004432C8172
:1051200006B0BDE8F08700000038014001468888DD
:10513000C0F308007047C1F3080282807047000086
:10514000F0B506460C460027002506E0705D41B22A
:105150000748FFF73BFD681C85B2A542F6DB2CB182
:105160000448008840F08000024908803846F0BDBD
:10517000200400200C38014000BFFEE7014A02492C
:1051800000F013B8635600084801002002E008C888
:10519000121F08C1002AFAD170477047002001E0B1
:1051A00001C1121F002AFBD170472DE9F0411646BC
:1051B0000F460446002503E03946B0476D1C641CC9
:1051C00020780028F8D12846BDE8F08170B5044663
:1051D000002504E0082000F0A3FA681CC5B2A5422F
:1051E000F8DB70BD2DE9F041044600260027606819
:1051F00028B10AA16068FBF768F800B9012708A088
:1052000000F094FA002501E0681CC5B2022DFBD322
:1052100006A000F08BFA3046BDE8F081616C6C00AE
:105220000A436F6D6D616E64730A00000A466F7207
:105230002064657461696C65642068656C702074B5
:105240007970653A203C636F6D6D616E643E202D10
:10525000680A00002DE9F04104460D461646002775
:1052600000BF04EB8400054A02EB80004168284639
:10527000884707463846BDE8F08100001800002046
:10528000FEB500275E48FFF773FC0446002C09DAE0
:1052900002A801AB00220A2100905A48FBF76AFEDF
:1052A000781EFEBD0D2C0FD006DC032C20D0082C60
:1052B00023D00A2C73D106E01B2C4BD0232C66D0B4
:1052C0007F2C6CD118E000BF4F48007828B900202F
:1052D0004E494D4A1278885402E000204A4908702D
:1052E0000A2000F01DFA002049490880062784E0C2
:1052F00048A000F01BFA80E000BF43480078002877
:1053000027DD4249404A12788818FAF7D6FF401C38
:10531000C6B23E4A3C4B1B78D1183B4A1278521E0B
:105320003A4BD0183246FAF7A8FF082000F0F8F9F7
:105330003649354A1278881800F0F8F9202000F034
:10534000EFF93046FFF742FF2F480078401E2E4904
:10535000087052E02C480078002817DD00250AE08C
:10536000082000F0DDF9202000F0DAF9082000F034
:10537000D7F9681CC5B2244800788542F0DB0020CC
:10538000214908702149204A1278885435E00120CB
:105390001F490880E0B200F0C3F92EE0FFE71C4887
:1053A000008818B1E0B200F0BBF926E0202C01DB48
:1053B0007E2C00DD21E01549134A12788C541248E6
:1053C0000078401C104908700846007850280BDB14
:1053D0000020087013A000F0A9F900200B490A4A28
:1053E000127888540A2702E0E0B200F099F9002010
:1053F0000649054A1278885400BF00BF384650E776
:1054000040050020B00B0020400000206006002076
:10541000140000204374726C2D4320707265737306
:1054200065640A000A4552523A206C696E65207420
:105430006F6F206C6F6E670A0000000010B58AB0B5
:1054400000201A4908701A4908701A490870002487
:1054500007E0002004EB041101EB8411164A5054BC
:10546000641C0A2CF5DB15A000F060F909AB0022E2
:1054700018A11B48FBF73AFD09A803210022059259
:10548000CDE906210890104640210622154BCDE9B2
:105490000132CDE903100C200023134A13A1009020
:1054A0001648FBF7CFFF0AB010BD000060060020D1
:1054B0004000002041000020B106002075636F739A
:1054C0002020636F6E736F6C6520496E69740D0ADE
:1054D00000000000436F6E736F6C6553656D0000D4
:1054E000B00B0020DC09002001550008636F6E73CB
:1054F0006F6C65207461736B00000000E00A00208F
:1055000000BF01E000F002F8FCE700002DE9F041E7
:10551000A2B000270026B046FFF7B2FE0746062FCE
:1055200002D022B0BDE8F0813949097801EB0112BF
:1055300002EB8111374A88183749FAF7D4FE34480C
:105540000078401C32490870084600780A2801DBC0
:105550000020087001AA31A12F48FAF7CDFE0546B8
:1055600035B92FA000F0E2F82EA000F0DFF8D8E760
:1055700012E0202E00DB11E03046711CCEB202A9F1
:1055800041F8205001AA25A10020FAF7B5FE0546F2
:10559000002002A941F82600002DEAD100BF002416
:1055A00024E004EB8402204B53F822100298FAF70F
:1055B0008CFEC8B94FF001081CA10398FAF785FECC
:1055C00058B904EB8401184A02EB8101C86800F065
:1055D000ADF817A000F0AAF805E0324602A920466F
:1055E000FFF738FE074603E0601CC4B2022CD8D394
:1055F00000BFB8F1000F02D10EA000F097F808A08C
:1056000000F094F807A000F091F800BF89E70000CF
:1056100041000020B106002060060020202C000080
:105620000D000000233E0000180000202D6800003F
:105630000A000000636F6D6D616E64206E6F7420F0
:10564000666F756E640A0000002107E0002200E02A
:10565000521C42F6E0639A42FAD3491C8142F5D3C8
:10566000704738B504468DF8000069460320ABBE8C
:10567000204638BD0EB50020019000BF07E002A80B
:1056800001AB0022114600900148FBF773FCF6E7DE
:10569000D82A00200EB500BF0EE002AA4FF4007118
:1056A0000648FBF775FD02A800210B460122CDE953
:1056B00000100846FCF722FCEFE70000D82A002083
:1056C00000B58BB00AA8FBF7FFF90AA80321002256
:1056D0000592CDE906210890104680210C22094B45
:1056E000CDE90132CDE9031002200023064A07A1CB
:1056F00000900A48FBF7A6FE0AA8FBF781FD0020F0
:105700000BB000BD20020020FD0300084170702096
:105710005461736B20537461727400005001002057
:1057200001B501216846FFF70BFD08BD70B50446C1
:105730002046FAF7C2FD85B229462046FFF700FD54
:1057400070BD0000D80B00200C000000800000009D
:1057500000020000D80D00200A00000040010000F7
:10576000180F00200C000000800000000002000064
:1057700018110020800000000002000064000000FA
:1057800040060000181300203E0000000A00000040
:10579000581900200C0000008000000000020000EA
:1057A00040000000E80300003D000000581B0020FE
:1057B0000C00000080000000000200000D0000004E
:1057C000680000003E0000000A000000C01D00202C
:1057D0000C00000080000000000200000D0000002E
:1057E00068000000501400000100010178563412D6
:1057F00001010000000000000000000000000000A7
:105800000000000000000000000000000000000098
:105810000000000000000000000000000101010085
:10582000280004002000010000000000000000002B
:105830000000000000000000000000000000000068
:105840000000000000000000010020000100100026
:105850000800100000000000000000000000000030
:105860000000000000000000000000000000000038
:105870000000000000000000000000000000000028
:10588000010101002C00010120000C00200040005B
:1058900008000400000000000000000000000000FC
:1058A00000000000000000000000000000000000F8
:1058B00000000000000000000000000000000000E8
:1058C00000000000010101013000010000000000A3
:1058D00000000000000000000000000000000000C8
:1058E00000000000000000000000000000000000B8
:1058F000000000000101010128000C00000300006D
:10590000040101010101010101000101D0000800B1
:105910000101000000000000000000000000000085
:105920000000000000000000000000000000000077
:105930000000000000000000000000000000000067
:105940000000000000000000010134000800F875AC
:105950009C07000068656C703A206C697374732052
:10596000617661696C61626C6520636F6D6D616EFB
:1059700064732C20666F722064657461696C656461
:105980002068656C7020747970653A20636F6D6D66
:10599000616E64202D682E00680068656C700000E0
:1059A000C0590008000000204C010000A0030008BE
:1059B000E85900084C010020B42D00009C5100085B
:1059C000412D0102030404400906070809020406E8
:1059D00008139A591408E5513308021A540C410A65
:0859E00011981401FFD1000031
:0400000508000131BD
:00000001FF
